{
	"contracts/ProposalContract.sol": {
		"ProposalContract": {
			"abi": [
				{
					"inputs": [],
					"stateMutability": "nonpayable",
					"type": "constructor"
				},
				{
					"inputs": [
						{
							"internalType": "string",
							"name": "_description",
							"type": "string"
						},
						{
							"internalType": "string",
							"name": "_title",
							"type": "string"
						},
						{
							"internalType": "uint256",
							"name": "total_vote_to_end",
							"type": "uint256"
						}
					],
					"name": "create",
					"outputs": [],
					"stateMutability": "nonpayable",
					"type": "function"
				},
				{
					"inputs": [],
					"name": "getCurrentProposal",
					"outputs": [
						{
							"components": [
								{
									"internalType": "string",
									"name": "description",
									"type": "string"
								},
								{
									"internalType": "string",
									"name": "title",
									"type": "string"
								},
								{
									"internalType": "uint256",
									"name": "approve",
									"type": "uint256"
								},
								{
									"internalType": "uint256",
									"name": "reject",
									"type": "uint256"
								},
								{
									"internalType": "uint256",
									"name": "pass",
									"type": "uint256"
								},
								{
									"internalType": "uint256",
									"name": "total_vote_to_end",
									"type": "uint256"
								},
								{
									"internalType": "bool",
									"name": "current_state",
									"type": "bool"
								},
								{
									"internalType": "bool",
									"name": "is_active",
									"type": "bool"
								}
							],
							"internalType": "struct ProposalContract.Proposal",
							"name": "",
							"type": "tuple"
						}
					],
					"stateMutability": "view",
					"type": "function"
				},
				{
					"inputs": [
						{
							"internalType": "uint256",
							"name": "number",
							"type": "uint256"
						}
					],
					"name": "getProposal",
					"outputs": [
						{
							"components": [
								{
									"internalType": "string",
									"name": "description",
									"type": "string"
								},
								{
									"internalType": "string",
									"name": "title",
									"type": "string"
								},
								{
									"internalType": "uint256",
									"name": "approve",
									"type": "uint256"
								},
								{
									"internalType": "uint256",
									"name": "reject",
									"type": "uint256"
								},
								{
									"internalType": "uint256",
									"name": "pass",
									"type": "uint256"
								},
								{
									"internalType": "uint256",
									"name": "total_vote_to_end",
									"type": "uint256"
								},
								{
									"internalType": "bool",
									"name": "current_state",
									"type": "bool"
								},
								{
									"internalType": "bool",
									"name": "is_active",
									"type": "bool"
								}
							],
							"internalType": "struct ProposalContract.Proposal",
							"name": "",
							"type": "tuple"
						}
					],
					"stateMutability": "view",
					"type": "function"
				},
				{
					"inputs": [
						{
							"internalType": "address",
							"name": "_address",
							"type": "address"
						}
					],
					"name": "isVoted",
					"outputs": [
						{
							"internalType": "bool",
							"name": "",
							"type": "bool"
						}
					],
					"stateMutability": "view",
					"type": "function"
				},
				{
					"inputs": [
						{
							"internalType": "address",
							"name": "new_owner",
							"type": "address"
						}
					],
					"name": "setOwner",
					"outputs": [],
					"stateMutability": "nonpayable",
					"type": "function"
				},
				{
					"inputs": [],
					"name": "terminateProposal",
					"outputs": [],
					"stateMutability": "nonpayable",
					"type": "function"
				},
				{
					"inputs": [
						{
							"internalType": "uint8",
							"name": "choice",
							"type": "uint8"
						}
					],
					"name": "vote",
					"outputs": [],
					"stateMutability": "nonpayable",
					"type": "function"
				}
			],
			"devdoc": {
				"kind": "dev",
				"methods": {},
				"version": 1
			},
			"evm": {
				"assembly": "    /* \"contracts/ProposalContract.sol\":58:3468  contract ProposalContract {... */\n  mstore(0x40, 0x80)\n    /* \"contracts/ProposalContract.sol\":375:466  constructor() {... */\n  callvalue\n  dup1\n  iszero\n  tag_1\n  jumpi\n  0x00\n  dup1\n  revert\ntag_1:\n  pop\n    /* \"contracts/ProposalContract.sol\":407:417  msg.sender */\n  caller\n    /* \"contracts/ProposalContract.sol\":399:404  owner */\n  0x00\n  dup1\n    /* \"contracts/ProposalContract.sol\":399:417  owner = msg.sender */\n  0x0100\n  exp\n  dup2\n  sload\n  dup2\n  0xffffffffffffffffffffffffffffffffffffffff\n  mul\n  not\n  and\n  swap1\n  dup4\n  0xffffffffffffffffffffffffffffffffffffffff\n  and\n  mul\n  or\n  swap1\n  sstore\n  pop\n    /* \"contracts/ProposalContract.sol\":427:442  voted_addresses */\n  0x03\n    /* \"contracts/ProposalContract.sol\":448:458  msg.sender */\n  caller\n    /* \"contracts/ProposalContract.sol\":427:459  voted_addresses.push(msg.sender) */\n  swap1\n  dup1\n  0x01\n  dup2\n  sload\n  add\n  dup1\n  dup3\n  sstore\n  dup1\n  swap2\n  pop\n  pop\n  0x01\n  swap1\n  sub\n  swap1\n  0x00\n  mstore\n  keccak256(0x00, 0x20)\n  add\n  0x00\n  swap1\n  swap2\n  swap1\n  swap2\n  swap1\n  swap2\n  0x0100\n  exp\n  dup2\n  sload\n  dup2\n  0xffffffffffffffffffffffffffffffffffffffff\n  mul\n  not\n  and\n  swap1\n  dup4\n  0xffffffffffffffffffffffffffffffffffffffff\n  and\n  mul\n  or\n  swap1\n  sstore\n  pop\n    /* \"contracts/ProposalContract.sol\":58:3468  contract ProposalContract {... */\n  dataSize(sub_0)\n  dup1\n  dataOffset(sub_0)\n  0x00\n  codecopy\n  0x00\n  return\nstop\n\nsub_0: assembly {\n        /* \"contracts/ProposalContract.sol\":58:3468  contract ProposalContract {... */\n      mstore(0x40, 0x80)\n      callvalue\n      dup1\n      iszero\n      tag_1\n      jumpi\n      0x00\n      dup1\n      revert\n    tag_1:\n      pop\n      jumpi(tag_2, lt(calldatasize, 0x04))\n      shr(0xe0, calldataload(0x00))\n      dup1\n      0xb3f98adc\n      gt\n      tag_10\n      jumpi\n      dup1\n      0xb3f98adc\n      eq\n      tag_6\n      jumpi\n      dup1\n      0xc7f758a8\n      eq\n      tag_7\n      jumpi\n      dup1\n      0xcbff75cb\n      eq\n      tag_8\n      jumpi\n      dup1\n      0xdbddc7aa\n      eq\n      tag_9\n      jumpi\n      jump(tag_2)\n    tag_10:\n      dup1\n      0x13af4035\n      eq\n      tag_3\n      jumpi\n      dup1\n      0x3ca6d100\n      eq\n      tag_4\n      jumpi\n      dup1\n      0x41ec6870\n      eq\n      tag_5\n      jumpi\n    tag_2:\n      0x00\n      dup1\n      revert\n        /* \"contracts/ProposalContract.sol\":1342:1432  function setOwner(address new_owner) external onlyOwner {... */\n    tag_3:\n      tag_11\n      0x04\n      dup1\n      calldatasize\n      sub\n      dup2\n      add\n      swap1\n      tag_12\n      swap2\n      swap1\n      tag_13\n      jump\t// in\n    tag_12:\n      tag_14\n      jump\t// in\n    tag_11:\n      stop\n        /* \"contracts/ProposalContract.sol\":647:1037  function create(... */\n    tag_4:\n      tag_15\n      0x04\n      dup1\n      calldatasize\n      sub\n      dup2\n      add\n      swap1\n      tag_16\n      swap2\n      swap1\n      tag_17\n      jump\t// in\n    tag_16:\n      tag_18\n      jump\t// in\n    tag_15:\n      stop\n        /* \"contracts/ProposalContract.sol\":3067:3186  function getCurrentProposal() external view returns (Proposal memory) {... */\n    tag_5:\n      tag_19\n      tag_20\n      jump\t// in\n    tag_19:\n      mload(0x40)\n      tag_21\n      swap2\n      swap1\n      tag_22\n      jump\t// in\n    tag_21:\n      mload(0x40)\n      dup1\n      swap2\n      sub\n      swap1\n      return\n        /* \"contracts/ProposalContract.sol\":1895:2798  function vote(uint8 choice) external active newVoter(msg.sender) {... */\n    tag_6:\n      tag_23\n      0x04\n      dup1\n      calldatasize\n      sub\n      dup2\n      add\n      swap1\n      tag_24\n      swap2\n      swap1\n      tag_25\n      jump\t// in\n    tag_24:\n      tag_26\n      jump\t// in\n    tag_23:\n      stop\n        /* \"contracts/ProposalContract.sol\":3192:3345  function getProposal(uint256 number)... */\n    tag_7:\n      tag_27\n      0x04\n      dup1\n      calldatasize\n      sub\n      dup2\n      add\n      swap1\n      tag_28\n      swap2\n      swap1\n      tag_29\n      jump\t// in\n    tag_28:\n      tag_30\n      jump\t// in\n    tag_27:\n      mload(0x40)\n      tag_31\n      swap2\n      swap1\n      tag_22\n      jump\t// in\n    tag_31:\n      mload(0x40)\n      dup1\n      swap2\n      sub\n      swap1\n      return\n        /* \"contracts/ProposalContract.sol\":2804:3061  function isVoted(address _address) public view returns (bool) {... */\n    tag_8:\n      tag_32\n      0x04\n      dup1\n      calldatasize\n      sub\n      dup2\n      add\n      swap1\n      tag_33\n      swap2\n      swap1\n      tag_13\n      jump\t// in\n    tag_33:\n      tag_34\n      jump\t// in\n    tag_32:\n      mload(0x40)\n      tag_35\n      swap2\n      swap1\n      tag_36\n      jump\t// in\n    tag_35:\n      mload(0x40)\n      dup1\n      swap2\n      sub\n      swap1\n      return\n        /* \"contracts/ProposalContract.sol\":3351:3466  function terminateProposal() external onlyOwner active {... */\n    tag_9:\n      tag_37\n      tag_38\n      jump\t// in\n    tag_37:\n      stop\n        /* \"contracts/ProposalContract.sol\":1342:1432  function setOwner(address new_owner) external onlyOwner {... */\n    tag_14:\n        /* \"contracts/ProposalContract.sol\":525:530  owner */\n      0x00\n      dup1\n      sload\n      swap1\n      0x0100\n      exp\n      swap1\n      div\n      0xffffffffffffffffffffffffffffffffffffffff\n      and\n        /* \"contracts/ProposalContract.sol\":511:530  msg.sender == owner */\n      0xffffffffffffffffffffffffffffffffffffffff\n      and\n        /* \"contracts/ProposalContract.sol\":511:521  msg.sender */\n      caller\n        /* \"contracts/ProposalContract.sol\":511:530  msg.sender == owner */\n      0xffffffffffffffffffffffffffffffffffffffff\n      and\n      eq\n        /* \"contracts/ProposalContract.sol\":503:531  require(msg.sender == owner) */\n      tag_40\n      jumpi\n      0x00\n      dup1\n      revert\n    tag_40:\n        /* \"contracts/ProposalContract.sol\":1416:1425  new_owner */\n      dup1\n        /* \"contracts/ProposalContract.sol\":1408:1413  owner */\n      0x00\n      dup1\n        /* \"contracts/ProposalContract.sol\":1408:1425  owner = new_owner */\n      0x0100\n      exp\n      dup2\n      sload\n      dup2\n      0xffffffffffffffffffffffffffffffffffffffff\n      mul\n      not\n      and\n      swap1\n      dup4\n      0xffffffffffffffffffffffffffffffffffffffff\n      and\n      mul\n      or\n      swap1\n      sstore\n      pop\n        /* \"contracts/ProposalContract.sol\":1342:1432  function setOwner(address new_owner) external onlyOwner {... */\n      pop\n      jump\t// out\n        /* \"contracts/ProposalContract.sol\":647:1037  function create(... */\n    tag_18:\n        /* \"contracts/ProposalContract.sol\":525:530  owner */\n      0x00\n      dup1\n      sload\n      swap1\n      0x0100\n      exp\n      swap1\n      div\n      0xffffffffffffffffffffffffffffffffffffffff\n      and\n        /* \"contracts/ProposalContract.sol\":511:530  msg.sender == owner */\n      0xffffffffffffffffffffffffffffffffffffffff\n      and\n        /* \"contracts/ProposalContract.sol\":511:521  msg.sender */\n      caller\n        /* \"contracts/ProposalContract.sol\":511:530  msg.sender == owner */\n      0xffffffffffffffffffffffffffffffffffffffff\n      and\n      eq\n        /* \"contracts/ProposalContract.sol\":503:531  require(msg.sender == owner) */\n      tag_43\n      jumpi\n      0x00\n      dup1\n      revert\n    tag_43:\n        /* \"contracts/ProposalContract.sol\":814:815  1 */\n      0x01\n        /* \"contracts/ProposalContract.sol\":803:810  counter */\n      dup1\n      0x00\n        /* \"contracts/ProposalContract.sol\":803:815  counter += 1 */\n      dup3\n      dup3\n      sload\n      tag_45\n      swap2\n      swap1\n      tag_46\n      jump\t// in\n    tag_45:\n      swap3\n      pop\n      pop\n      dup2\n      swap1\n      sstore\n      pop\n        /* \"contracts/ProposalContract.sol\":853:1030  Proposal(... */\n      mload(0x40)\n      dup1\n      0x0100\n      add\n      0x40\n      mstore\n      dup1\n        /* \"contracts/ProposalContract.sol\":875:887  _description */\n      dup7\n      dup7\n        /* \"contracts/ProposalContract.sol\":853:1030  Proposal(... */\n      dup1\n      dup1\n      0x1f\n      add\n      0x20\n      dup1\n      swap2\n      div\n      mul\n      0x20\n      add\n      mload(0x40)\n      swap1\n      dup2\n      add\n      0x40\n      mstore\n      dup1\n      swap4\n      swap3\n      swap2\n      swap1\n      dup2\n      dup2\n      mstore\n      0x20\n      add\n      dup4\n      dup4\n      dup1\n      dup3\n      dup5\n      calldatacopy\n      0x00\n      dup2\n      dup5\n      add\n      mstore\n      not(0x1f)\n      0x1f\n      dup3\n      add\n      and\n      swap1\n      pop\n      dup1\n      dup4\n      add\n      swap3\n      pop\n      pop\n      pop\n      pop\n      pop\n      pop\n      pop\n      dup2\n      mstore\n      0x20\n      add\n        /* \"contracts/ProposalContract.sol\":901:907  _title */\n      dup5\n      dup5\n        /* \"contracts/ProposalContract.sol\":853:1030  Proposal(... */\n      dup1\n      dup1\n      0x1f\n      add\n      0x20\n      dup1\n      swap2\n      div\n      mul\n      0x20\n      add\n      mload(0x40)\n      swap1\n      dup2\n      add\n      0x40\n      mstore\n      dup1\n      swap4\n      swap3\n      swap2\n      swap1\n      dup2\n      dup2\n      mstore\n      0x20\n      add\n      dup4\n      dup4\n      dup1\n      dup3\n      dup5\n      calldatacopy\n      0x00\n      dup2\n      dup5\n      add\n      mstore\n      not(0x1f)\n      0x1f\n      dup3\n      add\n      and\n      swap1\n      pop\n      dup1\n      dup4\n      add\n      swap3\n      pop\n      pop\n      pop\n      pop\n      pop\n      pop\n      pop\n      dup2\n      mstore\n      0x20\n      add\n        /* \"contracts/ProposalContract.sol\":921:922  0 */\n      0x00\n        /* \"contracts/ProposalContract.sol\":853:1030  Proposal(... */\n      dup2\n      mstore\n      0x20\n      add\n        /* \"contracts/ProposalContract.sol\":936:937  0 */\n      0x00\n        /* \"contracts/ProposalContract.sol\":853:1030  Proposal(... */\n      dup2\n      mstore\n      0x20\n      add\n        /* \"contracts/ProposalContract.sol\":951:952  0 */\n      0x00\n        /* \"contracts/ProposalContract.sol\":853:1030  Proposal(... */\n      dup2\n      mstore\n      0x20\n      add\n        /* \"contracts/ProposalContract.sol\":966:983  total_vote_to_end */\n      dup3\n        /* \"contracts/ProposalContract.sol\":853:1030  Proposal(... */\n      dup2\n      mstore\n      0x20\n      add\n        /* \"contracts/ProposalContract.sol\":997:1002  false */\n      0x00\n        /* \"contracts/ProposalContract.sol\":853:1030  Proposal(... */\n      iszero\n      iszero\n      dup2\n      mstore\n      0x20\n      add\n        /* \"contracts/ProposalContract.sol\":1016:1020  true */\n      0x01\n        /* \"contracts/ProposalContract.sol\":853:1030  Proposal(... */\n      iszero\n      iszero\n      dup2\n      mstore\n      pop\n        /* \"contracts/ProposalContract.sol\":825:841  proposal_history */\n      0x02\n        /* \"contracts/ProposalContract.sol\":825:850  proposal_history[counter] */\n      0x00\n        /* \"contracts/ProposalContract.sol\":842:849  counter */\n      sload(0x01)\n        /* \"contracts/ProposalContract.sol\":825:850  proposal_history[counter] */\n      dup2\n      mstore\n      0x20\n      add\n      swap1\n      dup2\n      mstore\n      0x20\n      add\n      0x00\n      keccak256\n        /* \"contracts/ProposalContract.sol\":825:1030  proposal_history[counter] = Proposal(... */\n      0x00\n      dup3\n      add\n      mload\n      dup2\n      0x00\n      add\n      swap1\n      dup2\n      tag_47\n      swap2\n      swap1\n      tag_48\n      jump\t// in\n    tag_47:\n      pop\n      0x20\n      dup3\n      add\n      mload\n      dup2\n      0x01\n      add\n      swap1\n      dup2\n      tag_49\n      swap2\n      swap1\n      tag_48\n      jump\t// in\n    tag_49:\n      pop\n      0x40\n      dup3\n      add\n      mload\n      dup2\n      0x02\n      add\n      sstore\n      0x60\n      dup3\n      add\n      mload\n      dup2\n      0x03\n      add\n      sstore\n      0x80\n      dup3\n      add\n      mload\n      dup2\n      0x04\n      add\n      sstore\n      0xa0\n      dup3\n      add\n      mload\n      dup2\n      0x05\n      add\n      sstore\n      0xc0\n      dup3\n      add\n      mload\n      dup2\n      0x06\n      add\n      exp(0x0100, 0x00)\n      dup2\n      sload\n      dup2\n      0xff\n      mul\n      not\n      and\n      swap1\n      dup4\n      iszero\n      iszero\n      mul\n      or\n      swap1\n      sstore\n      pop\n      0xe0\n      dup3\n      add\n      mload\n      dup2\n      0x06\n      add\n      exp(0x0100, 0x01)\n      dup2\n      sload\n      dup2\n      0xff\n      mul\n      not\n      and\n      swap1\n      dup4\n      iszero\n      iszero\n      mul\n      or\n      swap1\n      sstore\n      pop\n      swap1\n      pop\n      pop\n        /* \"contracts/ProposalContract.sol\":647:1037  function create(... */\n      pop\n      pop\n      pop\n      pop\n      pop\n      jump\t// out\n        /* \"contracts/ProposalContract.sol\":3067:3186  function getCurrentProposal() external view returns (Proposal memory) {... */\n    tag_20:\n        /* \"contracts/ProposalContract.sol\":3120:3135  Proposal memory */\n      tag_50\n      tag_51\n      jump\t// in\n    tag_50:\n        /* \"contracts/ProposalContract.sol\":3154:3170  proposal_history */\n      0x02\n        /* \"contracts/ProposalContract.sol\":3154:3179  proposal_history[counter] */\n      0x00\n        /* \"contracts/ProposalContract.sol\":3171:3178  counter */\n      sload(0x01)\n        /* \"contracts/ProposalContract.sol\":3154:3179  proposal_history[counter] */\n      dup2\n      mstore\n      0x20\n      add\n      swap1\n      dup2\n      mstore\n      0x20\n      add\n      0x00\n      keccak256\n        /* \"contracts/ProposalContract.sol\":3147:3179  return proposal_history[counter] */\n      mload(0x40)\n      dup1\n      0x0100\n      add\n      0x40\n      mstore\n      swap1\n      dup2\n      0x00\n      dup3\n      add\n      dup1\n      sload\n      tag_53\n      swap1\n      tag_54\n      jump\t// in\n    tag_53:\n      dup1\n      0x1f\n      add\n      0x20\n      dup1\n      swap2\n      div\n      mul\n      0x20\n      add\n      mload(0x40)\n      swap1\n      dup2\n      add\n      0x40\n      mstore\n      dup1\n      swap3\n      swap2\n      swap1\n      dup2\n      dup2\n      mstore\n      0x20\n      add\n      dup3\n      dup1\n      sload\n      tag_55\n      swap1\n      tag_54\n      jump\t// in\n    tag_55:\n      dup1\n      iszero\n      tag_56\n      jumpi\n      dup1\n      0x1f\n      lt\n      tag_57\n      jumpi\n      0x0100\n      dup1\n      dup4\n      sload\n      div\n      mul\n      dup4\n      mstore\n      swap2\n      0x20\n      add\n      swap2\n      jump(tag_56)\n    tag_57:\n      dup3\n      add\n      swap2\n      swap1\n      0x00\n      mstore\n      keccak256(0x00, 0x20)\n      swap1\n    tag_58:\n      dup2\n      sload\n      dup2\n      mstore\n      swap1\n      0x01\n      add\n      swap1\n      0x20\n      add\n      dup1\n      dup4\n      gt\n      tag_58\n      jumpi\n      dup3\n      swap1\n      sub\n      0x1f\n      and\n      dup3\n      add\n      swap2\n    tag_56:\n      pop\n      pop\n      pop\n      pop\n      pop\n      dup2\n      mstore\n      0x20\n      add\n      0x01\n      dup3\n      add\n      dup1\n      sload\n      tag_59\n      swap1\n      tag_54\n      jump\t// in\n    tag_59:\n      dup1\n      0x1f\n      add\n      0x20\n      dup1\n      swap2\n      div\n      mul\n      0x20\n      add\n      mload(0x40)\n      swap1\n      dup2\n      add\n      0x40\n      mstore\n      dup1\n      swap3\n      swap2\n      swap1\n      dup2\n      dup2\n      mstore\n      0x20\n      add\n      dup3\n      dup1\n      sload\n      tag_60\n      swap1\n      tag_54\n      jump\t// in\n    tag_60:\n      dup1\n      iszero\n      tag_61\n      jumpi\n      dup1\n      0x1f\n      lt\n      tag_62\n      jumpi\n      0x0100\n      dup1\n      dup4\n      sload\n      div\n      mul\n      dup4\n      mstore\n      swap2\n      0x20\n      add\n      swap2\n      jump(tag_61)\n    tag_62:\n      dup3\n      add\n      swap2\n      swap1\n      0x00\n      mstore\n      keccak256(0x00, 0x20)\n      swap1\n    tag_63:\n      dup2\n      sload\n      dup2\n      mstore\n      swap1\n      0x01\n      add\n      swap1\n      0x20\n      add\n      dup1\n      dup4\n      gt\n      tag_63\n      jumpi\n      dup3\n      swap1\n      sub\n      0x1f\n      and\n      dup3\n      add\n      swap2\n    tag_61:\n      pop\n      pop\n      pop\n      pop\n      pop\n      dup2\n      mstore\n      0x20\n      add\n      0x02\n      dup3\n      add\n      sload\n      dup2\n      mstore\n      0x20\n      add\n      0x03\n      dup3\n      add\n      sload\n      dup2\n      mstore\n      0x20\n      add\n      0x04\n      dup3\n      add\n      sload\n      dup2\n      mstore\n      0x20\n      add\n      0x05\n      dup3\n      add\n      sload\n      dup2\n      mstore\n      0x20\n      add\n      0x06\n      dup3\n      add\n      0x00\n      swap1\n      sload\n      swap1\n      0x0100\n      exp\n      swap1\n      div\n      0xff\n      and\n      iszero\n      iszero\n      iszero\n      iszero\n      dup2\n      mstore\n      0x20\n      add\n      0x06\n      dup3\n      add\n      0x01\n      swap1\n      sload\n      swap1\n      0x0100\n      exp\n      swap1\n      div\n      0xff\n      and\n      iszero\n      iszero\n      iszero\n      iszero\n      dup2\n      mstore\n      pop\n      pop\n      swap1\n      pop\n        /* \"contracts/ProposalContract.sol\":3067:3186  function getCurrentProposal() external view returns (Proposal memory) {... */\n      swap1\n      jump\t// out\n        /* \"contracts/ProposalContract.sol\":1895:2798  function vote(uint8 choice) external active newVoter(msg.sender) {... */\n    tag_26:\n        /* \"contracts/ProposalContract.sol\":1131:1135  true */\n      0x01\n        /* \"contracts/ProposalContract.sol\":1092:1135  proposal_history[counter].is_active == true */\n      iszero\n      iszero\n        /* \"contracts/ProposalContract.sol\":1092:1108  proposal_history */\n      0x02\n        /* \"contracts/ProposalContract.sol\":1092:1117  proposal_history[counter] */\n      0x00\n        /* \"contracts/ProposalContract.sol\":1109:1116  counter */\n      sload(0x01)\n        /* \"contracts/ProposalContract.sol\":1092:1117  proposal_history[counter] */\n      dup2\n      mstore\n      0x20\n      add\n      swap1\n      dup2\n      mstore\n      0x20\n      add\n      0x00\n      keccak256\n        /* \"contracts/ProposalContract.sol\":1092:1127  proposal_history[counter].is_active */\n      0x06\n      add\n      0x01\n      swap1\n      sload\n      swap1\n      0x0100\n      exp\n      swap1\n      div\n      0xff\n      and\n        /* \"contracts/ProposalContract.sol\":1092:1135  proposal_history[counter].is_active == true */\n      iszero\n      iszero\n      eq\n        /* \"contracts/ProposalContract.sol\":1071:1187  require(... */\n      tag_65\n      jumpi\n      mload(0x40)\n      0x08c379a000000000000000000000000000000000000000000000000000000000\n      dup2\n      mstore\n      0x04\n      add\n      tag_66\n      swap1\n      tag_67\n      jump\t// in\n    tag_66:\n      mload(0x40)\n      dup1\n      swap2\n      sub\n      swap1\n      revert\n    tag_65:\n        /* \"contracts/ProposalContract.sol\":1948:1958  msg.sender */\n      caller\n        /* \"contracts/ProposalContract.sol\":1266:1283  isVoted(_address) */\n      tag_69\n        /* \"contracts/ProposalContract.sol\":1274:1282  _address */\n      dup2\n        /* \"contracts/ProposalContract.sol\":1266:1273  isVoted */\n      tag_34\n        /* \"contracts/ProposalContract.sol\":1266:1283  isVoted(_address) */\n      jump\t// in\n    tag_69:\n        /* \"contracts/ProposalContract.sol\":1265:1283  !isVoted(_address) */\n      iszero\n        /* \"contracts/ProposalContract.sol\":1257:1318  require(!isVoted(_address), \"The address has already voted!\") */\n      tag_70\n      jumpi\n      mload(0x40)\n      0x08c379a000000000000000000000000000000000000000000000000000000000\n      dup2\n      mstore\n      0x04\n      add\n      tag_71\n      swap1\n      tag_72\n      jump\t// in\n    tag_71:\n      mload(0x40)\n      dup1\n      swap2\n      sub\n      swap1\n      revert\n    tag_70:\n        /* \"contracts/ProposalContract.sol\":1970:1995  Proposal storage proposal */\n      0x00\n        /* \"contracts/ProposalContract.sol\":1998:2014  proposal_history */\n      0x02\n        /* \"contracts/ProposalContract.sol\":1998:2023  proposal_history[counter] */\n      0x00\n        /* \"contracts/ProposalContract.sol\":2015:2022  counter */\n      sload(0x01)\n        /* \"contracts/ProposalContract.sol\":1998:2023  proposal_history[counter] */\n      dup2\n      mstore\n      0x20\n      add\n      swap1\n      dup2\n      mstore\n      0x20\n      add\n      0x00\n      keccak256\n        /* \"contracts/ProposalContract.sol\":1970:2023  Proposal storage proposal = proposal_history[counter] */\n      swap1\n      pop\n        /* \"contracts/ProposalContract.sol\":2033:2051  uint256 total_vote */\n      0x00\n        /* \"contracts/ProposalContract.sol\":2091:2099  proposal */\n      dup2\n        /* \"contracts/ProposalContract.sol\":2091:2104  proposal.pass */\n      0x04\n      add\n      sload\n        /* \"contracts/ProposalContract.sol\":2073:2081  proposal */\n      dup3\n        /* \"contracts/ProposalContract.sol\":2073:2088  proposal.reject */\n      0x03\n      add\n      sload\n        /* \"contracts/ProposalContract.sol\":2054:2062  proposal */\n      dup4\n        /* \"contracts/ProposalContract.sol\":2054:2070  proposal.approve */\n      0x02\n      add\n      sload\n        /* \"contracts/ProposalContract.sol\":2054:2088  proposal.approve + proposal.reject */\n      tag_74\n      swap2\n      swap1\n      tag_46\n      jump\t// in\n    tag_74:\n        /* \"contracts/ProposalContract.sol\":2054:2104  proposal.approve + proposal.reject + proposal.pass */\n      tag_75\n      swap2\n      swap1\n      tag_46\n      jump\t// in\n    tag_75:\n        /* \"contracts/ProposalContract.sol\":2033:2104  uint256 total_vote = proposal.approve + proposal.reject + proposal.pass */\n      swap1\n      pop\n        /* \"contracts/ProposalContract.sol\":2115:2130  voted_addresses */\n      0x03\n        /* \"contracts/ProposalContract.sol\":2136:2146  msg.sender */\n      caller\n        /* \"contracts/ProposalContract.sol\":2115:2147  voted_addresses.push(msg.sender) */\n      swap1\n      dup1\n      0x01\n      dup2\n      sload\n      add\n      dup1\n      dup3\n      sstore\n      dup1\n      swap2\n      pop\n      pop\n      0x01\n      swap1\n      sub\n      swap1\n      0x00\n      mstore\n      keccak256(0x00, 0x20)\n      add\n      0x00\n      swap1\n      swap2\n      swap1\n      swap2\n      swap1\n      swap2\n      0x0100\n      exp\n      dup2\n      sload\n      dup2\n      0xffffffffffffffffffffffffffffffffffffffff\n      mul\n      not\n      and\n      swap1\n      dup4\n      0xffffffffffffffffffffffffffffffffffffffff\n      and\n      mul\n      or\n      swap1\n      sstore\n      pop\n        /* \"contracts/ProposalContract.sol\":2172:2173  1 */\n      0x01\n        /* \"contracts/ProposalContract.sol\":2162:2168  choice */\n      dup5\n        /* \"contracts/ProposalContract.sol\":2162:2173  choice == 1 */\n      0xff\n      and\n      sub\n        /* \"contracts/ProposalContract.sol\":2158:2541  if (choice == 1) {... */\n      tag_77\n      jumpi\n        /* \"contracts/ProposalContract.sol\":2209:2210  1 */\n      0x01\n        /* \"contracts/ProposalContract.sol\":2189:2197  proposal */\n      dup3\n        /* \"contracts/ProposalContract.sol\":2189:2205  proposal.approve */\n      0x02\n      add\n      0x00\n        /* \"contracts/ProposalContract.sol\":2189:2210  proposal.approve += 1 */\n      dup3\n      dup3\n      sload\n      tag_78\n      swap2\n      swap1\n      tag_46\n      jump\t// in\n    tag_78:\n      swap3\n      pop\n      pop\n      dup2\n      swap1\n      sstore\n      pop\n        /* \"contracts/ProposalContract.sol\":2249:2272  calculateCurrentState() */\n      tag_79\n        /* \"contracts/ProposalContract.sol\":2249:2270  calculateCurrentState */\n      tag_80\n        /* \"contracts/ProposalContract.sol\":2249:2272  calculateCurrentState() */\n      jump\t// in\n    tag_79:\n        /* \"contracts/ProposalContract.sol\":2224:2232  proposal */\n      dup3\n        /* \"contracts/ProposalContract.sol\":2224:2246  proposal.current_state */\n      0x06\n      add\n      0x00\n        /* \"contracts/ProposalContract.sol\":2224:2272  proposal.current_state = calculateCurrentState() */\n      0x0100\n      exp\n      dup2\n      sload\n      dup2\n      0xff\n      mul\n      not\n      and\n      swap1\n      dup4\n      iszero\n      iszero\n      mul\n      or\n      swap1\n      sstore\n      pop\n        /* \"contracts/ProposalContract.sol\":2158:2541  if (choice == 1) {... */\n      jump(tag_81)\n    tag_77:\n        /* \"contracts/ProposalContract.sol\":2303:2304  2 */\n      0x02\n        /* \"contracts/ProposalContract.sol\":2293:2299  choice */\n      dup5\n        /* \"contracts/ProposalContract.sol\":2293:2304  choice == 2 */\n      0xff\n      and\n      sub\n        /* \"contracts/ProposalContract.sol\":2289:2541  if (choice == 2) {... */\n      tag_82\n      jumpi\n        /* \"contracts/ProposalContract.sol\":2339:2340  1 */\n      0x01\n        /* \"contracts/ProposalContract.sol\":2320:2328  proposal */\n      dup3\n        /* \"contracts/ProposalContract.sol\":2320:2335  proposal.reject */\n      0x03\n      add\n      0x00\n        /* \"contracts/ProposalContract.sol\":2320:2340  proposal.reject += 1 */\n      dup3\n      dup3\n      sload\n      tag_83\n      swap2\n      swap1\n      tag_46\n      jump\t// in\n    tag_83:\n      swap3\n      pop\n      pop\n      dup2\n      swap1\n      sstore\n      pop\n        /* \"contracts/ProposalContract.sol\":2379:2402  calculateCurrentState() */\n      tag_84\n        /* \"contracts/ProposalContract.sol\":2379:2400  calculateCurrentState */\n      tag_80\n        /* \"contracts/ProposalContract.sol\":2379:2402  calculateCurrentState() */\n      jump\t// in\n    tag_84:\n        /* \"contracts/ProposalContract.sol\":2354:2362  proposal */\n      dup3\n        /* \"contracts/ProposalContract.sol\":2354:2376  proposal.current_state */\n      0x06\n      add\n      0x00\n        /* \"contracts/ProposalContract.sol\":2354:2402  proposal.current_state = calculateCurrentState() */\n      0x0100\n      exp\n      dup2\n      sload\n      dup2\n      0xff\n      mul\n      not\n      and\n      swap1\n      dup4\n      iszero\n      iszero\n      mul\n      or\n      swap1\n      sstore\n      pop\n        /* \"contracts/ProposalContract.sol\":2289:2541  if (choice == 2) {... */\n      jump(tag_85)\n    tag_82:\n        /* \"contracts/ProposalContract.sol\":2433:2434  0 */\n      0x00\n        /* \"contracts/ProposalContract.sol\":2423:2429  choice */\n      dup5\n        /* \"contracts/ProposalContract.sol\":2423:2434  choice == 0 */\n      0xff\n      and\n      sub\n        /* \"contracts/ProposalContract.sol\":2419:2541  if (choice == 0) {... */\n      tag_86\n      jumpi\n        /* \"contracts/ProposalContract.sol\":2467:2468  1 */\n      0x01\n        /* \"contracts/ProposalContract.sol\":2450:2458  proposal */\n      dup3\n        /* \"contracts/ProposalContract.sol\":2450:2463  proposal.pass */\n      0x04\n      add\n      0x00\n        /* \"contracts/ProposalContract.sol\":2450:2468  proposal.pass += 1 */\n      dup3\n      dup3\n      sload\n      tag_87\n      swap2\n      swap1\n      tag_46\n      jump\t// in\n    tag_87:\n      swap3\n      pop\n      pop\n      dup2\n      swap1\n      sstore\n      pop\n        /* \"contracts/ProposalContract.sol\":2507:2530  calculateCurrentState() */\n      tag_88\n        /* \"contracts/ProposalContract.sol\":2507:2528  calculateCurrentState */\n      tag_80\n        /* \"contracts/ProposalContract.sol\":2507:2530  calculateCurrentState() */\n      jump\t// in\n    tag_88:\n        /* \"contracts/ProposalContract.sol\":2482:2490  proposal */\n      dup3\n        /* \"contracts/ProposalContract.sol\":2482:2504  proposal.current_state */\n      0x06\n      add\n      0x00\n        /* \"contracts/ProposalContract.sol\":2482:2530  proposal.current_state = calculateCurrentState() */\n      0x0100\n      exp\n      dup2\n      sload\n      dup2\n      0xff\n      mul\n      not\n      and\n      swap1\n      dup4\n      iszero\n      iszero\n      mul\n      or\n      swap1\n      sstore\n      pop\n        /* \"contracts/ProposalContract.sol\":2419:2541  if (choice == 0) {... */\n    tag_86:\n        /* \"contracts/ProposalContract.sol\":2289:2541  if (choice == 2) {... */\n    tag_85:\n        /* \"contracts/ProposalContract.sol\":2158:2541  if (choice == 1) {... */\n    tag_81:\n        /* \"contracts/ProposalContract.sol\":2613:2614  1 */\n      0x01\n        /* \"contracts/ProposalContract.sol\":2599:2609  total_vote */\n      dup2\n        /* \"contracts/ProposalContract.sol\":2570:2578  proposal */\n      dup4\n        /* \"contracts/ProposalContract.sol\":2570:2596  proposal.total_vote_to_end */\n      0x05\n      add\n      sload\n        /* \"contracts/ProposalContract.sol\":2570:2609  proposal.total_vote_to_end - total_vote */\n      tag_89\n      swap2\n      swap1\n      tag_90\n      jump\t// in\n    tag_89:\n        /* \"contracts/ProposalContract.sol\":2570:2614  proposal.total_vote_to_end - total_vote == 1 */\n      eq\n        /* \"contracts/ProposalContract.sol\":2569:2632  (proposal.total_vote_to_end - total_vote == 1) && (choice == 1) */\n      dup1\n      iszero\n      tag_91\n      jumpi\n      pop\n        /* \"contracts/ProposalContract.sol\":2630:2631  1 */\n      0x01\n        /* \"contracts/ProposalContract.sol\":2620:2626  choice */\n      dup5\n        /* \"contracts/ProposalContract.sol\":2620:2631  choice == 1 */\n      0xff\n      and\n      eq\n        /* \"contracts/ProposalContract.sol\":2569:2632  (proposal.total_vote_to_end - total_vote == 1) && (choice == 1) */\n    tag_91:\n        /* \"contracts/ProposalContract.sol\":2568:2662  ((proposal.total_vote_to_end - total_vote == 1) && (choice == 1)) ||... */\n      dup1\n      tag_92\n      jumpi\n      pop\n        /* \"contracts/ProposalContract.sol\":2660:2661  2 */\n      0x02\n        /* \"contracts/ProposalContract.sol\":2650:2656  choice */\n      dup5\n        /* \"contracts/ProposalContract.sol\":2650:2661  choice == 2 */\n      0xff\n      and\n      eq\n        /* \"contracts/ProposalContract.sol\":2568:2662  ((proposal.total_vote_to_end - total_vote == 1) && (choice == 1)) ||... */\n    tag_92:\n        /* \"contracts/ProposalContract.sol\":2568:2691  ((proposal.total_vote_to_end - total_vote == 1) && (choice == 1)) ||... */\n      dup1\n      tag_93\n      jumpi\n      pop\n        /* \"contracts/ProposalContract.sol\":2689:2690  0 */\n      0x00\n        /* \"contracts/ProposalContract.sol\":2679:2685  choice */\n      dup5\n        /* \"contracts/ProposalContract.sol\":2679:2690  choice == 0 */\n      0xff\n      and\n      eq\n        /* \"contracts/ProposalContract.sol\":2568:2691  ((proposal.total_vote_to_end - total_vote == 1) && (choice == 1)) ||... */\n    tag_93:\n        /* \"contracts/ProposalContract.sol\":2551:2792  if (... */\n      iszero\n      tag_94\n      jumpi\n        /* \"contracts/ProposalContract.sol\":2737:2742  false */\n      0x00\n        /* \"contracts/ProposalContract.sol\":2716:2724  proposal */\n      dup3\n        /* \"contracts/ProposalContract.sol\":2716:2734  proposal.is_active */\n      0x06\n      add\n      0x01\n        /* \"contracts/ProposalContract.sol\":2716:2742  proposal.is_active = false */\n      0x0100\n      exp\n      dup2\n      sload\n      dup2\n      0xff\n      mul\n      not\n      and\n      swap1\n      dup4\n      iszero\n      iszero\n      mul\n      or\n      swap1\n      sstore\n      pop\n        /* \"contracts/ProposalContract.sol\":2756:2781  voted_addresses = [owner] */\n      mload(0x40)\n      dup1\n      0x20\n      add\n      0x40\n      mstore\n      dup1\n        /* \"contracts/ProposalContract.sol\":2775:2780  owner */\n      0x00\n      dup1\n      sload\n      swap1\n      0x0100\n      exp\n      swap1\n      div\n      0xffffffffffffffffffffffffffffffffffffffff\n      and\n        /* \"contracts/ProposalContract.sol\":2756:2781  voted_addresses = [owner] */\n      0xffffffffffffffffffffffffffffffffffffffff\n      and\n      0xffffffffffffffffffffffffffffffffffffffff\n      and\n      dup2\n      mstore\n      pop\n        /* \"contracts/ProposalContract.sol\":2756:2771  voted_addresses */\n      0x03\n        /* \"contracts/ProposalContract.sol\":2756:2781  voted_addresses = [owner] */\n      swap1\n      0x01\n      tag_95\n      swap3\n      swap2\n      swap1\n      tag_96\n      jump\t// in\n    tag_95:\n      pop\n        /* \"contracts/ProposalContract.sol\":2551:2792  if (... */\n    tag_94:\n        /* \"contracts/ProposalContract.sol\":1960:2798  {... */\n      pop\n      pop\n        /* \"contracts/ProposalContract.sol\":1197:1198  _ */\n      pop\n        /* \"contracts/ProposalContract.sol\":1895:2798  function vote(uint8 choice) external active newVoter(msg.sender) {... */\n      pop\n      jump\t// out\n        /* \"contracts/ProposalContract.sol\":3192:3345  function getProposal(uint256 number)... */\n    tag_30:\n        /* \"contracts/ProposalContract.sol\":3276:3291  Proposal memory */\n      tag_97\n      tag_51\n      jump\t// in\n    tag_97:\n        /* \"contracts/ProposalContract.sol\":3314:3330  proposal_history */\n      0x02\n        /* \"contracts/ProposalContract.sol\":3314:3338  proposal_history[number] */\n      0x00\n        /* \"contracts/ProposalContract.sol\":3331:3337  number */\n      dup4\n        /* \"contracts/ProposalContract.sol\":3314:3338  proposal_history[number] */\n      dup2\n      mstore\n      0x20\n      add\n      swap1\n      dup2\n      mstore\n      0x20\n      add\n      0x00\n      keccak256\n        /* \"contracts/ProposalContract.sol\":3307:3338  return proposal_history[number] */\n      mload(0x40)\n      dup1\n      0x0100\n      add\n      0x40\n      mstore\n      swap1\n      dup2\n      0x00\n      dup3\n      add\n      dup1\n      sload\n      tag_99\n      swap1\n      tag_54\n      jump\t// in\n    tag_99:\n      dup1\n      0x1f\n      add\n      0x20\n      dup1\n      swap2\n      div\n      mul\n      0x20\n      add\n      mload(0x40)\n      swap1\n      dup2\n      add\n      0x40\n      mstore\n      dup1\n      swap3\n      swap2\n      swap1\n      dup2\n      dup2\n      mstore\n      0x20\n      add\n      dup3\n      dup1\n      sload\n      tag_100\n      swap1\n      tag_54\n      jump\t// in\n    tag_100:\n      dup1\n      iszero\n      tag_101\n      jumpi\n      dup1\n      0x1f\n      lt\n      tag_102\n      jumpi\n      0x0100\n      dup1\n      dup4\n      sload\n      div\n      mul\n      dup4\n      mstore\n      swap2\n      0x20\n      add\n      swap2\n      jump(tag_101)\n    tag_102:\n      dup3\n      add\n      swap2\n      swap1\n      0x00\n      mstore\n      keccak256(0x00, 0x20)\n      swap1\n    tag_103:\n      dup2\n      sload\n      dup2\n      mstore\n      swap1\n      0x01\n      add\n      swap1\n      0x20\n      add\n      dup1\n      dup4\n      gt\n      tag_103\n      jumpi\n      dup3\n      swap1\n      sub\n      0x1f\n      and\n      dup3\n      add\n      swap2\n    tag_101:\n      pop\n      pop\n      pop\n      pop\n      pop\n      dup2\n      mstore\n      0x20\n      add\n      0x01\n      dup3\n      add\n      dup1\n      sload\n      tag_104\n      swap1\n      tag_54\n      jump\t// in\n    tag_104:\n      dup1\n      0x1f\n      add\n      0x20\n      dup1\n      swap2\n      div\n      mul\n      0x20\n      add\n      mload(0x40)\n      swap1\n      dup2\n      add\n      0x40\n      mstore\n      dup1\n      swap3\n      swap2\n      swap1\n      dup2\n      dup2\n      mstore\n      0x20\n      add\n      dup3\n      dup1\n      sload\n      tag_105\n      swap1\n      tag_54\n      jump\t// in\n    tag_105:\n      dup1\n      iszero\n      tag_106\n      jumpi\n      dup1\n      0x1f\n      lt\n      tag_107\n      jumpi\n      0x0100\n      dup1\n      dup4\n      sload\n      div\n      mul\n      dup4\n      mstore\n      swap2\n      0x20\n      add\n      swap2\n      jump(tag_106)\n    tag_107:\n      dup3\n      add\n      swap2\n      swap1\n      0x00\n      mstore\n      keccak256(0x00, 0x20)\n      swap1\n    tag_108:\n      dup2\n      sload\n      dup2\n      mstore\n      swap1\n      0x01\n      add\n      swap1\n      0x20\n      add\n      dup1\n      dup4\n      gt\n      tag_108\n      jumpi\n      dup3\n      swap1\n      sub\n      0x1f\n      and\n      dup3\n      add\n      swap2\n    tag_106:\n      pop\n      pop\n      pop\n      pop\n      pop\n      dup2\n      mstore\n      0x20\n      add\n      0x02\n      dup3\n      add\n      sload\n      dup2\n      mstore\n      0x20\n      add\n      0x03\n      dup3\n      add\n      sload\n      dup2\n      mstore\n      0x20\n      add\n      0x04\n      dup3\n      add\n      sload\n      dup2\n      mstore\n      0x20\n      add\n      0x05\n      dup3\n      add\n      sload\n      dup2\n      mstore\n      0x20\n      add\n      0x06\n      dup3\n      add\n      0x00\n      swap1\n      sload\n      swap1\n      0x0100\n      exp\n      swap1\n      div\n      0xff\n      and\n      iszero\n      iszero\n      iszero\n      iszero\n      dup2\n      mstore\n      0x20\n      add\n      0x06\n      dup3\n      add\n      0x01\n      swap1\n      sload\n      swap1\n      0x0100\n      exp\n      swap1\n      div\n      0xff\n      and\n      iszero\n      iszero\n      iszero\n      iszero\n      dup2\n      mstore\n      pop\n      pop\n      swap1\n      pop\n        /* \"contracts/ProposalContract.sol\":3192:3345  function getProposal(uint256 number)... */\n      swap2\n      swap1\n      pop\n      jump\t// out\n        /* \"contracts/ProposalContract.sol\":2804:3061  function isVoted(address _address) public view returns (bool) {... */\n    tag_34:\n        /* \"contracts/ProposalContract.sol\":2860:2864  bool */\n      0x00\n        /* \"contracts/ProposalContract.sol\":2881:2890  uint256 i */\n      dup1\n        /* \"contracts/ProposalContract.sol\":2893:2894  0 */\n      0x00\n        /* \"contracts/ProposalContract.sol\":2881:2894  uint256 i = 0 */\n      swap1\n      pop\n        /* \"contracts/ProposalContract.sol\":2876:3033  for (uint256 i = 0; i < voted_addresses.length; i++) {... */\n    tag_110:\n        /* \"contracts/ProposalContract.sol\":2900:2915  voted_addresses */\n      0x03\n        /* \"contracts/ProposalContract.sol\":2900:2922  voted_addresses.length */\n      dup1\n      sload\n      swap1\n      pop\n        /* \"contracts/ProposalContract.sol\":2896:2897  i */\n      dup2\n        /* \"contracts/ProposalContract.sol\":2896:2922  i < voted_addresses.length */\n      lt\n        /* \"contracts/ProposalContract.sol\":2876:3033  for (uint256 i = 0; i < voted_addresses.length; i++) {... */\n      iszero\n      tag_111\n      jumpi\n        /* \"contracts/ProposalContract.sol\":2969:2977  _address */\n      dup3\n        /* \"contracts/ProposalContract.sol\":2947:2977  voted_addresses[i] == _address */\n      0xffffffffffffffffffffffffffffffffffffffff\n      and\n        /* \"contracts/ProposalContract.sol\":2947:2962  voted_addresses */\n      0x03\n        /* \"contracts/ProposalContract.sol\":2963:2964  i */\n      dup3\n        /* \"contracts/ProposalContract.sol\":2947:2965  voted_addresses[i] */\n      dup2\n      sload\n      dup2\n      lt\n      tag_113\n      jumpi\n      tag_114\n      tag_115\n      jump\t// in\n    tag_114:\n    tag_113:\n      swap1\n      0x00\n      mstore\n      keccak256(0x00, 0x20)\n      add\n      0x00\n      swap1\n      sload\n      swap1\n      0x0100\n      exp\n      swap1\n      div\n      0xffffffffffffffffffffffffffffffffffffffff\n      and\n        /* \"contracts/ProposalContract.sol\":2947:2977  voted_addresses[i] == _address */\n      0xffffffffffffffffffffffffffffffffffffffff\n      and\n      sub\n        /* \"contracts/ProposalContract.sol\":2943:3023  if (voted_addresses[i] == _address) {... */\n      tag_117\n      jumpi\n        /* \"contracts/ProposalContract.sol\":3004:3008  true */\n      0x01\n        /* \"contracts/ProposalContract.sol\":2997:3008  return true */\n      swap2\n      pop\n      pop\n      jump(tag_109)\n        /* \"contracts/ProposalContract.sol\":2943:3023  if (voted_addresses[i] == _address) {... */\n    tag_117:\n        /* \"contracts/ProposalContract.sol\":2924:2927  i++ */\n      dup1\n      dup1\n      0x01\n      add\n      swap2\n      pop\n      pop\n        /* \"contracts/ProposalContract.sol\":2876:3033  for (uint256 i = 0; i < voted_addresses.length; i++) {... */\n      jump(tag_110)\n    tag_111:\n      pop\n        /* \"contracts/ProposalContract.sol\":3049:3054  false */\n      0x00\n        /* \"contracts/ProposalContract.sol\":3042:3054  return false */\n      swap1\n      pop\n        /* \"contracts/ProposalContract.sol\":2804:3061  function isVoted(address _address) public view returns (bool) {... */\n    tag_109:\n      swap2\n      swap1\n      pop\n      jump\t// out\n        /* \"contracts/ProposalContract.sol\":3351:3466  function terminateProposal() external onlyOwner active {... */\n    tag_38:\n        /* \"contracts/ProposalContract.sol\":525:530  owner */\n      0x00\n      dup1\n      sload\n      swap1\n      0x0100\n      exp\n      swap1\n      div\n      0xffffffffffffffffffffffffffffffffffffffff\n      and\n        /* \"contracts/ProposalContract.sol\":511:530  msg.sender == owner */\n      0xffffffffffffffffffffffffffffffffffffffff\n      and\n        /* \"contracts/ProposalContract.sol\":511:521  msg.sender */\n      caller\n        /* \"contracts/ProposalContract.sol\":511:530  msg.sender == owner */\n      0xffffffffffffffffffffffffffffffffffffffff\n      and\n      eq\n        /* \"contracts/ProposalContract.sol\":503:531  require(msg.sender == owner) */\n      tag_119\n      jumpi\n      0x00\n      dup1\n      revert\n    tag_119:\n        /* \"contracts/ProposalContract.sol\":1131:1135  true */\n      0x01\n        /* \"contracts/ProposalContract.sol\":1092:1135  proposal_history[counter].is_active == true */\n      iszero\n      iszero\n        /* \"contracts/ProposalContract.sol\":1092:1108  proposal_history */\n      0x02\n        /* \"contracts/ProposalContract.sol\":1092:1117  proposal_history[counter] */\n      0x00\n        /* \"contracts/ProposalContract.sol\":1109:1116  counter */\n      sload(0x01)\n        /* \"contracts/ProposalContract.sol\":1092:1117  proposal_history[counter] */\n      dup2\n      mstore\n      0x20\n      add\n      swap1\n      dup2\n      mstore\n      0x20\n      add\n      0x00\n      keccak256\n        /* \"contracts/ProposalContract.sol\":1092:1127  proposal_history[counter].is_active */\n      0x06\n      add\n      0x01\n      swap1\n      sload\n      swap1\n      0x0100\n      exp\n      swap1\n      div\n      0xff\n      and\n        /* \"contracts/ProposalContract.sol\":1092:1135  proposal_history[counter].is_active == true */\n      iszero\n      iszero\n      eq\n        /* \"contracts/ProposalContract.sol\":1071:1187  require(... */\n      tag_121\n      jumpi\n      mload(0x40)\n      0x08c379a000000000000000000000000000000000000000000000000000000000\n      dup2\n      mstore\n      0x04\n      add\n      tag_122\n      swap1\n      tag_67\n      jump\t// in\n    tag_122:\n      mload(0x40)\n      dup1\n      swap2\n      sub\n      swap1\n      revert\n    tag_121:\n        /* \"contracts/ProposalContract.sol\":3454:3459  false */\n      0x00\n        /* \"contracts/ProposalContract.sol\":3416:3432  proposal_history */\n      0x02\n        /* \"contracts/ProposalContract.sol\":3416:3441  proposal_history[counter] */\n      0x00\n        /* \"contracts/ProposalContract.sol\":3433:3440  counter */\n      sload(0x01)\n        /* \"contracts/ProposalContract.sol\":3416:3441  proposal_history[counter] */\n      dup2\n      mstore\n      0x20\n      add\n      swap1\n      dup2\n      mstore\n      0x20\n      add\n      0x00\n      keccak256\n        /* \"contracts/ProposalContract.sol\":3416:3451  proposal_history[counter].is_active */\n      0x06\n      add\n      0x01\n        /* \"contracts/ProposalContract.sol\":3416:3459  proposal_history[counter].is_active = false */\n      0x0100\n      exp\n      dup2\n      sload\n      dup2\n      0xff\n      mul\n      not\n      and\n      swap1\n      dup4\n      iszero\n      iszero\n      mul\n      or\n      swap1\n      sstore\n      pop\n        /* \"contracts/ProposalContract.sol\":3351:3466  function terminateProposal() external onlyOwner active {... */\n      jump\t// out\n        /* \"contracts/ProposalContract.sol\":1438:1889  function calculateCurrentState() private view returns (bool) {... */\n    tag_80:\n        /* \"contracts/ProposalContract.sol\":1493:1497  bool */\n      0x00\n        /* \"contracts/ProposalContract.sol\":1509:1534  Proposal storage proposal */\n      dup1\n        /* \"contracts/ProposalContract.sol\":1537:1553  proposal_history */\n      0x02\n        /* \"contracts/ProposalContract.sol\":1537:1562  proposal_history[counter] */\n      0x00\n        /* \"contracts/ProposalContract.sol\":1554:1561  counter */\n      sload(0x01)\n        /* \"contracts/ProposalContract.sol\":1537:1562  proposal_history[counter] */\n      dup2\n      mstore\n      0x20\n      add\n      swap1\n      dup2\n      mstore\n      0x20\n      add\n      0x00\n      keccak256\n        /* \"contracts/ProposalContract.sol\":1509:1562  Proposal storage proposal = proposal_history[counter] */\n      swap1\n      pop\n        /* \"contracts/ProposalContract.sol\":1573:1588  uint256 approve */\n      0x00\n        /* \"contracts/ProposalContract.sol\":1591:1599  proposal */\n      dup2\n        /* \"contracts/ProposalContract.sol\":1591:1607  proposal.approve */\n      0x02\n      add\n      sload\n        /* \"contracts/ProposalContract.sol\":1573:1607  uint256 approve = proposal.approve */\n      swap1\n      pop\n        /* \"contracts/ProposalContract.sol\":1617:1631  uint256 reject */\n      0x00\n        /* \"contracts/ProposalContract.sol\":1634:1642  proposal */\n      dup3\n        /* \"contracts/ProposalContract.sol\":1634:1649  proposal.reject */\n      0x03\n      add\n      sload\n        /* \"contracts/ProposalContract.sol\":1617:1649  uint256 reject = proposal.reject */\n      swap1\n      pop\n        /* \"contracts/ProposalContract.sol\":1659:1671  uint256 pass */\n      0x00\n        /* \"contracts/ProposalContract.sol\":1674:1682  proposal */\n      dup4\n        /* \"contracts/ProposalContract.sol\":1674:1687  proposal.pass */\n      0x04\n      add\n      sload\n        /* \"contracts/ProposalContract.sol\":1659:1687  uint256 pass = proposal.pass */\n      swap1\n      pop\n        /* \"contracts/ProposalContract.sol\":1723:1724  0 */\n      0x00\n        /* \"contracts/ProposalContract.sol\":1718:1719  2 */\n      0x02\n        /* \"contracts/ProposalContract.sol\":1702:1710  proposal */\n      dup6\n        /* \"contracts/ProposalContract.sol\":1702:1715  proposal.pass */\n      0x04\n      add\n      sload\n        /* \"contracts/ProposalContract.sol\":1702:1719  proposal.pass % 2 */\n      tag_125\n      swap2\n      swap1\n      tag_126\n      jump\t// in\n    tag_125:\n        /* \"contracts/ProposalContract.sol\":1702:1724  proposal.pass % 2 != 0 */\n      eq\n        /* \"contracts/ProposalContract.sol\":1698:1760  if (proposal.pass % 2 != 0) {... */\n      tag_127\n      jumpi\n        /* \"contracts/ProposalContract.sol\":1748:1749  1 */\n      0x01\n        /* \"contracts/ProposalContract.sol\":1740:1749  pass += 1 */\n      dup2\n      tag_128\n      swap2\n      swap1\n      tag_46\n      jump\t// in\n    tag_128:\n      swap1\n      pop\n        /* \"contracts/ProposalContract.sol\":1698:1760  if (proposal.pass % 2 != 0) {... */\n    tag_127:\n        /* \"contracts/ProposalContract.sol\":1784:1785  2 */\n      0x02\n        /* \"contracts/ProposalContract.sol\":1777:1781  pass */\n      dup2\n        /* \"contracts/ProposalContract.sol\":1777:1785  pass / 2 */\n      tag_129\n      swap2\n      swap1\n      tag_130\n      jump\t// in\n    tag_129:\n        /* \"contracts/ProposalContract.sol\":1770:1785  pass = pass / 2 */\n      swap1\n      pop\n        /* \"contracts/ProposalContract.sol\":1819:1823  pass */\n      dup1\n        /* \"contracts/ProposalContract.sol\":1810:1816  reject */\n      dup3\n        /* \"contracts/ProposalContract.sol\":1810:1823  reject + pass */\n      tag_131\n      swap2\n      swap1\n      tag_46\n      jump\t// in\n    tag_131:\n        /* \"contracts/ProposalContract.sol\":1800:1807  approve */\n      dup4\n        /* \"contracts/ProposalContract.sol\":1800:1823  approve > reject + pass */\n      gt\n        /* \"contracts/ProposalContract.sol\":1796:1861  if (approve > reject + pass) {... */\n      iszero\n      tag_132\n      jumpi\n        /* \"contracts/ProposalContract.sol\":1846:1850  true */\n      0x01\n        /* \"contracts/ProposalContract.sol\":1839:1850  return true */\n      swap5\n      pop\n      pop\n      pop\n      pop\n      pop\n      jump(tag_124)\n        /* \"contracts/ProposalContract.sol\":1796:1861  if (approve > reject + pass) {... */\n    tag_132:\n        /* \"contracts/ProposalContract.sol\":1877:1882  false */\n      0x00\n        /* \"contracts/ProposalContract.sol\":1870:1882  return false */\n      swap5\n      pop\n      pop\n      pop\n      pop\n      pop\n        /* \"contracts/ProposalContract.sol\":1438:1889  function calculateCurrentState() private view returns (bool) {... */\n    tag_124:\n      swap1\n      jump\t// out\n    tag_51:\n      mload(0x40)\n      dup1\n      0x0100\n      add\n      0x40\n      mstore\n      dup1\n      0x60\n      dup2\n      mstore\n      0x20\n      add\n      0x60\n      dup2\n      mstore\n      0x20\n      add\n      0x00\n      dup2\n      mstore\n      0x20\n      add\n      0x00\n      dup2\n      mstore\n      0x20\n      add\n      0x00\n      dup2\n      mstore\n      0x20\n      add\n      0x00\n      dup2\n      mstore\n      0x20\n      add\n      iszero(iszero(0x00))\n      dup2\n      mstore\n      0x20\n      add\n      iszero(iszero(0x00))\n      dup2\n      mstore\n      pop\n      swap1\n      jump\t// out\n    tag_96:\n      dup3\n      dup1\n      sload\n      dup3\n      dup3\n      sstore\n      swap1\n      0x00\n      mstore\n      keccak256(0x00, 0x20)\n      swap1\n      dup2\n      add\n      swap3\n      dup3\n      iszero\n      tag_133\n      jumpi\n      swap2\n      0x20\n      mul\n      dup3\n      add\n    tag_134:\n      dup3\n      dup2\n      gt\n      iszero\n      tag_135\n      jumpi\n      dup3\n      mload\n      dup3\n      exp(0x0100, 0x00)\n      dup2\n      sload\n      dup2\n      0xffffffffffffffffffffffffffffffffffffffff\n      mul\n      not\n      and\n      swap1\n      dup4\n      0xffffffffffffffffffffffffffffffffffffffff\n      and\n      mul\n      or\n      swap1\n      sstore\n      pop\n      swap2\n      0x20\n      add\n      swap2\n      swap1\n      0x01\n      add\n      swap1\n      jump(tag_134)\n    tag_135:\n    tag_133:\n      pop\n      swap1\n      pop\n      tag_136\n      swap2\n      swap1\n      tag_137\n      jump\t// in\n    tag_136:\n      pop\n      swap1\n      jump\t// out\n    tag_137:\n    tag_138:\n      dup1\n      dup3\n      gt\n      iszero\n      tag_139\n      jumpi\n      0x00\n      dup2\n      0x00\n      swap1\n      sstore\n      pop\n      0x01\n      add\n      jump(tag_138)\n    tag_139:\n      pop\n      swap1\n      jump\t// out\n        /* \"#utility.yul\":88:205   */\n    tag_141:\n        /* \"#utility.yul\":197:198   */\n      0x00\n        /* \"#utility.yul\":194:195   */\n      dup1\n        /* \"#utility.yul\":187:199   */\n      revert\n        /* \"#utility.yul\":211:328   */\n    tag_142:\n        /* \"#utility.yul\":320:321   */\n      0x00\n        /* \"#utility.yul\":317:318   */\n      dup1\n        /* \"#utility.yul\":310:322   */\n      revert\n        /* \"#utility.yul\":334:460   */\n    tag_143:\n        /* \"#utility.yul\":371:378   */\n      0x00\n        /* \"#utility.yul\":411:453   */\n      0xffffffffffffffffffffffffffffffffffffffff\n        /* \"#utility.yul\":404:409   */\n      dup3\n        /* \"#utility.yul\":400:454   */\n      and\n        /* \"#utility.yul\":389:454   */\n      swap1\n      pop\n        /* \"#utility.yul\":334:460   */\n      swap2\n      swap1\n      pop\n      jump\t// out\n        /* \"#utility.yul\":466:562   */\n    tag_144:\n        /* \"#utility.yul\":503:510   */\n      0x00\n        /* \"#utility.yul\":532:556   */\n      tag_197\n        /* \"#utility.yul\":550:555   */\n      dup3\n        /* \"#utility.yul\":532:556   */\n      tag_143\n      jump\t// in\n    tag_197:\n        /* \"#utility.yul\":521:556   */\n      swap1\n      pop\n        /* \"#utility.yul\":466:562   */\n      swap2\n      swap1\n      pop\n      jump\t// out\n        /* \"#utility.yul\":568:690   */\n    tag_145:\n        /* \"#utility.yul\":641:665   */\n      tag_199\n        /* \"#utility.yul\":659:664   */\n      dup2\n        /* \"#utility.yul\":641:665   */\n      tag_144\n      jump\t// in\n    tag_199:\n        /* \"#utility.yul\":634:639   */\n      dup2\n        /* \"#utility.yul\":631:666   */\n      eq\n        /* \"#utility.yul\":621:684   */\n      tag_200\n      jumpi\n        /* \"#utility.yul\":680:681   */\n      0x00\n        /* \"#utility.yul\":677:678   */\n      dup1\n        /* \"#utility.yul\":670:682   */\n      revert\n        /* \"#utility.yul\":621:684   */\n    tag_200:\n        /* \"#utility.yul\":568:690   */\n      pop\n      jump\t// out\n        /* \"#utility.yul\":696:835   */\n    tag_146:\n        /* \"#utility.yul\":742:747   */\n      0x00\n        /* \"#utility.yul\":780:786   */\n      dup2\n        /* \"#utility.yul\":767:787   */\n      calldataload\n        /* \"#utility.yul\":758:787   */\n      swap1\n      pop\n        /* \"#utility.yul\":796:829   */\n      tag_202\n        /* \"#utility.yul\":823:828   */\n      dup2\n        /* \"#utility.yul\":796:829   */\n      tag_145\n      jump\t// in\n    tag_202:\n        /* \"#utility.yul\":696:835   */\n      swap3\n      swap2\n      pop\n      pop\n      jump\t// out\n        /* \"#utility.yul\":841:1170   */\n    tag_13:\n        /* \"#utility.yul\":900:906   */\n      0x00\n        /* \"#utility.yul\":949:951   */\n      0x20\n        /* \"#utility.yul\":937:946   */\n      dup3\n        /* \"#utility.yul\":928:935   */\n      dup5\n        /* \"#utility.yul\":924:947   */\n      sub\n        /* \"#utility.yul\":920:952   */\n      slt\n        /* \"#utility.yul\":917:1036   */\n      iszero\n      tag_204\n      jumpi\n        /* \"#utility.yul\":955:1034   */\n      tag_205\n      tag_141\n      jump\t// in\n    tag_205:\n        /* \"#utility.yul\":917:1036   */\n    tag_204:\n        /* \"#utility.yul\":1075:1076   */\n      0x00\n        /* \"#utility.yul\":1100:1153   */\n      tag_206\n        /* \"#utility.yul\":1145:1152   */\n      dup5\n        /* \"#utility.yul\":1136:1142   */\n      dup3\n        /* \"#utility.yul\":1125:1134   */\n      dup6\n        /* \"#utility.yul\":1121:1143   */\n      add\n        /* \"#utility.yul\":1100:1153   */\n      tag_146\n      jump\t// in\n    tag_206:\n        /* \"#utility.yul\":1090:1153   */\n      swap2\n      pop\n        /* \"#utility.yul\":1046:1163   */\n      pop\n        /* \"#utility.yul\":841:1170   */\n      swap3\n      swap2\n      pop\n      pop\n      jump\t// out\n        /* \"#utility.yul\":1176:1293   */\n    tag_147:\n        /* \"#utility.yul\":1285:1286   */\n      0x00\n        /* \"#utility.yul\":1282:1283   */\n      dup1\n        /* \"#utility.yul\":1275:1287   */\n      revert\n        /* \"#utility.yul\":1299:1416   */\n    tag_148:\n        /* \"#utility.yul\":1408:1409   */\n      0x00\n        /* \"#utility.yul\":1405:1406   */\n      dup1\n        /* \"#utility.yul\":1398:1410   */\n      revert\n        /* \"#utility.yul\":1422:1539   */\n    tag_149:\n        /* \"#utility.yul\":1531:1532   */\n      0x00\n        /* \"#utility.yul\":1528:1529   */\n      dup1\n        /* \"#utility.yul\":1521:1533   */\n      revert\n        /* \"#utility.yul\":1559:2112   */\n    tag_150:\n        /* \"#utility.yul\":1617:1625   */\n      0x00\n        /* \"#utility.yul\":1627:1633   */\n      dup1\n        /* \"#utility.yul\":1677:1680   */\n      dup4\n        /* \"#utility.yul\":1670:1674   */\n      0x1f\n        /* \"#utility.yul\":1662:1668   */\n      dup5\n        /* \"#utility.yul\":1658:1675   */\n      add\n        /* \"#utility.yul\":1654:1681   */\n      slt\n        /* \"#utility.yul\":1644:1766   */\n      tag_211\n      jumpi\n        /* \"#utility.yul\":1685:1764   */\n      tag_212\n      tag_147\n      jump\t// in\n    tag_212:\n        /* \"#utility.yul\":1644:1766   */\n    tag_211:\n        /* \"#utility.yul\":1798:1804   */\n      dup3\n        /* \"#utility.yul\":1785:1805   */\n      calldataload\n        /* \"#utility.yul\":1775:1805   */\n      swap1\n      pop\n        /* \"#utility.yul\":1828:1846   */\n      0xffffffffffffffff\n        /* \"#utility.yul\":1820:1826   */\n      dup2\n        /* \"#utility.yul\":1817:1847   */\n      gt\n        /* \"#utility.yul\":1814:1931   */\n      iszero\n      tag_213\n      jumpi\n        /* \"#utility.yul\":1850:1929   */\n      tag_214\n      tag_148\n      jump\t// in\n    tag_214:\n        /* \"#utility.yul\":1814:1931   */\n    tag_213:\n        /* \"#utility.yul\":1964:1968   */\n      0x20\n        /* \"#utility.yul\":1956:1962   */\n      dup4\n        /* \"#utility.yul\":1952:1969   */\n      add\n        /* \"#utility.yul\":1940:1969   */\n      swap2\n      pop\n        /* \"#utility.yul\":2018:2021   */\n      dup4\n        /* \"#utility.yul\":2010:2014   */\n      0x01\n        /* \"#utility.yul\":2002:2008   */\n      dup3\n        /* \"#utility.yul\":1998:2015   */\n      mul\n        /* \"#utility.yul\":1988:1996   */\n      dup4\n        /* \"#utility.yul\":1984:2016   */\n      add\n        /* \"#utility.yul\":1981:2022   */\n      gt\n        /* \"#utility.yul\":1978:2106   */\n      iszero\n      tag_215\n      jumpi\n        /* \"#utility.yul\":2025:2104   */\n      tag_216\n      tag_149\n      jump\t// in\n    tag_216:\n        /* \"#utility.yul\":1978:2106   */\n    tag_215:\n        /* \"#utility.yul\":1559:2112   */\n      swap3\n      pop\n      swap3\n      swap1\n      pop\n      jump\t// out\n        /* \"#utility.yul\":2118:2195   */\n    tag_151:\n        /* \"#utility.yul\":2155:2162   */\n      0x00\n        /* \"#utility.yul\":2184:2189   */\n      dup2\n        /* \"#utility.yul\":2173:2189   */\n      swap1\n      pop\n        /* \"#utility.yul\":2118:2195   */\n      swap2\n      swap1\n      pop\n      jump\t// out\n        /* \"#utility.yul\":2201:2323   */\n    tag_152:\n        /* \"#utility.yul\":2274:2298   */\n      tag_219\n        /* \"#utility.yul\":2292:2297   */\n      dup2\n        /* \"#utility.yul\":2274:2298   */\n      tag_151\n      jump\t// in\n    tag_219:\n        /* \"#utility.yul\":2267:2272   */\n      dup2\n        /* \"#utility.yul\":2264:2299   */\n      eq\n        /* \"#utility.yul\":2254:2317   */\n      tag_220\n      jumpi\n        /* \"#utility.yul\":2313:2314   */\n      0x00\n        /* \"#utility.yul\":2310:2311   */\n      dup1\n        /* \"#utility.yul\":2303:2315   */\n      revert\n        /* \"#utility.yul\":2254:2317   */\n    tag_220:\n        /* \"#utility.yul\":2201:2323   */\n      pop\n      jump\t// out\n        /* \"#utility.yul\":2329:2468   */\n    tag_153:\n        /* \"#utility.yul\":2375:2380   */\n      0x00\n        /* \"#utility.yul\":2413:2419   */\n      dup2\n        /* \"#utility.yul\":2400:2420   */\n      calldataload\n        /* \"#utility.yul\":2391:2420   */\n      swap1\n      pop\n        /* \"#utility.yul\":2429:2462   */\n      tag_222\n        /* \"#utility.yul\":2456:2461   */\n      dup2\n        /* \"#utility.yul\":2429:2462   */\n      tag_152\n      jump\t// in\n    tag_222:\n        /* \"#utility.yul\":2329:2468   */\n      swap3\n      swap2\n      pop\n      pop\n      jump\t// out\n        /* \"#utility.yul\":2474:3493   */\n    tag_17:\n        /* \"#utility.yul\":2575:2581   */\n      0x00\n        /* \"#utility.yul\":2583:2589   */\n      dup1\n        /* \"#utility.yul\":2591:2597   */\n      0x00\n        /* \"#utility.yul\":2599:2605   */\n      dup1\n        /* \"#utility.yul\":2607:2613   */\n      0x00\n        /* \"#utility.yul\":2656:2658   */\n      0x60\n        /* \"#utility.yul\":2644:2653   */\n      dup7\n        /* \"#utility.yul\":2635:2642   */\n      dup9\n        /* \"#utility.yul\":2631:2654   */\n      sub\n        /* \"#utility.yul\":2627:2659   */\n      slt\n        /* \"#utility.yul\":2624:2743   */\n      iszero\n      tag_224\n      jumpi\n        /* \"#utility.yul\":2662:2741   */\n      tag_225\n      tag_141\n      jump\t// in\n    tag_225:\n        /* \"#utility.yul\":2624:2743   */\n    tag_224:\n        /* \"#utility.yul\":2810:2811   */\n      0x00\n        /* \"#utility.yul\":2799:2808   */\n      dup7\n        /* \"#utility.yul\":2795:2812   */\n      add\n        /* \"#utility.yul\":2782:2813   */\n      calldataload\n        /* \"#utility.yul\":2840:2858   */\n      0xffffffffffffffff\n        /* \"#utility.yul\":2832:2838   */\n      dup2\n        /* \"#utility.yul\":2829:2859   */\n      gt\n        /* \"#utility.yul\":2826:2943   */\n      iszero\n      tag_226\n      jumpi\n        /* \"#utility.yul\":2862:2941   */\n      tag_227\n      tag_142\n      jump\t// in\n    tag_227:\n        /* \"#utility.yul\":2826:2943   */\n    tag_226:\n        /* \"#utility.yul\":2975:3040   */\n      tag_228\n        /* \"#utility.yul\":3032:3039   */\n      dup9\n        /* \"#utility.yul\":3023:3029   */\n      dup3\n        /* \"#utility.yul\":3012:3021   */\n      dup10\n        /* \"#utility.yul\":3008:3030   */\n      add\n        /* \"#utility.yul\":2975:3040   */\n      tag_150\n      jump\t// in\n    tag_228:\n        /* \"#utility.yul\":2957:3040   */\n      swap6\n      pop\n      swap6\n      pop\n        /* \"#utility.yul\":2753:3050   */\n      pop\n        /* \"#utility.yul\":3117:3119   */\n      0x20\n        /* \"#utility.yul\":3106:3115   */\n      dup7\n        /* \"#utility.yul\":3102:3120   */\n      add\n        /* \"#utility.yul\":3089:3121   */\n      calldataload\n        /* \"#utility.yul\":3148:3166   */\n      0xffffffffffffffff\n        /* \"#utility.yul\":3140:3146   */\n      dup2\n        /* \"#utility.yul\":3137:3167   */\n      gt\n        /* \"#utility.yul\":3134:3251   */\n      iszero\n      tag_229\n      jumpi\n        /* \"#utility.yul\":3170:3249   */\n      tag_230\n      tag_142\n      jump\t// in\n    tag_230:\n        /* \"#utility.yul\":3134:3251   */\n    tag_229:\n        /* \"#utility.yul\":3283:3348   */\n      tag_231\n        /* \"#utility.yul\":3340:3347   */\n      dup9\n        /* \"#utility.yul\":3331:3337   */\n      dup3\n        /* \"#utility.yul\":3320:3329   */\n      dup10\n        /* \"#utility.yul\":3316:3338   */\n      add\n        /* \"#utility.yul\":3283:3348   */\n      tag_150\n      jump\t// in\n    tag_231:\n        /* \"#utility.yul\":3265:3348   */\n      swap4\n      pop\n      swap4\n      pop\n        /* \"#utility.yul\":3060:3358   */\n      pop\n        /* \"#utility.yul\":3397:3399   */\n      0x40\n        /* \"#utility.yul\":3423:3476   */\n      tag_232\n        /* \"#utility.yul\":3468:3475   */\n      dup9\n        /* \"#utility.yul\":3459:3465   */\n      dup3\n        /* \"#utility.yul\":3448:3457   */\n      dup10\n        /* \"#utility.yul\":3444:3466   */\n      add\n        /* \"#utility.yul\":3423:3476   */\n      tag_153\n      jump\t// in\n    tag_232:\n        /* \"#utility.yul\":3413:3476   */\n      swap2\n      pop\n        /* \"#utility.yul\":3368:3486   */\n      pop\n        /* \"#utility.yul\":2474:3493   */\n      swap3\n      swap6\n      pop\n      swap3\n      swap6\n      swap1\n      swap4\n      pop\n      jump\t// out\n        /* \"#utility.yul\":3499:3598   */\n    tag_154:\n        /* \"#utility.yul\":3551:3557   */\n      0x00\n        /* \"#utility.yul\":3585:3590   */\n      dup2\n        /* \"#utility.yul\":3579:3591   */\n      mload\n        /* \"#utility.yul\":3569:3591   */\n      swap1\n      pop\n        /* \"#utility.yul\":3499:3598   */\n      swap2\n      swap1\n      pop\n      jump\t// out\n        /* \"#utility.yul\":3604:3763   */\n    tag_155:\n        /* \"#utility.yul\":3678:3689   */\n      0x00\n        /* \"#utility.yul\":3712:3718   */\n      dup3\n        /* \"#utility.yul\":3707:3710   */\n      dup3\n        /* \"#utility.yul\":3700:3719   */\n      mstore\n        /* \"#utility.yul\":3752:3756   */\n      0x20\n        /* \"#utility.yul\":3747:3750   */\n      dup3\n        /* \"#utility.yul\":3743:3757   */\n      add\n        /* \"#utility.yul\":3728:3757   */\n      swap1\n      pop\n        /* \"#utility.yul\":3604:3763   */\n      swap3\n      swap2\n      pop\n      pop\n      jump\t// out\n        /* \"#utility.yul\":3769:4015   */\n    tag_156:\n        /* \"#utility.yul\":3850:3851   */\n      0x00\n        /* \"#utility.yul\":3860:3973   */\n    tag_236:\n        /* \"#utility.yul\":3874:3880   */\n      dup4\n        /* \"#utility.yul\":3871:3872   */\n      dup2\n        /* \"#utility.yul\":3868:3881   */\n      lt\n        /* \"#utility.yul\":3860:3973   */\n      iszero\n      tag_238\n      jumpi\n        /* \"#utility.yul\":3959:3960   */\n      dup1\n        /* \"#utility.yul\":3954:3957   */\n      dup3\n        /* \"#utility.yul\":3950:3961   */\n      add\n        /* \"#utility.yul\":3944:3962   */\n      mload\n        /* \"#utility.yul\":3940:3941   */\n      dup2\n        /* \"#utility.yul\":3935:3938   */\n      dup5\n        /* \"#utility.yul\":3931:3942   */\n      add\n        /* \"#utility.yul\":3924:3963   */\n      mstore\n        /* \"#utility.yul\":3896:3898   */\n      0x20\n        /* \"#utility.yul\":3893:3894   */\n      dup2\n        /* \"#utility.yul\":3889:3899   */\n      add\n        /* \"#utility.yul\":3884:3899   */\n      swap1\n      pop\n        /* \"#utility.yul\":3860:3973   */\n      jump(tag_236)\n    tag_238:\n        /* \"#utility.yul\":4007:4008   */\n      0x00\n        /* \"#utility.yul\":3998:4004   */\n      dup5\n        /* \"#utility.yul\":3993:3996   */\n      dup5\n        /* \"#utility.yul\":3989:4005   */\n      add\n        /* \"#utility.yul\":3982:4009   */\n      mstore\n        /* \"#utility.yul\":3831:4015   */\n      pop\n        /* \"#utility.yul\":3769:4015   */\n      pop\n      pop\n      pop\n      jump\t// out\n        /* \"#utility.yul\":4021:4123   */\n    tag_157:\n        /* \"#utility.yul\":4062:4068   */\n      0x00\n        /* \"#utility.yul\":4113:4115   */\n      0x1f\n        /* \"#utility.yul\":4109:4116   */\n      not\n        /* \"#utility.yul\":4104:4106   */\n      0x1f\n        /* \"#utility.yul\":4097:4102   */\n      dup4\n        /* \"#utility.yul\":4093:4107   */\n      add\n        /* \"#utility.yul\":4089:4117   */\n      and\n        /* \"#utility.yul\":4079:4117   */\n      swap1\n      pop\n        /* \"#utility.yul\":4021:4123   */\n      swap2\n      swap1\n      pop\n      jump\t// out\n        /* \"#utility.yul\":4129:4486   */\n    tag_158:\n        /* \"#utility.yul\":4207:4210   */\n      0x00\n        /* \"#utility.yul\":4235:4274   */\n      tag_241\n        /* \"#utility.yul\":4268:4273   */\n      dup3\n        /* \"#utility.yul\":4235:4274   */\n      tag_154\n      jump\t// in\n    tag_241:\n        /* \"#utility.yul\":4290:4351   */\n      tag_242\n        /* \"#utility.yul\":4344:4350   */\n      dup2\n        /* \"#utility.yul\":4339:4342   */\n      dup6\n        /* \"#utility.yul\":4290:4351   */\n      tag_155\n      jump\t// in\n    tag_242:\n        /* \"#utility.yul\":4283:4351   */\n      swap4\n      pop\n        /* \"#utility.yul\":4360:4425   */\n      tag_243\n        /* \"#utility.yul\":4418:4424   */\n      dup2\n        /* \"#utility.yul\":4413:4416   */\n      dup6\n        /* \"#utility.yul\":4406:4410   */\n      0x20\n        /* \"#utility.yul\":4399:4404   */\n      dup7\n        /* \"#utility.yul\":4395:4411   */\n      add\n        /* \"#utility.yul\":4360:4425   */\n      tag_156\n      jump\t// in\n    tag_243:\n        /* \"#utility.yul\":4450:4479   */\n      tag_244\n        /* \"#utility.yul\":4472:4478   */\n      dup2\n        /* \"#utility.yul\":4450:4479   */\n      tag_157\n      jump\t// in\n    tag_244:\n        /* \"#utility.yul\":4445:4448   */\n      dup5\n        /* \"#utility.yul\":4441:4480   */\n      add\n        /* \"#utility.yul\":4434:4480   */\n      swap2\n      pop\n        /* \"#utility.yul\":4211:4486   */\n      pop\n        /* \"#utility.yul\":4129:4486   */\n      swap3\n      swap2\n      pop\n      pop\n      jump\t// out\n        /* \"#utility.yul\":4492:4600   */\n    tag_159:\n        /* \"#utility.yul\":4569:4593   */\n      tag_246\n        /* \"#utility.yul\":4587:4592   */\n      dup2\n        /* \"#utility.yul\":4569:4593   */\n      tag_151\n      jump\t// in\n    tag_246:\n        /* \"#utility.yul\":4564:4567   */\n      dup3\n        /* \"#utility.yul\":4557:4594   */\n      mstore\n        /* \"#utility.yul\":4492:4600   */\n      pop\n      pop\n      jump\t// out\n        /* \"#utility.yul\":4606:4696   */\n    tag_160:\n        /* \"#utility.yul\":4640:4647   */\n      0x00\n        /* \"#utility.yul\":4683:4688   */\n      dup2\n        /* \"#utility.yul\":4676:4689   */\n      iszero\n        /* \"#utility.yul\":4669:4690   */\n      iszero\n        /* \"#utility.yul\":4658:4690   */\n      swap1\n      pop\n        /* \"#utility.yul\":4606:4696   */\n      swap2\n      swap1\n      pop\n      jump\t// out\n        /* \"#utility.yul\":4702:4801   */\n    tag_161:\n        /* \"#utility.yul\":4773:4794   */\n      tag_249\n        /* \"#utility.yul\":4788:4793   */\n      dup2\n        /* \"#utility.yul\":4773:4794   */\n      tag_160\n      jump\t// in\n    tag_249:\n        /* \"#utility.yul\":4768:4771   */\n      dup3\n        /* \"#utility.yul\":4761:4795   */\n      mstore\n        /* \"#utility.yul\":4702:4801   */\n      pop\n      pop\n      jump\t// out\n        /* \"#utility.yul\":4883:6632   */\n    tag_162:\n        /* \"#utility.yul\":5000:5003   */\n      0x00\n        /* \"#utility.yul\":5036:5042   */\n      0x0100\n        /* \"#utility.yul\":5031:5034   */\n      dup4\n        /* \"#utility.yul\":5027:5043   */\n      add\n        /* \"#utility.yul\":5132:5136   */\n      0x00\n        /* \"#utility.yul\":5125:5130   */\n      dup4\n        /* \"#utility.yul\":5121:5137   */\n      add\n        /* \"#utility.yul\":5115:5138   */\n      mload\n        /* \"#utility.yul\":5185:5188   */\n      dup5\n        /* \"#utility.yul\":5179:5183   */\n      dup3\n        /* \"#utility.yul\":5175:5189   */\n      sub\n        /* \"#utility.yul\":5168:5172   */\n      0x00\n        /* \"#utility.yul\":5163:5166   */\n      dup7\n        /* \"#utility.yul\":5159:5173   */\n      add\n        /* \"#utility.yul\":5152:5190   */\n      mstore\n        /* \"#utility.yul\":5211:5284   */\n      tag_251\n        /* \"#utility.yul\":5279:5283   */\n      dup3\n        /* \"#utility.yul\":5265:5277   */\n      dup3\n        /* \"#utility.yul\":5211:5284   */\n      tag_158\n      jump\t// in\n    tag_251:\n        /* \"#utility.yul\":5203:5284   */\n      swap2\n      pop\n        /* \"#utility.yul\":5053:5295   */\n      pop\n        /* \"#utility.yul\":5378:5382   */\n      0x20\n        /* \"#utility.yul\":5371:5376   */\n      dup4\n        /* \"#utility.yul\":5367:5383   */\n      add\n        /* \"#utility.yul\":5361:5384   */\n      mload\n        /* \"#utility.yul\":5431:5434   */\n      dup5\n        /* \"#utility.yul\":5425:5429   */\n      dup3\n        /* \"#utility.yul\":5421:5435   */\n      sub\n        /* \"#utility.yul\":5414:5418   */\n      0x20\n        /* \"#utility.yul\":5409:5412   */\n      dup7\n        /* \"#utility.yul\":5405:5419   */\n      add\n        /* \"#utility.yul\":5398:5436   */\n      mstore\n        /* \"#utility.yul\":5457:5530   */\n      tag_252\n        /* \"#utility.yul\":5525:5529   */\n      dup3\n        /* \"#utility.yul\":5511:5523   */\n      dup3\n        /* \"#utility.yul\":5457:5530   */\n      tag_158\n      jump\t// in\n    tag_252:\n        /* \"#utility.yul\":5449:5530   */\n      swap2\n      pop\n        /* \"#utility.yul\":5305:5541   */\n      pop\n        /* \"#utility.yul\":5626:5630   */\n      0x40\n        /* \"#utility.yul\":5619:5624   */\n      dup4\n        /* \"#utility.yul\":5615:5631   */\n      add\n        /* \"#utility.yul\":5609:5632   */\n      mload\n        /* \"#utility.yul\":5645:5708   */\n      tag_253\n        /* \"#utility.yul\":5702:5706   */\n      0x40\n        /* \"#utility.yul\":5697:5700   */\n      dup7\n        /* \"#utility.yul\":5693:5707   */\n      add\n        /* \"#utility.yul\":5679:5691   */\n      dup3\n        /* \"#utility.yul\":5645:5708   */\n      tag_159\n      jump\t// in\n    tag_253:\n        /* \"#utility.yul\":5551:5718   */\n      pop\n        /* \"#utility.yul\":5802:5806   */\n      0x60\n        /* \"#utility.yul\":5795:5800   */\n      dup4\n        /* \"#utility.yul\":5791:5807   */\n      add\n        /* \"#utility.yul\":5785:5808   */\n      mload\n        /* \"#utility.yul\":5821:5884   */\n      tag_254\n        /* \"#utility.yul\":5878:5882   */\n      0x60\n        /* \"#utility.yul\":5873:5876   */\n      dup7\n        /* \"#utility.yul\":5869:5883   */\n      add\n        /* \"#utility.yul\":5855:5867   */\n      dup3\n        /* \"#utility.yul\":5821:5884   */\n      tag_159\n      jump\t// in\n    tag_254:\n        /* \"#utility.yul\":5728:5894   */\n      pop\n        /* \"#utility.yul\":5976:5980   */\n      0x80\n        /* \"#utility.yul\":5969:5974   */\n      dup4\n        /* \"#utility.yul\":5965:5981   */\n      add\n        /* \"#utility.yul\":5959:5982   */\n      mload\n        /* \"#utility.yul\":5995:6058   */\n      tag_255\n        /* \"#utility.yul\":6052:6056   */\n      0x80\n        /* \"#utility.yul\":6047:6050   */\n      dup7\n        /* \"#utility.yul\":6043:6057   */\n      add\n        /* \"#utility.yul\":6029:6041   */\n      dup3\n        /* \"#utility.yul\":5995:6058   */\n      tag_159\n      jump\t// in\n    tag_255:\n        /* \"#utility.yul\":5904:6068   */\n      pop\n        /* \"#utility.yul\":6163:6167   */\n      0xa0\n        /* \"#utility.yul\":6156:6161   */\n      dup4\n        /* \"#utility.yul\":6152:6168   */\n      add\n        /* \"#utility.yul\":6146:6169   */\n      mload\n        /* \"#utility.yul\":6182:6245   */\n      tag_256\n        /* \"#utility.yul\":6239:6243   */\n      0xa0\n        /* \"#utility.yul\":6234:6237   */\n      dup7\n        /* \"#utility.yul\":6230:6244   */\n      add\n        /* \"#utility.yul\":6216:6228   */\n      dup3\n        /* \"#utility.yul\":6182:6245   */\n      tag_159\n      jump\t// in\n    tag_256:\n        /* \"#utility.yul\":6078:6255   */\n      pop\n        /* \"#utility.yul\":6346:6350   */\n      0xc0\n        /* \"#utility.yul\":6339:6344   */\n      dup4\n        /* \"#utility.yul\":6335:6351   */\n      add\n        /* \"#utility.yul\":6329:6352   */\n      mload\n        /* \"#utility.yul\":6365:6422   */\n      tag_257\n        /* \"#utility.yul\":6416:6420   */\n      0xc0\n        /* \"#utility.yul\":6411:6414   */\n      dup7\n        /* \"#utility.yul\":6407:6421   */\n      add\n        /* \"#utility.yul\":6393:6405   */\n      dup3\n        /* \"#utility.yul\":6365:6422   */\n      tag_161\n      jump\t// in\n    tag_257:\n        /* \"#utility.yul\":6265:6432   */\n      pop\n        /* \"#utility.yul\":6519:6523   */\n      0xe0\n        /* \"#utility.yul\":6512:6517   */\n      dup4\n        /* \"#utility.yul\":6508:6524   */\n      add\n        /* \"#utility.yul\":6502:6525   */\n      mload\n        /* \"#utility.yul\":6538:6595   */\n      tag_258\n        /* \"#utility.yul\":6589:6593   */\n      0xe0\n        /* \"#utility.yul\":6584:6587   */\n      dup7\n        /* \"#utility.yul\":6580:6594   */\n      add\n        /* \"#utility.yul\":6566:6578   */\n      dup3\n        /* \"#utility.yul\":6538:6595   */\n      tag_161\n      jump\t// in\n    tag_258:\n        /* \"#utility.yul\":6442:6605   */\n      pop\n        /* \"#utility.yul\":6622:6626   */\n      dup1\n        /* \"#utility.yul\":6615:6626   */\n      swap2\n      pop\n        /* \"#utility.yul\":5005:6632   */\n      pop\n        /* \"#utility.yul\":4883:6632   */\n      swap3\n      swap2\n      pop\n      pop\n      jump\t// out\n        /* \"#utility.yul\":6638:7007   */\n    tag_22:\n        /* \"#utility.yul\":6779:6783   */\n      0x00\n        /* \"#utility.yul\":6817:6819   */\n      0x20\n        /* \"#utility.yul\":6806:6815   */\n      dup3\n        /* \"#utility.yul\":6802:6820   */\n      add\n        /* \"#utility.yul\":6794:6820   */\n      swap1\n      pop\n        /* \"#utility.yul\":6866:6875   */\n      dup2\n        /* \"#utility.yul\":6860:6864   */\n      dup2\n        /* \"#utility.yul\":6856:6876   */\n      sub\n        /* \"#utility.yul\":6852:6853   */\n      0x00\n        /* \"#utility.yul\":6841:6850   */\n      dup4\n        /* \"#utility.yul\":6837:6854   */\n      add\n        /* \"#utility.yul\":6830:6877   */\n      mstore\n        /* \"#utility.yul\":6894:7000   */\n      tag_260\n        /* \"#utility.yul\":6995:6999   */\n      dup2\n        /* \"#utility.yul\":6986:6992   */\n      dup5\n        /* \"#utility.yul\":6894:7000   */\n      tag_162\n      jump\t// in\n    tag_260:\n        /* \"#utility.yul\":6886:7000   */\n      swap1\n      pop\n        /* \"#utility.yul\":6638:7007   */\n      swap3\n      swap2\n      pop\n      pop\n      jump\t// out\n        /* \"#utility.yul\":7013:7099   */\n    tag_163:\n        /* \"#utility.yul\":7048:7055   */\n      0x00\n        /* \"#utility.yul\":7088:7092   */\n      0xff\n        /* \"#utility.yul\":7081:7086   */\n      dup3\n        /* \"#utility.yul\":7077:7093   */\n      and\n        /* \"#utility.yul\":7066:7093   */\n      swap1\n      pop\n        /* \"#utility.yul\":7013:7099   */\n      swap2\n      swap1\n      pop\n      jump\t// out\n        /* \"#utility.yul\":7105:7223   */\n    tag_164:\n        /* \"#utility.yul\":7176:7198   */\n      tag_263\n        /* \"#utility.yul\":7192:7197   */\n      dup2\n        /* \"#utility.yul\":7176:7198   */\n      tag_163\n      jump\t// in\n    tag_263:\n        /* \"#utility.yul\":7169:7174   */\n      dup2\n        /* \"#utility.yul\":7166:7199   */\n      eq\n        /* \"#utility.yul\":7156:7217   */\n      tag_264\n      jumpi\n        /* \"#utility.yul\":7213:7214   */\n      0x00\n        /* \"#utility.yul\":7210:7211   */\n      dup1\n        /* \"#utility.yul\":7203:7215   */\n      revert\n        /* \"#utility.yul\":7156:7217   */\n    tag_264:\n        /* \"#utility.yul\":7105:7223   */\n      pop\n      jump\t// out\n        /* \"#utility.yul\":7229:7364   */\n    tag_165:\n        /* \"#utility.yul\":7273:7278   */\n      0x00\n        /* \"#utility.yul\":7311:7317   */\n      dup2\n        /* \"#utility.yul\":7298:7318   */\n      calldataload\n        /* \"#utility.yul\":7289:7318   */\n      swap1\n      pop\n        /* \"#utility.yul\":7327:7358   */\n      tag_266\n        /* \"#utility.yul\":7352:7357   */\n      dup2\n        /* \"#utility.yul\":7327:7358   */\n      tag_164\n      jump\t// in\n    tag_266:\n        /* \"#utility.yul\":7229:7364   */\n      swap3\n      swap2\n      pop\n      pop\n      jump\t// out\n        /* \"#utility.yul\":7370:7695   */\n    tag_25:\n        /* \"#utility.yul\":7427:7433   */\n      0x00\n        /* \"#utility.yul\":7476:7478   */\n      0x20\n        /* \"#utility.yul\":7464:7473   */\n      dup3\n        /* \"#utility.yul\":7455:7462   */\n      dup5\n        /* \"#utility.yul\":7451:7474   */\n      sub\n        /* \"#utility.yul\":7447:7479   */\n      slt\n        /* \"#utility.yul\":7444:7563   */\n      iszero\n      tag_268\n      jumpi\n        /* \"#utility.yul\":7482:7561   */\n      tag_269\n      tag_141\n      jump\t// in\n    tag_269:\n        /* \"#utility.yul\":7444:7563   */\n    tag_268:\n        /* \"#utility.yul\":7602:7603   */\n      0x00\n        /* \"#utility.yul\":7627:7678   */\n      tag_270\n        /* \"#utility.yul\":7670:7677   */\n      dup5\n        /* \"#utility.yul\":7661:7667   */\n      dup3\n        /* \"#utility.yul\":7650:7659   */\n      dup6\n        /* \"#utility.yul\":7646:7668   */\n      add\n        /* \"#utility.yul\":7627:7678   */\n      tag_165\n      jump\t// in\n    tag_270:\n        /* \"#utility.yul\":7617:7678   */\n      swap2\n      pop\n        /* \"#utility.yul\":7573:7688   */\n      pop\n        /* \"#utility.yul\":7370:7695   */\n      swap3\n      swap2\n      pop\n      pop\n      jump\t// out\n        /* \"#utility.yul\":7701:8030   */\n    tag_29:\n        /* \"#utility.yul\":7760:7766   */\n      0x00\n        /* \"#utility.yul\":7809:7811   */\n      0x20\n        /* \"#utility.yul\":7797:7806   */\n      dup3\n        /* \"#utility.yul\":7788:7795   */\n      dup5\n        /* \"#utility.yul\":7784:7807   */\n      sub\n        /* \"#utility.yul\":7780:7812   */\n      slt\n        /* \"#utility.yul\":7777:7896   */\n      iszero\n      tag_272\n      jumpi\n        /* \"#utility.yul\":7815:7894   */\n      tag_273\n      tag_141\n      jump\t// in\n    tag_273:\n        /* \"#utility.yul\":7777:7896   */\n    tag_272:\n        /* \"#utility.yul\":7935:7936   */\n      0x00\n        /* \"#utility.yul\":7960:8013   */\n      tag_274\n        /* \"#utility.yul\":8005:8012   */\n      dup5\n        /* \"#utility.yul\":7996:8002   */\n      dup3\n        /* \"#utility.yul\":7985:7994   */\n      dup6\n        /* \"#utility.yul\":7981:8003   */\n      add\n        /* \"#utility.yul\":7960:8013   */\n      tag_153\n      jump\t// in\n    tag_274:\n        /* \"#utility.yul\":7950:8013   */\n      swap2\n      pop\n        /* \"#utility.yul\":7906:8023   */\n      pop\n        /* \"#utility.yul\":7701:8030   */\n      swap3\n      swap2\n      pop\n      pop\n      jump\t// out\n        /* \"#utility.yul\":8036:8145   */\n    tag_166:\n        /* \"#utility.yul\":8117:8138   */\n      tag_276\n        /* \"#utility.yul\":8132:8137   */\n      dup2\n        /* \"#utility.yul\":8117:8138   */\n      tag_160\n      jump\t// in\n    tag_276:\n        /* \"#utility.yul\":8112:8115   */\n      dup3\n        /* \"#utility.yul\":8105:8139   */\n      mstore\n        /* \"#utility.yul\":8036:8145   */\n      pop\n      pop\n      jump\t// out\n        /* \"#utility.yul\":8151:8361   */\n    tag_36:\n        /* \"#utility.yul\":8238:8242   */\n      0x00\n        /* \"#utility.yul\":8276:8278   */\n      0x20\n        /* \"#utility.yul\":8265:8274   */\n      dup3\n        /* \"#utility.yul\":8261:8279   */\n      add\n        /* \"#utility.yul\":8253:8279   */\n      swap1\n      pop\n        /* \"#utility.yul\":8289:8354   */\n      tag_278\n        /* \"#utility.yul\":8351:8352   */\n      0x00\n        /* \"#utility.yul\":8340:8349   */\n      dup4\n        /* \"#utility.yul\":8336:8353   */\n      add\n        /* \"#utility.yul\":8327:8333   */\n      dup5\n        /* \"#utility.yul\":8289:8354   */\n      tag_166\n      jump\t// in\n    tag_278:\n        /* \"#utility.yul\":8151:8361   */\n      swap3\n      swap2\n      pop\n      pop\n      jump\t// out\n        /* \"#utility.yul\":8367:8547   */\n    tag_167:\n        /* \"#utility.yul\":8415:8492   */\n      0x4e487b7100000000000000000000000000000000000000000000000000000000\n        /* \"#utility.yul\":8412:8413   */\n      0x00\n        /* \"#utility.yul\":8405:8493   */\n      mstore\n        /* \"#utility.yul\":8512:8516   */\n      0x11\n        /* \"#utility.yul\":8509:8510   */\n      0x04\n        /* \"#utility.yul\":8502:8517   */\n      mstore\n        /* \"#utility.yul\":8536:8540   */\n      0x24\n        /* \"#utility.yul\":8533:8534   */\n      0x00\n        /* \"#utility.yul\":8526:8541   */\n      revert\n        /* \"#utility.yul\":8553:8744   */\n    tag_46:\n        /* \"#utility.yul\":8593:8596   */\n      0x00\n        /* \"#utility.yul\":8612:8632   */\n      tag_281\n        /* \"#utility.yul\":8630:8631   */\n      dup3\n        /* \"#utility.yul\":8612:8632   */\n      tag_151\n      jump\t// in\n    tag_281:\n        /* \"#utility.yul\":8607:8632   */\n      swap2\n      pop\n        /* \"#utility.yul\":8646:8666   */\n      tag_282\n        /* \"#utility.yul\":8664:8665   */\n      dup4\n        /* \"#utility.yul\":8646:8666   */\n      tag_151\n      jump\t// in\n    tag_282:\n        /* \"#utility.yul\":8641:8666   */\n      swap3\n      pop\n        /* \"#utility.yul\":8689:8690   */\n      dup3\n        /* \"#utility.yul\":8686:8687   */\n      dup3\n        /* \"#utility.yul\":8682:8691   */\n      add\n        /* \"#utility.yul\":8675:8691   */\n      swap1\n      pop\n        /* \"#utility.yul\":8710:8713   */\n      dup1\n        /* \"#utility.yul\":8707:8708   */\n      dup3\n        /* \"#utility.yul\":8704:8714   */\n      gt\n        /* \"#utility.yul\":8701:8737   */\n      iszero\n      tag_283\n      jumpi\n        /* \"#utility.yul\":8717:8735   */\n      tag_284\n      tag_167\n      jump\t// in\n    tag_284:\n        /* \"#utility.yul\":8701:8737   */\n    tag_283:\n        /* \"#utility.yul\":8553:8744   */\n      swap3\n      swap2\n      pop\n      pop\n      jump\t// out\n        /* \"#utility.yul\":8750:8930   */\n    tag_168:\n        /* \"#utility.yul\":8798:8875   */\n      0x4e487b7100000000000000000000000000000000000000000000000000000000\n        /* \"#utility.yul\":8795:8796   */\n      0x00\n        /* \"#utility.yul\":8788:8876   */\n      mstore\n        /* \"#utility.yul\":8895:8899   */\n      0x41\n        /* \"#utility.yul\":8892:8893   */\n      0x04\n        /* \"#utility.yul\":8885:8900   */\n      mstore\n        /* \"#utility.yul\":8919:8923   */\n      0x24\n        /* \"#utility.yul\":8916:8917   */\n      0x00\n        /* \"#utility.yul\":8909:8924   */\n      revert\n        /* \"#utility.yul\":8936:9116   */\n    tag_169:\n        /* \"#utility.yul\":8984:9061   */\n      0x4e487b7100000000000000000000000000000000000000000000000000000000\n        /* \"#utility.yul\":8981:8982   */\n      0x00\n        /* \"#utility.yul\":8974:9062   */\n      mstore\n        /* \"#utility.yul\":9081:9085   */\n      0x22\n        /* \"#utility.yul\":9078:9079   */\n      0x04\n        /* \"#utility.yul\":9071:9086   */\n      mstore\n        /* \"#utility.yul\":9105:9109   */\n      0x24\n        /* \"#utility.yul\":9102:9103   */\n      0x00\n        /* \"#utility.yul\":9095:9110   */\n      revert\n        /* \"#utility.yul\":9122:9442   */\n    tag_54:\n        /* \"#utility.yul\":9166:9172   */\n      0x00\n        /* \"#utility.yul\":9203:9204   */\n      0x02\n        /* \"#utility.yul\":9197:9201   */\n      dup3\n        /* \"#utility.yul\":9193:9205   */\n      div\n        /* \"#utility.yul\":9183:9205   */\n      swap1\n      pop\n        /* \"#utility.yul\":9250:9251   */\n      0x01\n        /* \"#utility.yul\":9244:9248   */\n      dup3\n        /* \"#utility.yul\":9240:9252   */\n      and\n        /* \"#utility.yul\":9271:9289   */\n      dup1\n        /* \"#utility.yul\":9261:9342   */\n      tag_288\n      jumpi\n        /* \"#utility.yul\":9327:9331   */\n      0x7f\n        /* \"#utility.yul\":9319:9325   */\n      dup3\n        /* \"#utility.yul\":9315:9332   */\n      and\n        /* \"#utility.yul\":9305:9332   */\n      swap2\n      pop\n        /* \"#utility.yul\":9261:9342   */\n    tag_288:\n        /* \"#utility.yul\":9389:9391   */\n      0x20\n        /* \"#utility.yul\":9381:9387   */\n      dup3\n        /* \"#utility.yul\":9378:9392   */\n      lt\n        /* \"#utility.yul\":9358:9376   */\n      dup2\n        /* \"#utility.yul\":9355:9393   */\n      sub\n        /* \"#utility.yul\":9352:9436   */\n      tag_289\n      jumpi\n        /* \"#utility.yul\":9408:9426   */\n      tag_290\n      tag_169\n      jump\t// in\n    tag_290:\n        /* \"#utility.yul\":9352:9436   */\n    tag_289:\n        /* \"#utility.yul\":9173:9442   */\n      pop\n        /* \"#utility.yul\":9122:9442   */\n      swap2\n      swap1\n      pop\n      jump\t// out\n        /* \"#utility.yul\":9448:9589   */\n    tag_170:\n        /* \"#utility.yul\":9497:9501   */\n      0x00\n        /* \"#utility.yul\":9520:9523   */\n      dup2\n        /* \"#utility.yul\":9512:9523   */\n      swap1\n      pop\n        /* \"#utility.yul\":9543:9546   */\n      dup2\n        /* \"#utility.yul\":9540:9541   */\n      0x00\n        /* \"#utility.yul\":9533:9547   */\n      mstore\n        /* \"#utility.yul\":9577:9581   */\n      0x20\n        /* \"#utility.yul\":9574:9575   */\n      0x00\n        /* \"#utility.yul\":9564:9582   */\n      keccak256\n        /* \"#utility.yul\":9556:9582   */\n      swap1\n      pop\n        /* \"#utility.yul\":9448:9589   */\n      swap2\n      swap1\n      pop\n      jump\t// out\n        /* \"#utility.yul\":9595:9688   */\n    tag_171:\n        /* \"#utility.yul\":9632:9638   */\n      0x00\n        /* \"#utility.yul\":9679:9681   */\n      0x20\n        /* \"#utility.yul\":9674:9676   */\n      0x1f\n        /* \"#utility.yul\":9667:9672   */\n      dup4\n        /* \"#utility.yul\":9663:9677   */\n      add\n        /* \"#utility.yul\":9659:9682   */\n      div\n        /* \"#utility.yul\":9649:9682   */\n      swap1\n      pop\n        /* \"#utility.yul\":9595:9688   */\n      swap2\n      swap1\n      pop\n      jump\t// out\n        /* \"#utility.yul\":9694:9801   */\n    tag_172:\n        /* \"#utility.yul\":9738:9746   */\n      0x00\n        /* \"#utility.yul\":9788:9793   */\n      dup3\n        /* \"#utility.yul\":9782:9786   */\n      dup3\n        /* \"#utility.yul\":9778:9794   */\n      shl\n        /* \"#utility.yul\":9757:9794   */\n      swap1\n      pop\n        /* \"#utility.yul\":9694:9801   */\n      swap3\n      swap2\n      pop\n      pop\n      jump\t// out\n        /* \"#utility.yul\":9807:10200   */\n    tag_173:\n        /* \"#utility.yul\":9876:9882   */\n      0x00\n        /* \"#utility.yul\":9926:9927   */\n      0x08\n        /* \"#utility.yul\":9914:9924   */\n      dup4\n        /* \"#utility.yul\":9910:9928   */\n      mul\n        /* \"#utility.yul\":9949:10046   */\n      tag_295\n        /* \"#utility.yul\":9979:10045   */\n      0xffffffffffffffffffffffffffffffffffffffffffffffffffffffffffffffff\n        /* \"#utility.yul\":9968:9977   */\n      dup3\n        /* \"#utility.yul\":9949:10046   */\n      tag_172\n      jump\t// in\n    tag_295:\n        /* \"#utility.yul\":10067:10106   */\n      tag_296\n        /* \"#utility.yul\":10097:10105   */\n      dup7\n        /* \"#utility.yul\":10086:10095   */\n      dup4\n        /* \"#utility.yul\":10067:10106   */\n      tag_172\n      jump\t// in\n    tag_296:\n        /* \"#utility.yul\":10055:10106   */\n      swap6\n      pop\n        /* \"#utility.yul\":10139:10143   */\n      dup1\n        /* \"#utility.yul\":10135:10144   */\n      not\n        /* \"#utility.yul\":10128:10133   */\n      dup5\n        /* \"#utility.yul\":10124:10145   */\n      and\n        /* \"#utility.yul\":10115:10145   */\n      swap4\n      pop\n        /* \"#utility.yul\":10188:10192   */\n      dup1\n        /* \"#utility.yul\":10178:10186   */\n      dup7\n        /* \"#utility.yul\":10174:10193   */\n      and\n        /* \"#utility.yul\":10167:10172   */\n      dup5\n        /* \"#utility.yul\":10164:10194   */\n      or\n        /* \"#utility.yul\":10154:10194   */\n      swap3\n      pop\n        /* \"#utility.yul\":9883:10200   */\n      pop\n      pop\n        /* \"#utility.yul\":9807:10200   */\n      swap4\n      swap3\n      pop\n      pop\n      pop\n      jump\t// out\n        /* \"#utility.yul\":10206:10266   */\n    tag_174:\n        /* \"#utility.yul\":10234:10237   */\n      0x00\n        /* \"#utility.yul\":10255:10260   */\n      dup2\n        /* \"#utility.yul\":10248:10260   */\n      swap1\n      pop\n        /* \"#utility.yul\":10206:10266   */\n      swap2\n      swap1\n      pop\n      jump\t// out\n        /* \"#utility.yul\":10272:10414   */\n    tag_175:\n        /* \"#utility.yul\":10322:10331   */\n      0x00\n        /* \"#utility.yul\":10355:10408   */\n      tag_299\n        /* \"#utility.yul\":10373:10407   */\n      tag_300\n        /* \"#utility.yul\":10382:10406   */\n      tag_301\n        /* \"#utility.yul\":10400:10405   */\n      dup5\n        /* \"#utility.yul\":10382:10406   */\n      tag_151\n      jump\t// in\n    tag_301:\n        /* \"#utility.yul\":10373:10407   */\n      tag_174\n      jump\t// in\n    tag_300:\n        /* \"#utility.yul\":10355:10408   */\n      tag_151\n      jump\t// in\n    tag_299:\n        /* \"#utility.yul\":10342:10408   */\n      swap1\n      pop\n        /* \"#utility.yul\":10272:10414   */\n      swap2\n      swap1\n      pop\n      jump\t// out\n        /* \"#utility.yul\":10420:10495   */\n    tag_176:\n        /* \"#utility.yul\":10463:10466   */\n      0x00\n        /* \"#utility.yul\":10484:10489   */\n      dup2\n        /* \"#utility.yul\":10477:10489   */\n      swap1\n      pop\n        /* \"#utility.yul\":10420:10495   */\n      swap2\n      swap1\n      pop\n      jump\t// out\n        /* \"#utility.yul\":10501:10770   */\n    tag_177:\n        /* \"#utility.yul\":10611:10650   */\n      tag_304\n        /* \"#utility.yul\":10642:10649   */\n      dup4\n        /* \"#utility.yul\":10611:10650   */\n      tag_175\n      jump\t// in\n    tag_304:\n        /* \"#utility.yul\":10672:10763   */\n      tag_305\n        /* \"#utility.yul\":10721:10762   */\n      tag_306\n        /* \"#utility.yul\":10745:10761   */\n      dup3\n        /* \"#utility.yul\":10721:10762   */\n      tag_176\n      jump\t// in\n    tag_306:\n        /* \"#utility.yul\":10713:10719   */\n      dup5\n        /* \"#utility.yul\":10706:10710   */\n      dup5\n        /* \"#utility.yul\":10700:10711   */\n      sload\n        /* \"#utility.yul\":10672:10763   */\n      tag_173\n      jump\t// in\n    tag_305:\n        /* \"#utility.yul\":10666:10670   */\n      dup3\n        /* \"#utility.yul\":10659:10764   */\n      sstore\n        /* \"#utility.yul\":10577:10770   */\n      pop\n        /* \"#utility.yul\":10501:10770   */\n      pop\n      pop\n      pop\n      jump\t// out\n        /* \"#utility.yul\":10776:10849   */\n    tag_178:\n        /* \"#utility.yul\":10821:10824   */\n      0x00\n        /* \"#utility.yul\":10776:10849   */\n      swap1\n      jump\t// out\n        /* \"#utility.yul\":10855:11044   */\n    tag_179:\n        /* \"#utility.yul\":10932:10964   */\n      tag_309\n      tag_178\n      jump\t// in\n    tag_309:\n        /* \"#utility.yul\":10973:11038   */\n      tag_310\n        /* \"#utility.yul\":11031:11037   */\n      dup2\n        /* \"#utility.yul\":11023:11029   */\n      dup5\n        /* \"#utility.yul\":11017:11021   */\n      dup5\n        /* \"#utility.yul\":10973:11038   */\n      tag_177\n      jump\t// in\n    tag_310:\n        /* \"#utility.yul\":10908:11044   */\n      pop\n        /* \"#utility.yul\":10855:11044   */\n      pop\n      pop\n      jump\t// out\n        /* \"#utility.yul\":11050:11236   */\n    tag_180:\n        /* \"#utility.yul\":11110:11230   */\n    tag_312:\n        /* \"#utility.yul\":11127:11130   */\n      dup2\n        /* \"#utility.yul\":11120:11125   */\n      dup2\n        /* \"#utility.yul\":11117:11131   */\n      lt\n        /* \"#utility.yul\":11110:11230   */\n      iszero\n      tag_314\n      jumpi\n        /* \"#utility.yul\":11181:11220   */\n      tag_315\n        /* \"#utility.yul\":11218:11219   */\n      0x00\n        /* \"#utility.yul\":11211:11216   */\n      dup3\n        /* \"#utility.yul\":11181:11220   */\n      tag_179\n      jump\t// in\n    tag_315:\n        /* \"#utility.yul\":11154:11155   */\n      0x01\n        /* \"#utility.yul\":11147:11152   */\n      dup2\n        /* \"#utility.yul\":11143:11156   */\n      add\n        /* \"#utility.yul\":11134:11156   */\n      swap1\n      pop\n        /* \"#utility.yul\":11110:11230   */\n      jump(tag_312)\n    tag_314:\n        /* \"#utility.yul\":11050:11236   */\n      pop\n      pop\n      jump\t// out\n        /* \"#utility.yul\":11242:11785   */\n    tag_181:\n        /* \"#utility.yul\":11343:11345   */\n      0x1f\n        /* \"#utility.yul\":11338:11341   */\n      dup3\n        /* \"#utility.yul\":11335:11346   */\n      gt\n        /* \"#utility.yul\":11332:11778   */\n      iszero\n      tag_317\n      jumpi\n        /* \"#utility.yul\":11377:11415   */\n      tag_318\n        /* \"#utility.yul\":11409:11414   */\n      dup2\n        /* \"#utility.yul\":11377:11415   */\n      tag_170\n      jump\t// in\n    tag_318:\n        /* \"#utility.yul\":11461:11490   */\n      tag_319\n        /* \"#utility.yul\":11479:11489   */\n      dup5\n        /* \"#utility.yul\":11461:11490   */\n      tag_171\n      jump\t// in\n    tag_319:\n        /* \"#utility.yul\":11451:11459   */\n      dup2\n        /* \"#utility.yul\":11447:11491   */\n      add\n        /* \"#utility.yul\":11644:11646   */\n      0x20\n        /* \"#utility.yul\":11632:11642   */\n      dup6\n        /* \"#utility.yul\":11629:11647   */\n      lt\n        /* \"#utility.yul\":11626:11675   */\n      iszero\n      tag_320\n      jumpi\n        /* \"#utility.yul\":11665:11673   */\n      dup2\n        /* \"#utility.yul\":11650:11673   */\n      swap1\n      pop\n        /* \"#utility.yul\":11626:11675   */\n    tag_320:\n        /* \"#utility.yul\":11688:11768   */\n      tag_321\n        /* \"#utility.yul\":11744:11766   */\n      tag_322\n        /* \"#utility.yul\":11762:11765   */\n      dup6\n        /* \"#utility.yul\":11744:11766   */\n      tag_171\n      jump\t// in\n    tag_322:\n        /* \"#utility.yul\":11734:11742   */\n      dup4\n        /* \"#utility.yul\":11730:11767   */\n      add\n        /* \"#utility.yul\":11717:11728   */\n      dup3\n        /* \"#utility.yul\":11688:11768   */\n      tag_180\n      jump\t// in\n    tag_321:\n        /* \"#utility.yul\":11347:11778   */\n      pop\n      pop\n        /* \"#utility.yul\":11332:11778   */\n    tag_317:\n        /* \"#utility.yul\":11242:11785   */\n      pop\n      pop\n      pop\n      jump\t// out\n        /* \"#utility.yul\":11791:11908   */\n    tag_182:\n        /* \"#utility.yul\":11845:11853   */\n      0x00\n        /* \"#utility.yul\":11895:11900   */\n      dup3\n        /* \"#utility.yul\":11889:11893   */\n      dup3\n        /* \"#utility.yul\":11885:11901   */\n      shr\n        /* \"#utility.yul\":11864:11901   */\n      swap1\n      pop\n        /* \"#utility.yul\":11791:11908   */\n      swap3\n      swap2\n      pop\n      pop\n      jump\t// out\n        /* \"#utility.yul\":11914:12083   */\n    tag_183:\n        /* \"#utility.yul\":11958:11964   */\n      0x00\n        /* \"#utility.yul\":11991:12042   */\n      tag_325\n        /* \"#utility.yul\":12039:12040   */\n      0x00\n        /* \"#utility.yul\":12035:12041   */\n      not\n        /* \"#utility.yul\":12027:12032   */\n      dup5\n        /* \"#utility.yul\":12024:12025   */\n      0x08\n        /* \"#utility.yul\":12020:12033   */\n      mul\n        /* \"#utility.yul\":11991:12042   */\n      tag_182\n      jump\t// in\n    tag_325:\n        /* \"#utility.yul\":11987:12043   */\n      not\n        /* \"#utility.yul\":12072:12076   */\n      dup1\n        /* \"#utility.yul\":12066:12070   */\n      dup4\n        /* \"#utility.yul\":12062:12077   */\n      and\n        /* \"#utility.yul\":12052:12077   */\n      swap2\n      pop\n        /* \"#utility.yul\":11965:12083   */\n      pop\n        /* \"#utility.yul\":11914:12083   */\n      swap3\n      swap2\n      pop\n      pop\n      jump\t// out\n        /* \"#utility.yul\":12088:12383   */\n    tag_184:\n        /* \"#utility.yul\":12164:12168   */\n      0x00\n        /* \"#utility.yul\":12310:12339   */\n      tag_327\n        /* \"#utility.yul\":12335:12338   */\n      dup4\n        /* \"#utility.yul\":12329:12333   */\n      dup4\n        /* \"#utility.yul\":12310:12339   */\n      tag_183\n      jump\t// in\n    tag_327:\n        /* \"#utility.yul\":12302:12339   */\n      swap2\n      pop\n        /* \"#utility.yul\":12372:12375   */\n      dup3\n        /* \"#utility.yul\":12369:12370   */\n      0x02\n        /* \"#utility.yul\":12365:12376   */\n      mul\n        /* \"#utility.yul\":12359:12363   */\n      dup3\n        /* \"#utility.yul\":12356:12377   */\n      or\n        /* \"#utility.yul\":12348:12377   */\n      swap1\n      pop\n        /* \"#utility.yul\":12088:12383   */\n      swap3\n      swap2\n      pop\n      pop\n      jump\t// out\n        /* \"#utility.yul\":12388:13783   */\n    tag_48:\n        /* \"#utility.yul\":12505:12542   */\n      tag_329\n        /* \"#utility.yul\":12538:12541   */\n      dup3\n        /* \"#utility.yul\":12505:12542   */\n      tag_154\n      jump\t// in\n    tag_329:\n        /* \"#utility.yul\":12607:12625   */\n      0xffffffffffffffff\n        /* \"#utility.yul\":12599:12605   */\n      dup2\n        /* \"#utility.yul\":12596:12626   */\n      gt\n        /* \"#utility.yul\":12593:12649   */\n      iszero\n      tag_330\n      jumpi\n        /* \"#utility.yul\":12629:12647   */\n      tag_331\n      tag_168\n      jump\t// in\n    tag_331:\n        /* \"#utility.yul\":12593:12649   */\n    tag_330:\n        /* \"#utility.yul\":12673:12711   */\n      tag_332\n        /* \"#utility.yul\":12705:12709   */\n      dup3\n        /* \"#utility.yul\":12699:12710   */\n      sload\n        /* \"#utility.yul\":12673:12711   */\n      tag_54\n      jump\t// in\n    tag_332:\n        /* \"#utility.yul\":12758:12825   */\n      tag_333\n        /* \"#utility.yul\":12818:12824   */\n      dup3\n        /* \"#utility.yul\":12810:12816   */\n      dup3\n        /* \"#utility.yul\":12804:12808   */\n      dup6\n        /* \"#utility.yul\":12758:12825   */\n      tag_181\n      jump\t// in\n    tag_333:\n        /* \"#utility.yul\":12852:12853   */\n      0x00\n        /* \"#utility.yul\":12876:12880   */\n      0x20\n        /* \"#utility.yul\":12863:12880   */\n      swap1\n      pop\n        /* \"#utility.yul\":12908:12910   */\n      0x1f\n        /* \"#utility.yul\":12900:12906   */\n      dup4\n        /* \"#utility.yul\":12897:12911   */\n      gt\n        /* \"#utility.yul\":12925:12926   */\n      0x01\n        /* \"#utility.yul\":12920:13538   */\n      dup2\n      eq\n      tag_335\n      jumpi\n        /* \"#utility.yul\":13582:13583   */\n      0x00\n        /* \"#utility.yul\":13599:13605   */\n      dup5\n        /* \"#utility.yul\":13596:13673   */\n      iszero\n      tag_336\n      jumpi\n        /* \"#utility.yul\":13648:13657   */\n      dup3\n        /* \"#utility.yul\":13643:13646   */\n      dup8\n        /* \"#utility.yul\":13639:13658   */\n      add\n        /* \"#utility.yul\":13633:13659   */\n      mload\n        /* \"#utility.yul\":13624:13659   */\n      swap1\n      pop\n        /* \"#utility.yul\":13596:13673   */\n    tag_336:\n        /* \"#utility.yul\":13699:13766   */\n      tag_337\n        /* \"#utility.yul\":13759:13765   */\n      dup6\n        /* \"#utility.yul\":13752:13757   */\n      dup3\n        /* \"#utility.yul\":13699:13766   */\n      tag_184\n      jump\t// in\n    tag_337:\n        /* \"#utility.yul\":13693:13697   */\n      dup7\n        /* \"#utility.yul\":13686:13767   */\n      sstore\n        /* \"#utility.yul\":13555:13777   */\n      pop\n        /* \"#utility.yul\":12890:13777   */\n      jump(tag_334)\n        /* \"#utility.yul\":12920:13538   */\n    tag_335:\n        /* \"#utility.yul\":12972:12976   */\n      0x1f\n        /* \"#utility.yul\":12968:12977   */\n      not\n        /* \"#utility.yul\":12960:12966   */\n      dup5\n        /* \"#utility.yul\":12956:12978   */\n      and\n        /* \"#utility.yul\":13006:13043   */\n      tag_338\n        /* \"#utility.yul\":13038:13042   */\n      dup7\n        /* \"#utility.yul\":13006:13043   */\n      tag_170\n      jump\t// in\n    tag_338:\n        /* \"#utility.yul\":13065:13066   */\n      0x00\n        /* \"#utility.yul\":13079:13287   */\n    tag_339:\n        /* \"#utility.yul\":13093:13100   */\n      dup3\n        /* \"#utility.yul\":13090:13091   */\n      dup2\n        /* \"#utility.yul\":13087:13101   */\n      lt\n        /* \"#utility.yul\":13079:13287   */\n      iszero\n      tag_341\n      jumpi\n        /* \"#utility.yul\":13172:13181   */\n      dup5\n        /* \"#utility.yul\":13167:13170   */\n      dup10\n        /* \"#utility.yul\":13163:13182   */\n      add\n        /* \"#utility.yul\":13157:13183   */\n      mload\n        /* \"#utility.yul\":13149:13155   */\n      dup3\n        /* \"#utility.yul\":13142:13184   */\n      sstore\n        /* \"#utility.yul\":13223:13224   */\n      0x01\n        /* \"#utility.yul\":13215:13221   */\n      dup3\n        /* \"#utility.yul\":13211:13225   */\n      add\n        /* \"#utility.yul\":13201:13225   */\n      swap2\n      pop\n        /* \"#utility.yul\":13270:13272   */\n      0x20\n        /* \"#utility.yul\":13259:13268   */\n      dup6\n        /* \"#utility.yul\":13255:13273   */\n      add\n        /* \"#utility.yul\":13242:13273   */\n      swap5\n      pop\n        /* \"#utility.yul\":13116:13120   */\n      0x20\n        /* \"#utility.yul\":13113:13114   */\n      dup2\n        /* \"#utility.yul\":13109:13121   */\n      add\n        /* \"#utility.yul\":13104:13121   */\n      swap1\n      pop\n        /* \"#utility.yul\":13079:13287   */\n      jump(tag_339)\n    tag_341:\n        /* \"#utility.yul\":13315:13321   */\n      dup7\n        /* \"#utility.yul\":13306:13313   */\n      dup4\n        /* \"#utility.yul\":13303:13322   */\n      lt\n        /* \"#utility.yul\":13300:13479   */\n      iszero\n      tag_342\n      jumpi\n        /* \"#utility.yul\":13373:13382   */\n      dup5\n        /* \"#utility.yul\":13368:13371   */\n      dup10\n        /* \"#utility.yul\":13364:13383   */\n      add\n        /* \"#utility.yul\":13358:13384   */\n      mload\n        /* \"#utility.yul\":13416:13464   */\n      tag_343\n        /* \"#utility.yul\":13458:13462   */\n      0x1f\n        /* \"#utility.yul\":13450:13456   */\n      dup10\n        /* \"#utility.yul\":13446:13463   */\n      and\n        /* \"#utility.yul\":13435:13444   */\n      dup3\n        /* \"#utility.yul\":13416:13464   */\n      tag_183\n      jump\t// in\n    tag_343:\n        /* \"#utility.yul\":13408:13414   */\n      dup4\n        /* \"#utility.yul\":13401:13465   */\n      sstore\n        /* \"#utility.yul\":13323:13479   */\n      pop\n        /* \"#utility.yul\":13300:13479   */\n    tag_342:\n        /* \"#utility.yul\":13525:13526   */\n      0x01\n        /* \"#utility.yul\":13521:13522   */\n      0x02\n        /* \"#utility.yul\":13513:13519   */\n      dup9\n        /* \"#utility.yul\":13509:13523   */\n      mul\n        /* \"#utility.yul\":13505:13527   */\n      add\n        /* \"#utility.yul\":13499:13503   */\n      dup9\n        /* \"#utility.yul\":13492:13528   */\n      sstore\n        /* \"#utility.yul\":12927:13538   */\n      pop\n      pop\n      pop\n        /* \"#utility.yul\":12890:13777   */\n    tag_334:\n      pop\n        /* \"#utility.yul\":12480:13783   */\n      pop\n      pop\n      pop\n        /* \"#utility.yul\":12388:13783   */\n      pop\n      pop\n      jump\t// out\n        /* \"#utility.yul\":13789:13958   */\n    tag_185:\n        /* \"#utility.yul\":13873:13884   */\n      0x00\n        /* \"#utility.yul\":13907:13913   */\n      dup3\n        /* \"#utility.yul\":13902:13905   */\n      dup3\n        /* \"#utility.yul\":13895:13914   */\n      mstore\n        /* \"#utility.yul\":13947:13951   */\n      0x20\n        /* \"#utility.yul\":13942:13945   */\n      dup3\n        /* \"#utility.yul\":13938:13952   */\n      add\n        /* \"#utility.yul\":13923:13952   */\n      swap1\n      pop\n        /* \"#utility.yul\":13789:13958   */\n      swap3\n      swap2\n      pop\n      pop\n      jump\t// out\n        /* \"#utility.yul\":13964:14140   */\n    tag_186:\n        /* \"#utility.yul\":14104:14132   */\n      0x5468652050726f706f73616c206973206e6f7420616374697665000000000000\n        /* \"#utility.yul\":14100:14101   */\n      0x00\n        /* \"#utility.yul\":14092:14098   */\n      dup3\n        /* \"#utility.yul\":14088:14102   */\n      add\n        /* \"#utility.yul\":14081:14133   */\n      mstore\n        /* \"#utility.yul\":13964:14140   */\n      pop\n      jump\t// out\n        /* \"#utility.yul\":14146:14512   */\n    tag_187:\n        /* \"#utility.yul\":14288:14291   */\n      0x00\n        /* \"#utility.yul\":14309:14376   */\n      tag_347\n        /* \"#utility.yul\":14373:14375   */\n      0x1a\n        /* \"#utility.yul\":14368:14371   */\n      dup4\n        /* \"#utility.yul\":14309:14376   */\n      tag_185\n      jump\t// in\n    tag_347:\n        /* \"#utility.yul\":14302:14376   */\n      swap2\n      pop\n        /* \"#utility.yul\":14385:14478   */\n      tag_348\n        /* \"#utility.yul\":14474:14477   */\n      dup3\n        /* \"#utility.yul\":14385:14478   */\n      tag_186\n      jump\t// in\n    tag_348:\n        /* \"#utility.yul\":14503:14505   */\n      0x20\n        /* \"#utility.yul\":14498:14501   */\n      dup3\n        /* \"#utility.yul\":14494:14506   */\n      add\n        /* \"#utility.yul\":14487:14506   */\n      swap1\n      pop\n        /* \"#utility.yul\":14146:14512   */\n      swap2\n      swap1\n      pop\n      jump\t// out\n        /* \"#utility.yul\":14518:14937   */\n    tag_67:\n        /* \"#utility.yul\":14684:14688   */\n      0x00\n        /* \"#utility.yul\":14722:14724   */\n      0x20\n        /* \"#utility.yul\":14711:14720   */\n      dup3\n        /* \"#utility.yul\":14707:14725   */\n      add\n        /* \"#utility.yul\":14699:14725   */\n      swap1\n      pop\n        /* \"#utility.yul\":14771:14780   */\n      dup2\n        /* \"#utility.yul\":14765:14769   */\n      dup2\n        /* \"#utility.yul\":14761:14781   */\n      sub\n        /* \"#utility.yul\":14757:14758   */\n      0x00\n        /* \"#utility.yul\":14746:14755   */\n      dup4\n        /* \"#utility.yul\":14742:14759   */\n      add\n        /* \"#utility.yul\":14735:14782   */\n      mstore\n        /* \"#utility.yul\":14799:14930   */\n      tag_350\n        /* \"#utility.yul\":14925:14929   */\n      dup2\n        /* \"#utility.yul\":14799:14930   */\n      tag_187\n      jump\t// in\n    tag_350:\n        /* \"#utility.yul\":14791:14930   */\n      swap1\n      pop\n        /* \"#utility.yul\":14518:14937   */\n      swap2\n      swap1\n      pop\n      jump\t// out\n        /* \"#utility.yul\":14943:15123   */\n    tag_188:\n        /* \"#utility.yul\":15083:15115   */\n      0x54686520616464726573732068617320616c726561647920766f746564210000\n        /* \"#utility.yul\":15079:15080   */\n      0x00\n        /* \"#utility.yul\":15071:15077   */\n      dup3\n        /* \"#utility.yul\":15067:15081   */\n      add\n        /* \"#utility.yul\":15060:15116   */\n      mstore\n        /* \"#utility.yul\":14943:15123   */\n      pop\n      jump\t// out\n        /* \"#utility.yul\":15129:15495   */\n    tag_189:\n        /* \"#utility.yul\":15271:15274   */\n      0x00\n        /* \"#utility.yul\":15292:15359   */\n      tag_353\n        /* \"#utility.yul\":15356:15358   */\n      0x1e\n        /* \"#utility.yul\":15351:15354   */\n      dup4\n        /* \"#utility.yul\":15292:15359   */\n      tag_185\n      jump\t// in\n    tag_353:\n        /* \"#utility.yul\":15285:15359   */\n      swap2\n      pop\n        /* \"#utility.yul\":15368:15461   */\n      tag_354\n        /* \"#utility.yul\":15457:15460   */\n      dup3\n        /* \"#utility.yul\":15368:15461   */\n      tag_188\n      jump\t// in\n    tag_354:\n        /* \"#utility.yul\":15486:15488   */\n      0x20\n        /* \"#utility.yul\":15481:15484   */\n      dup3\n        /* \"#utility.yul\":15477:15489   */\n      add\n        /* \"#utility.yul\":15470:15489   */\n      swap1\n      pop\n        /* \"#utility.yul\":15129:15495   */\n      swap2\n      swap1\n      pop\n      jump\t// out\n        /* \"#utility.yul\":15501:15920   */\n    tag_72:\n        /* \"#utility.yul\":15667:15671   */\n      0x00\n        /* \"#utility.yul\":15705:15707   */\n      0x20\n        /* \"#utility.yul\":15694:15703   */\n      dup3\n        /* \"#utility.yul\":15690:15708   */\n      add\n        /* \"#utility.yul\":15682:15708   */\n      swap1\n      pop\n        /* \"#utility.yul\":15754:15763   */\n      dup2\n        /* \"#utility.yul\":15748:15752   */\n      dup2\n        /* \"#utility.yul\":15744:15764   */\n      sub\n        /* \"#utility.yul\":15740:15741   */\n      0x00\n        /* \"#utility.yul\":15729:15738   */\n      dup4\n        /* \"#utility.yul\":15725:15742   */\n      add\n        /* \"#utility.yul\":15718:15765   */\n      mstore\n        /* \"#utility.yul\":15782:15913   */\n      tag_356\n        /* \"#utility.yul\":15908:15912   */\n      dup2\n        /* \"#utility.yul\":15782:15913   */\n      tag_189\n      jump\t// in\n    tag_356:\n        /* \"#utility.yul\":15774:15913   */\n      swap1\n      pop\n        /* \"#utility.yul\":15501:15920   */\n      swap2\n      swap1\n      pop\n      jump\t// out\n        /* \"#utility.yul\":15926:16120   */\n    tag_90:\n        /* \"#utility.yul\":15966:15970   */\n      0x00\n        /* \"#utility.yul\":15986:16006   */\n      tag_358\n        /* \"#utility.yul\":16004:16005   */\n      dup3\n        /* \"#utility.yul\":15986:16006   */\n      tag_151\n      jump\t// in\n    tag_358:\n        /* \"#utility.yul\":15981:16006   */\n      swap2\n      pop\n        /* \"#utility.yul\":16020:16040   */\n      tag_359\n        /* \"#utility.yul\":16038:16039   */\n      dup4\n        /* \"#utility.yul\":16020:16040   */\n      tag_151\n      jump\t// in\n    tag_359:\n        /* \"#utility.yul\":16015:16040   */\n      swap3\n      pop\n        /* \"#utility.yul\":16064:16065   */\n      dup3\n        /* \"#utility.yul\":16061:16062   */\n      dup3\n        /* \"#utility.yul\":16057:16066   */\n      sub\n        /* \"#utility.yul\":16049:16066   */\n      swap1\n      pop\n        /* \"#utility.yul\":16088:16089   */\n      dup2\n        /* \"#utility.yul\":16082:16086   */\n      dup2\n        /* \"#utility.yul\":16079:16090   */\n      gt\n        /* \"#utility.yul\":16076:16113   */\n      iszero\n      tag_360\n      jumpi\n        /* \"#utility.yul\":16093:16111   */\n      tag_361\n      tag_167\n      jump\t// in\n    tag_361:\n        /* \"#utility.yul\":16076:16113   */\n    tag_360:\n        /* \"#utility.yul\":15926:16120   */\n      swap3\n      swap2\n      pop\n      pop\n      jump\t// out\n        /* \"#utility.yul\":16126:16306   */\n    tag_115:\n        /* \"#utility.yul\":16174:16251   */\n      0x4e487b7100000000000000000000000000000000000000000000000000000000\n        /* \"#utility.yul\":16171:16172   */\n      0x00\n        /* \"#utility.yul\":16164:16252   */\n      mstore\n        /* \"#utility.yul\":16271:16275   */\n      0x32\n        /* \"#utility.yul\":16268:16269   */\n      0x04\n        /* \"#utility.yul\":16261:16276   */\n      mstore\n        /* \"#utility.yul\":16295:16299   */\n      0x24\n        /* \"#utility.yul\":16292:16293   */\n      0x00\n        /* \"#utility.yul\":16285:16300   */\n      revert\n        /* \"#utility.yul\":16312:16492   */\n    tag_190:\n        /* \"#utility.yul\":16360:16437   */\n      0x4e487b7100000000000000000000000000000000000000000000000000000000\n        /* \"#utility.yul\":16357:16358   */\n      0x00\n        /* \"#utility.yul\":16350:16438   */\n      mstore\n        /* \"#utility.yul\":16457:16461   */\n      0x12\n        /* \"#utility.yul\":16454:16455   */\n      0x04\n        /* \"#utility.yul\":16447:16462   */\n      mstore\n        /* \"#utility.yul\":16481:16485   */\n      0x24\n        /* \"#utility.yul\":16478:16479   */\n      0x00\n        /* \"#utility.yul\":16471:16486   */\n      revert\n        /* \"#utility.yul\":16498:16674   */\n    tag_126:\n        /* \"#utility.yul\":16530:16531   */\n      0x00\n        /* \"#utility.yul\":16547:16567   */\n      tag_365\n        /* \"#utility.yul\":16565:16566   */\n      dup3\n        /* \"#utility.yul\":16547:16567   */\n      tag_151\n      jump\t// in\n    tag_365:\n        /* \"#utility.yul\":16542:16567   */\n      swap2\n      pop\n        /* \"#utility.yul\":16581:16601   */\n      tag_366\n        /* \"#utility.yul\":16599:16600   */\n      dup4\n        /* \"#utility.yul\":16581:16601   */\n      tag_151\n      jump\t// in\n    tag_366:\n        /* \"#utility.yul\":16576:16601   */\n      swap3\n      pop\n        /* \"#utility.yul\":16620:16621   */\n      dup3\n        /* \"#utility.yul\":16610:16645   */\n      tag_367\n      jumpi\n        /* \"#utility.yul\":16625:16643   */\n      tag_368\n      tag_190\n      jump\t// in\n    tag_368:\n        /* \"#utility.yul\":16610:16645   */\n    tag_367:\n        /* \"#utility.yul\":16666:16667   */\n      dup3\n        /* \"#utility.yul\":16663:16664   */\n      dup3\n        /* \"#utility.yul\":16659:16668   */\n      mod\n        /* \"#utility.yul\":16654:16668   */\n      swap1\n      pop\n        /* \"#utility.yul\":16498:16674   */\n      swap3\n      swap2\n      pop\n      pop\n      jump\t// out\n        /* \"#utility.yul\":16680:16865   */\n    tag_130:\n        /* \"#utility.yul\":16720:16721   */\n      0x00\n        /* \"#utility.yul\":16737:16757   */\n      tag_370\n        /* \"#utility.yul\":16755:16756   */\n      dup3\n        /* \"#utility.yul\":16737:16757   */\n      tag_151\n      jump\t// in\n    tag_370:\n        /* \"#utility.yul\":16732:16757   */\n      swap2\n      pop\n        /* \"#utility.yul\":16771:16791   */\n      tag_371\n        /* \"#utility.yul\":16789:16790   */\n      dup4\n        /* \"#utility.yul\":16771:16791   */\n      tag_151\n      jump\t// in\n    tag_371:\n        /* \"#utility.yul\":16766:16791   */\n      swap3\n      pop\n        /* \"#utility.yul\":16810:16811   */\n      dup3\n        /* \"#utility.yul\":16800:16835   */\n      tag_372\n      jumpi\n        /* \"#utility.yul\":16815:16833   */\n      tag_373\n      tag_190\n      jump\t// in\n    tag_373:\n        /* \"#utility.yul\":16800:16835   */\n    tag_372:\n        /* \"#utility.yul\":16857:16858   */\n      dup3\n        /* \"#utility.yul\":16854:16855   */\n      dup3\n        /* \"#utility.yul\":16850:16859   */\n      div\n        /* \"#utility.yul\":16845:16859   */\n      swap1\n      pop\n        /* \"#utility.yul\":16680:16865   */\n      swap3\n      swap2\n      pop\n      pop\n      jump\t// out\n\n    auxdata: 0xa2646970667358221220e4f4919bc7127db5a90bf7a70d8155e255de3fbedd04111efc390238ced9626864736f6c63430008160033\n}\n",
				"bytecode": {
					"linkReferences": {},
					"object": "608060405234801561000f575f80fd5b50335f806101000a81548173ffffffffffffffffffffffffffffffffffffffff021916908373ffffffffffffffffffffffffffffffffffffffff160217905550600333908060018154018082558091505060019003905f5260205f20015f9091909190916101000a81548173ffffffffffffffffffffffffffffffffffffffff021916908373ffffffffffffffffffffffffffffffffffffffff160217905550611675806100bc5f395ff3fe608060405234801561000f575f80fd5b506004361061007b575f3560e01c8063b3f98adc11610059578063b3f98adc146100d5578063c7f758a8146100f1578063cbff75cb14610121578063dbddc7aa146101515761007b565b806313af40351461007f5780633ca6d1001461009b57806341ec6870146100b7575b5f80fd5b61009960048036038101906100949190610d91565b61015b565b005b6100b560048036038101906100b09190610e50565b6101f3565b005b6100bf6103d4565b6040516100cc9190611048565b60405180910390f35b6100ef60048036038101906100ea919061109e565b61057c565b005b61010b600480360381019061010691906110c9565b610880565b6040516101189190611048565b60405180910390f35b61013b60048036038101906101369190610d91565b610a28565b6040516101489190611103565b60405180910390f35b610159610aca565b005b5f8054906101000a900473ffffffffffffffffffffffffffffffffffffffff1673ffffffffffffffffffffffffffffffffffffffff163373ffffffffffffffffffffffffffffffffffffffff16146101b1575f80fd5b805f806101000a81548173ffffffffffffffffffffffffffffffffffffffff021916908373ffffffffffffffffffffffffffffffffffffffff16021790555050565b5f8054906101000a900473ffffffffffffffffffffffffffffffffffffffff1673ffffffffffffffffffffffffffffffffffffffff163373ffffffffffffffffffffffffffffffffffffffff1614610249575f80fd5b6001805f82825461025a9190611149565b9250508190555060405180610100016040528086868080601f0160208091040260200160405190810160405280939291908181526020018383808284375f81840152601f19601f82011690508083019250505050505050815260200184848080601f0160208091040260200160405190810160405280939291908181526020018383808284375f81840152601f19601f8201169050808301925050505050505081526020015f81526020015f81526020015f81526020018281526020015f151581526020016001151581525060025f60015481526020019081526020015f205f820151815f01908161034c91906113a3565b50602082015181600101908161036291906113a3565b5060408201518160020155606082015181600301556080820151816004015560a0820151816005015560c0820151816006015f6101000a81548160ff02191690831515021790555060e08201518160060160016101000a81548160ff0219169083151502179055509050505050505050565b6103dc610c4a565b60025f60015481526020019081526020015f20604051806101000160405290815f8201805461040a906111d6565b80601f0160208091040260200160405190810160405280929190818152602001828054610436906111d6565b80156104815780601f1061045857610100808354040283529160200191610481565b820191905f5260205f20905b81548152906001019060200180831161046457829003601f168201915b5050505050815260200160018201805461049a906111d6565b80601f01602080910402602001604051908101604052809291908181526020018280546104c6906111d6565b80156105115780601f106104e857610100808354040283529160200191610511565b820191905f5260205f20905b8154815290600101906020018083116104f457829003601f168201915b5050505050815260200160028201548152602001600382015481526020016004820154815260200160058201548152602001600682015f9054906101000a900460ff161515151581526020016006820160019054906101000a900460ff161515151581525050905090565b6001151560025f60015481526020019081526020015f2060060160019054906101000a900460ff161515146105e6576040517f08c379a00000000000000000000000000000000000000000000000000000000081526004016105dd906114cc565b60405180910390fd5b336105f081610a28565b15610630576040517f08c379a000000000000000000000000000000000000000000000000000000000815260040161062790611534565b60405180910390fd5b5f60025f60015481526020019081526020015f2090505f8160040154826003015483600201546106609190611149565b61066a9190611149565b9050600333908060018154018082558091505060019003905f5260205f20015f9091909190916101000a81548173ffffffffffffffffffffffffffffffffffffffff021916908373ffffffffffffffffffffffffffffffffffffffff16021790555060018460ff1603610719576001826002015f8282546106eb9190611149565b925050819055506106fa610bba565b826006015f6101000a81548160ff0219169083151502179055506107b0565b60028460ff1603610766576001826003015f8282546107389190611149565b92505081905550610747610bba565b826006015f6101000a81548160ff0219169083151502179055506107af565b5f8460ff16036107ae576001826004015f8282546107849190611149565b92505081905550610793610bba565b826006015f6101000a81548160ff0219169083151502179055505b5b5b60018183600501546107c29190611552565b1480156107d2575060018460ff16145b806107e0575060028460ff16145b806107ed57505f8460ff16145b1561087a575f8260060160016101000a81548160ff02191690831515021790555060405180602001604052805f8054906101000a900473ffffffffffffffffffffffffffffffffffffffff1673ffffffffffffffffffffffffffffffffffffffff1673ffffffffffffffffffffffffffffffffffffffff168152506003906001610878929190610c8d565b505b50505050565b610888610c4a565b60025f8381526020019081526020015f20604051806101000160405290815f820180546108b4906111d6565b80601f01602080910402602001604051908101604052809291908181526020018280546108e0906111d6565b801561092b5780601f106109025761010080835404028352916020019161092b565b820191905f5260205f20905b81548152906001019060200180831161090e57829003601f168201915b50505050508152602001600182018054610944906111d6565b80601f0160208091040260200160405190810160405280929190818152602001828054610970906111d6565b80156109bb5780601f10610992576101008083540402835291602001916109bb565b820191905f5260205f20905b81548152906001019060200180831161099e57829003601f168201915b5050505050815260200160028201548152602001600382015481526020016004820154815260200160058201548152602001600682015f9054906101000a900460ff161515151581526020016006820160019054906101000a900460ff1615151515815250509050919050565b5f805f90505b600380549050811015610ac0578273ffffffffffffffffffffffffffffffffffffffff1660038281548110610a6657610a65611585565b5b905f5260205f20015f9054906101000a900473ffffffffffffffffffffffffffffffffffffffff1673ffffffffffffffffffffffffffffffffffffffff1603610ab3576001915050610ac5565b8080600101915050610a2e565b505f90505b919050565b5f8054906101000a900473ffffffffffffffffffffffffffffffffffffffff1673ffffffffffffffffffffffffffffffffffffffff163373ffffffffffffffffffffffffffffffffffffffff1614610b20575f80fd5b6001151560025f60015481526020019081526020015f2060060160019054906101000a900460ff16151514610b8a576040517f08c379a0000000000000000000000000000000000000000000000000000000008152600401610b81906114cc565b60405180910390fd5b5f60025f60015481526020019081526020015f2060060160016101000a81548160ff021916908315150217905550565b5f8060025f60015481526020019081526020015f2090505f816002015490505f826003015490505f836004015490505f60028560040154610bfb91906115df565b14610c1057600181610c0d9190611149565b90505b600281610c1d919061160f565b90508082610c2b9190611149565b831115610c3f576001945050505050610c47565b5f9450505050505b90565b60405180610100016040528060608152602001606081526020015f81526020015f81526020015f81526020015f81526020015f151581526020015f151581525090565b828054828255905f5260205f20908101928215610d03579160200282015b82811115610d02578251825f6101000a81548173ffffffffffffffffffffffffffffffffffffffff021916908373ffffffffffffffffffffffffffffffffffffffff16021790555091602001919060010190610cab565b5b509050610d109190610d14565b5090565b5b80821115610d2b575f815f905550600101610d15565b5090565b5f80fd5b5f80fd5b5f73ffffffffffffffffffffffffffffffffffffffff82169050919050565b5f610d6082610d37565b9050919050565b610d7081610d56565b8114610d7a575f80fd5b50565b5f81359050610d8b81610d67565b92915050565b5f60208284031215610da657610da5610d2f565b5b5f610db384828501610d7d565b91505092915050565b5f80fd5b5f80fd5b5f80fd5b5f8083601f840112610ddd57610ddc610dbc565b5b8235905067ffffffffffffffff811115610dfa57610df9610dc0565b5b602083019150836001820283011115610e1657610e15610dc4565b5b9250929050565b5f819050919050565b610e2f81610e1d565b8114610e39575f80fd5b50565b5f81359050610e4a81610e26565b92915050565b5f805f805f60608688031215610e6957610e68610d2f565b5b5f86013567ffffffffffffffff811115610e8657610e85610d33565b5b610e9288828901610dc8565b9550955050602086013567ffffffffffffffff811115610eb557610eb4610d33565b5b610ec188828901610dc8565b93509350506040610ed488828901610e3c565b9150509295509295909350565b5f81519050919050565b5f82825260208201905092915050565b5f5b83811015610f18578082015181840152602081019050610efd565b5f8484015250505050565b5f601f19601f8301169050919050565b5f610f3d82610ee1565b610f478185610eeb565b9350610f57818560208601610efb565b610f6081610f23565b840191505092915050565b610f7481610e1d565b82525050565b5f8115159050919050565b610f8e81610f7a565b82525050565b5f61010083015f8301518482035f860152610faf8282610f33565b91505060208301518482036020860152610fc98282610f33565b9150506040830151610fde6040860182610f6b565b506060830151610ff16060860182610f6b565b5060808301516110046080860182610f6b565b5060a083015161101760a0860182610f6b565b5060c083015161102a60c0860182610f85565b5060e083015161103d60e0860182610f85565b508091505092915050565b5f6020820190508181035f8301526110608184610f94565b905092915050565b5f60ff82169050919050565b61107d81611068565b8114611087575f80fd5b50565b5f8135905061109881611074565b92915050565b5f602082840312156110b3576110b2610d2f565b5b5f6110c08482850161108a565b91505092915050565b5f602082840312156110de576110dd610d2f565b5b5f6110eb84828501610e3c565b91505092915050565b6110fd81610f7a565b82525050565b5f6020820190506111165f8301846110f4565b92915050565b7f4e487b71000000000000000000000000000000000000000000000000000000005f52601160045260245ffd5b5f61115382610e1d565b915061115e83610e1d565b92508282019050808211156111765761117561111c565b5b92915050565b7f4e487b71000000000000000000000000000000000000000000000000000000005f52604160045260245ffd5b7f4e487b71000000000000000000000000000000000000000000000000000000005f52602260045260245ffd5b5f60028204905060018216806111ed57607f821691505b602082108103611200576111ff6111a9565b5b50919050565b5f819050815f5260205f209050919050565b5f6020601f8301049050919050565b5f82821b905092915050565b5f600883026112627fffffffffffffffffffffffffffffffffffffffffffffffffffffffffffffffff82611227565b61126c8683611227565b95508019841693508086168417925050509392505050565b5f819050919050565b5f6112a76112a261129d84610e1d565b611284565b610e1d565b9050919050565b5f819050919050565b6112c08361128d565b6112d46112cc826112ae565b848454611233565b825550505050565b5f90565b6112e86112dc565b6112f38184846112b7565b505050565b5b818110156113165761130b5f826112e0565b6001810190506112f9565b5050565b601f82111561135b5761132c81611206565b61133584611218565b81016020851015611344578190505b61135861135085611218565b8301826112f8565b50505b505050565b5f82821c905092915050565b5f61137b5f1984600802611360565b1980831691505092915050565b5f611393838361136c565b9150826002028217905092915050565b6113ac82610ee1565b67ffffffffffffffff8111156113c5576113c461117c565b5b6113cf82546111d6565b6113da82828561131a565b5f60209050601f83116001811461140b575f84156113f9578287015190505b6114038582611388565b86555061146a565b601f19841661141986611206565b5f5b828110156114405784890151825560018201915060208501945060208101905061141b565b8683101561145d5784890151611459601f89168261136c565b8355505b6001600288020188555050505b505050505050565b5f82825260208201905092915050565b7f5468652050726f706f73616c206973206e6f74206163746976650000000000005f82015250565b5f6114b6601a83611472565b91506114c182611482565b602082019050919050565b5f6020820190508181035f8301526114e3816114aa565b9050919050565b7f54686520616464726573732068617320616c726561647920766f7465642100005f82015250565b5f61151e601e83611472565b9150611529826114ea565b602082019050919050565b5f6020820190508181035f83015261154b81611512565b9050919050565b5f61155c82610e1d565b915061156783610e1d565b925082820390508181111561157f5761157e61111c565b5b92915050565b7f4e487b71000000000000000000000000000000000000000000000000000000005f52603260045260245ffd5b7f4e487b71000000000000000000000000000000000000000000000000000000005f52601260045260245ffd5b5f6115e982610e1d565b91506115f483610e1d565b925082611604576116036115b2565b5b828206905092915050565b5f61161982610e1d565b915061162483610e1d565b925082611634576116336115b2565b5b82820490509291505056fea2646970667358221220e4f4919bc7127db5a90bf7a70d8155e255de3fbedd04111efc390238ced9626864736f6c63430008160033",
					"opcodes": "PUSH1 0x80 PUSH1 0x40 MSTORE CALLVALUE DUP1 ISZERO PUSH2 0xF JUMPI PUSH0 DUP1 REVERT JUMPDEST POP CALLER PUSH0 DUP1 PUSH2 0x100 EXP DUP2 SLOAD DUP2 PUSH20 0xFFFFFFFFFFFFFFFFFFFFFFFFFFFFFFFFFFFFFFFF MUL NOT AND SWAP1 DUP4 PUSH20 0xFFFFFFFFFFFFFFFFFFFFFFFFFFFFFFFFFFFFFFFF AND MUL OR SWAP1 SSTORE POP PUSH1 0x3 CALLER SWAP1 DUP1 PUSH1 0x1 DUP2 SLOAD ADD DUP1 DUP3 SSTORE DUP1 SWAP2 POP POP PUSH1 0x1 SWAP1 SUB SWAP1 PUSH0 MSTORE PUSH1 0x20 PUSH0 KECCAK256 ADD PUSH0 SWAP1 SWAP2 SWAP1 SWAP2 SWAP1 SWAP2 PUSH2 0x100 EXP DUP2 SLOAD DUP2 PUSH20 0xFFFFFFFFFFFFFFFFFFFFFFFFFFFFFFFFFFFFFFFF MUL NOT AND SWAP1 DUP4 PUSH20 0xFFFFFFFFFFFFFFFFFFFFFFFFFFFFFFFFFFFFFFFF AND MUL OR SWAP1 SSTORE POP PUSH2 0x1675 DUP1 PUSH2 0xBC PUSH0 CODECOPY PUSH0 RETURN INVALID PUSH1 0x80 PUSH1 0x40 MSTORE CALLVALUE DUP1 ISZERO PUSH2 0xF JUMPI PUSH0 DUP1 REVERT JUMPDEST POP PUSH1 0x4 CALLDATASIZE LT PUSH2 0x7B JUMPI PUSH0 CALLDATALOAD PUSH1 0xE0 SHR DUP1 PUSH4 0xB3F98ADC GT PUSH2 0x59 JUMPI DUP1 PUSH4 0xB3F98ADC EQ PUSH2 0xD5 JUMPI DUP1 PUSH4 0xC7F758A8 EQ PUSH2 0xF1 JUMPI DUP1 PUSH4 0xCBFF75CB EQ PUSH2 0x121 JUMPI DUP1 PUSH4 0xDBDDC7AA EQ PUSH2 0x151 JUMPI PUSH2 0x7B JUMP JUMPDEST DUP1 PUSH4 0x13AF4035 EQ PUSH2 0x7F JUMPI DUP1 PUSH4 0x3CA6D100 EQ PUSH2 0x9B JUMPI DUP1 PUSH4 0x41EC6870 EQ PUSH2 0xB7 JUMPI JUMPDEST PUSH0 DUP1 REVERT JUMPDEST PUSH2 0x99 PUSH1 0x4 DUP1 CALLDATASIZE SUB DUP2 ADD SWAP1 PUSH2 0x94 SWAP2 SWAP1 PUSH2 0xD91 JUMP JUMPDEST PUSH2 0x15B JUMP JUMPDEST STOP JUMPDEST PUSH2 0xB5 PUSH1 0x4 DUP1 CALLDATASIZE SUB DUP2 ADD SWAP1 PUSH2 0xB0 SWAP2 SWAP1 PUSH2 0xE50 JUMP JUMPDEST PUSH2 0x1F3 JUMP JUMPDEST STOP JUMPDEST PUSH2 0xBF PUSH2 0x3D4 JUMP JUMPDEST PUSH1 0x40 MLOAD PUSH2 0xCC SWAP2 SWAP1 PUSH2 0x1048 JUMP JUMPDEST PUSH1 0x40 MLOAD DUP1 SWAP2 SUB SWAP1 RETURN JUMPDEST PUSH2 0xEF PUSH1 0x4 DUP1 CALLDATASIZE SUB DUP2 ADD SWAP1 PUSH2 0xEA SWAP2 SWAP1 PUSH2 0x109E JUMP JUMPDEST PUSH2 0x57C JUMP JUMPDEST STOP JUMPDEST PUSH2 0x10B PUSH1 0x4 DUP1 CALLDATASIZE SUB DUP2 ADD SWAP1 PUSH2 0x106 SWAP2 SWAP1 PUSH2 0x10C9 JUMP JUMPDEST PUSH2 0x880 JUMP JUMPDEST PUSH1 0x40 MLOAD PUSH2 0x118 SWAP2 SWAP1 PUSH2 0x1048 JUMP JUMPDEST PUSH1 0x40 MLOAD DUP1 SWAP2 SUB SWAP1 RETURN JUMPDEST PUSH2 0x13B PUSH1 0x4 DUP1 CALLDATASIZE SUB DUP2 ADD SWAP1 PUSH2 0x136 SWAP2 SWAP1 PUSH2 0xD91 JUMP JUMPDEST PUSH2 0xA28 JUMP JUMPDEST PUSH1 0x40 MLOAD PUSH2 0x148 SWAP2 SWAP1 PUSH2 0x1103 JUMP JUMPDEST PUSH1 0x40 MLOAD DUP1 SWAP2 SUB SWAP1 RETURN JUMPDEST PUSH2 0x159 PUSH2 0xACA JUMP JUMPDEST STOP JUMPDEST PUSH0 DUP1 SLOAD SWAP1 PUSH2 0x100 EXP SWAP1 DIV PUSH20 0xFFFFFFFFFFFFFFFFFFFFFFFFFFFFFFFFFFFFFFFF AND PUSH20 0xFFFFFFFFFFFFFFFFFFFFFFFFFFFFFFFFFFFFFFFF AND CALLER PUSH20 0xFFFFFFFFFFFFFFFFFFFFFFFFFFFFFFFFFFFFFFFF AND EQ PUSH2 0x1B1 JUMPI PUSH0 DUP1 REVERT JUMPDEST DUP1 PUSH0 DUP1 PUSH2 0x100 EXP DUP2 SLOAD DUP2 PUSH20 0xFFFFFFFFFFFFFFFFFFFFFFFFFFFFFFFFFFFFFFFF MUL NOT AND SWAP1 DUP4 PUSH20 0xFFFFFFFFFFFFFFFFFFFFFFFFFFFFFFFFFFFFFFFF AND MUL OR SWAP1 SSTORE POP POP JUMP JUMPDEST PUSH0 DUP1 SLOAD SWAP1 PUSH2 0x100 EXP SWAP1 DIV PUSH20 0xFFFFFFFFFFFFFFFFFFFFFFFFFFFFFFFFFFFFFFFF AND PUSH20 0xFFFFFFFFFFFFFFFFFFFFFFFFFFFFFFFFFFFFFFFF AND CALLER PUSH20 0xFFFFFFFFFFFFFFFFFFFFFFFFFFFFFFFFFFFFFFFF AND EQ PUSH2 0x249 JUMPI PUSH0 DUP1 REVERT JUMPDEST PUSH1 0x1 DUP1 PUSH0 DUP3 DUP3 SLOAD PUSH2 0x25A SWAP2 SWAP1 PUSH2 0x1149 JUMP JUMPDEST SWAP3 POP POP DUP2 SWAP1 SSTORE POP PUSH1 0x40 MLOAD DUP1 PUSH2 0x100 ADD PUSH1 0x40 MSTORE DUP1 DUP7 DUP7 DUP1 DUP1 PUSH1 0x1F ADD PUSH1 0x20 DUP1 SWAP2 DIV MUL PUSH1 0x20 ADD PUSH1 0x40 MLOAD SWAP1 DUP2 ADD PUSH1 0x40 MSTORE DUP1 SWAP4 SWAP3 SWAP2 SWAP1 DUP2 DUP2 MSTORE PUSH1 0x20 ADD DUP4 DUP4 DUP1 DUP3 DUP5 CALLDATACOPY PUSH0 DUP2 DUP5 ADD MSTORE PUSH1 0x1F NOT PUSH1 0x1F DUP3 ADD AND SWAP1 POP DUP1 DUP4 ADD SWAP3 POP POP POP POP POP POP POP DUP2 MSTORE PUSH1 0x20 ADD DUP5 DUP5 DUP1 DUP1 PUSH1 0x1F ADD PUSH1 0x20 DUP1 SWAP2 DIV MUL PUSH1 0x20 ADD PUSH1 0x40 MLOAD SWAP1 DUP2 ADD PUSH1 0x40 MSTORE DUP1 SWAP4 SWAP3 SWAP2 SWAP1 DUP2 DUP2 MSTORE PUSH1 0x20 ADD DUP4 DUP4 DUP1 DUP3 DUP5 CALLDATACOPY PUSH0 DUP2 DUP5 ADD MSTORE PUSH1 0x1F NOT PUSH1 0x1F DUP3 ADD AND SWAP1 POP DUP1 DUP4 ADD SWAP3 POP POP POP POP POP POP POP DUP2 MSTORE PUSH1 0x20 ADD PUSH0 DUP2 MSTORE PUSH1 0x20 ADD PUSH0 DUP2 MSTORE PUSH1 0x20 ADD PUSH0 DUP2 MSTORE PUSH1 0x20 ADD DUP3 DUP2 MSTORE PUSH1 0x20 ADD PUSH0 ISZERO ISZERO DUP2 MSTORE PUSH1 0x20 ADD PUSH1 0x1 ISZERO ISZERO DUP2 MSTORE POP PUSH1 0x2 PUSH0 PUSH1 0x1 SLOAD DUP2 MSTORE PUSH1 0x20 ADD SWAP1 DUP2 MSTORE PUSH1 0x20 ADD PUSH0 KECCAK256 PUSH0 DUP3 ADD MLOAD DUP2 PUSH0 ADD SWAP1 DUP2 PUSH2 0x34C SWAP2 SWAP1 PUSH2 0x13A3 JUMP JUMPDEST POP PUSH1 0x20 DUP3 ADD MLOAD DUP2 PUSH1 0x1 ADD SWAP1 DUP2 PUSH2 0x362 SWAP2 SWAP1 PUSH2 0x13A3 JUMP JUMPDEST POP PUSH1 0x40 DUP3 ADD MLOAD DUP2 PUSH1 0x2 ADD SSTORE PUSH1 0x60 DUP3 ADD MLOAD DUP2 PUSH1 0x3 ADD SSTORE PUSH1 0x80 DUP3 ADD MLOAD DUP2 PUSH1 0x4 ADD SSTORE PUSH1 0xA0 DUP3 ADD MLOAD DUP2 PUSH1 0x5 ADD SSTORE PUSH1 0xC0 DUP3 ADD MLOAD DUP2 PUSH1 0x6 ADD PUSH0 PUSH2 0x100 EXP DUP2 SLOAD DUP2 PUSH1 0xFF MUL NOT AND SWAP1 DUP4 ISZERO ISZERO MUL OR SWAP1 SSTORE POP PUSH1 0xE0 DUP3 ADD MLOAD DUP2 PUSH1 0x6 ADD PUSH1 0x1 PUSH2 0x100 EXP DUP2 SLOAD DUP2 PUSH1 0xFF MUL NOT AND SWAP1 DUP4 ISZERO ISZERO MUL OR SWAP1 SSTORE POP SWAP1 POP POP POP POP POP POP POP JUMP JUMPDEST PUSH2 0x3DC PUSH2 0xC4A JUMP JUMPDEST PUSH1 0x2 PUSH0 PUSH1 0x1 SLOAD DUP2 MSTORE PUSH1 0x20 ADD SWAP1 DUP2 MSTORE PUSH1 0x20 ADD PUSH0 KECCAK256 PUSH1 0x40 MLOAD DUP1 PUSH2 0x100 ADD PUSH1 0x40 MSTORE SWAP1 DUP2 PUSH0 DUP3 ADD DUP1 SLOAD PUSH2 0x40A SWAP1 PUSH2 0x11D6 JUMP JUMPDEST DUP1 PUSH1 0x1F ADD PUSH1 0x20 DUP1 SWAP2 DIV MUL PUSH1 0x20 ADD PUSH1 0x40 MLOAD SWAP1 DUP2 ADD PUSH1 0x40 MSTORE DUP1 SWAP3 SWAP2 SWAP1 DUP2 DUP2 MSTORE PUSH1 0x20 ADD DUP3 DUP1 SLOAD PUSH2 0x436 SWAP1 PUSH2 0x11D6 JUMP JUMPDEST DUP1 ISZERO PUSH2 0x481 JUMPI DUP1 PUSH1 0x1F LT PUSH2 0x458 JUMPI PUSH2 0x100 DUP1 DUP4 SLOAD DIV MUL DUP4 MSTORE SWAP2 PUSH1 0x20 ADD SWAP2 PUSH2 0x481 JUMP JUMPDEST DUP3 ADD SWAP2 SWAP1 PUSH0 MSTORE PUSH1 0x20 PUSH0 KECCAK256 SWAP1 JUMPDEST DUP2 SLOAD DUP2 MSTORE SWAP1 PUSH1 0x1 ADD SWAP1 PUSH1 0x20 ADD DUP1 DUP4 GT PUSH2 0x464 JUMPI DUP3 SWAP1 SUB PUSH1 0x1F AND DUP3 ADD SWAP2 JUMPDEST POP POP POP POP POP DUP2 MSTORE PUSH1 0x20 ADD PUSH1 0x1 DUP3 ADD DUP1 SLOAD PUSH2 0x49A SWAP1 PUSH2 0x11D6 JUMP JUMPDEST DUP1 PUSH1 0x1F ADD PUSH1 0x20 DUP1 SWAP2 DIV MUL PUSH1 0x20 ADD PUSH1 0x40 MLOAD SWAP1 DUP2 ADD PUSH1 0x40 MSTORE DUP1 SWAP3 SWAP2 SWAP1 DUP2 DUP2 MSTORE PUSH1 0x20 ADD DUP3 DUP1 SLOAD PUSH2 0x4C6 SWAP1 PUSH2 0x11D6 JUMP JUMPDEST DUP1 ISZERO PUSH2 0x511 JUMPI DUP1 PUSH1 0x1F LT PUSH2 0x4E8 JUMPI PUSH2 0x100 DUP1 DUP4 SLOAD DIV MUL DUP4 MSTORE SWAP2 PUSH1 0x20 ADD SWAP2 PUSH2 0x511 JUMP JUMPDEST DUP3 ADD SWAP2 SWAP1 PUSH0 MSTORE PUSH1 0x20 PUSH0 KECCAK256 SWAP1 JUMPDEST DUP2 SLOAD DUP2 MSTORE SWAP1 PUSH1 0x1 ADD SWAP1 PUSH1 0x20 ADD DUP1 DUP4 GT PUSH2 0x4F4 JUMPI DUP3 SWAP1 SUB PUSH1 0x1F AND DUP3 ADD SWAP2 JUMPDEST POP POP POP POP POP DUP2 MSTORE PUSH1 0x20 ADD PUSH1 0x2 DUP3 ADD SLOAD DUP2 MSTORE PUSH1 0x20 ADD PUSH1 0x3 DUP3 ADD SLOAD DUP2 MSTORE PUSH1 0x20 ADD PUSH1 0x4 DUP3 ADD SLOAD DUP2 MSTORE PUSH1 0x20 ADD PUSH1 0x5 DUP3 ADD SLOAD DUP2 MSTORE PUSH1 0x20 ADD PUSH1 0x6 DUP3 ADD PUSH0 SWAP1 SLOAD SWAP1 PUSH2 0x100 EXP SWAP1 DIV PUSH1 0xFF AND ISZERO ISZERO ISZERO ISZERO DUP2 MSTORE PUSH1 0x20 ADD PUSH1 0x6 DUP3 ADD PUSH1 0x1 SWAP1 SLOAD SWAP1 PUSH2 0x100 EXP SWAP1 DIV PUSH1 0xFF AND ISZERO ISZERO ISZERO ISZERO DUP2 MSTORE POP POP SWAP1 POP SWAP1 JUMP JUMPDEST PUSH1 0x1 ISZERO ISZERO PUSH1 0x2 PUSH0 PUSH1 0x1 SLOAD DUP2 MSTORE PUSH1 0x20 ADD SWAP1 DUP2 MSTORE PUSH1 0x20 ADD PUSH0 KECCAK256 PUSH1 0x6 ADD PUSH1 0x1 SWAP1 SLOAD SWAP1 PUSH2 0x100 EXP SWAP1 DIV PUSH1 0xFF AND ISZERO ISZERO EQ PUSH2 0x5E6 JUMPI PUSH1 0x40 MLOAD PUSH32 0x8C379A000000000000000000000000000000000000000000000000000000000 DUP2 MSTORE PUSH1 0x4 ADD PUSH2 0x5DD SWAP1 PUSH2 0x14CC JUMP JUMPDEST PUSH1 0x40 MLOAD DUP1 SWAP2 SUB SWAP1 REVERT JUMPDEST CALLER PUSH2 0x5F0 DUP2 PUSH2 0xA28 JUMP JUMPDEST ISZERO PUSH2 0x630 JUMPI PUSH1 0x40 MLOAD PUSH32 0x8C379A000000000000000000000000000000000000000000000000000000000 DUP2 MSTORE PUSH1 0x4 ADD PUSH2 0x627 SWAP1 PUSH2 0x1534 JUMP JUMPDEST PUSH1 0x40 MLOAD DUP1 SWAP2 SUB SWAP1 REVERT JUMPDEST PUSH0 PUSH1 0x2 PUSH0 PUSH1 0x1 SLOAD DUP2 MSTORE PUSH1 0x20 ADD SWAP1 DUP2 MSTORE PUSH1 0x20 ADD PUSH0 KECCAK256 SWAP1 POP PUSH0 DUP2 PUSH1 0x4 ADD SLOAD DUP3 PUSH1 0x3 ADD SLOAD DUP4 PUSH1 0x2 ADD SLOAD PUSH2 0x660 SWAP2 SWAP1 PUSH2 0x1149 JUMP JUMPDEST PUSH2 0x66A SWAP2 SWAP1 PUSH2 0x1149 JUMP JUMPDEST SWAP1 POP PUSH1 0x3 CALLER SWAP1 DUP1 PUSH1 0x1 DUP2 SLOAD ADD DUP1 DUP3 SSTORE DUP1 SWAP2 POP POP PUSH1 0x1 SWAP1 SUB SWAP1 PUSH0 MSTORE PUSH1 0x20 PUSH0 KECCAK256 ADD PUSH0 SWAP1 SWAP2 SWAP1 SWAP2 SWAP1 SWAP2 PUSH2 0x100 EXP DUP2 SLOAD DUP2 PUSH20 0xFFFFFFFFFFFFFFFFFFFFFFFFFFFFFFFFFFFFFFFF MUL NOT AND SWAP1 DUP4 PUSH20 0xFFFFFFFFFFFFFFFFFFFFFFFFFFFFFFFFFFFFFFFF AND MUL OR SWAP1 SSTORE POP PUSH1 0x1 DUP5 PUSH1 0xFF AND SUB PUSH2 0x719 JUMPI PUSH1 0x1 DUP3 PUSH1 0x2 ADD PUSH0 DUP3 DUP3 SLOAD PUSH2 0x6EB SWAP2 SWAP1 PUSH2 0x1149 JUMP JUMPDEST SWAP3 POP POP DUP2 SWAP1 SSTORE POP PUSH2 0x6FA PUSH2 0xBBA JUMP JUMPDEST DUP3 PUSH1 0x6 ADD PUSH0 PUSH2 0x100 EXP DUP2 SLOAD DUP2 PUSH1 0xFF MUL NOT AND SWAP1 DUP4 ISZERO ISZERO MUL OR SWAP1 SSTORE POP PUSH2 0x7B0 JUMP JUMPDEST PUSH1 0x2 DUP5 PUSH1 0xFF AND SUB PUSH2 0x766 JUMPI PUSH1 0x1 DUP3 PUSH1 0x3 ADD PUSH0 DUP3 DUP3 SLOAD PUSH2 0x738 SWAP2 SWAP1 PUSH2 0x1149 JUMP JUMPDEST SWAP3 POP POP DUP2 SWAP1 SSTORE POP PUSH2 0x747 PUSH2 0xBBA JUMP JUMPDEST DUP3 PUSH1 0x6 ADD PUSH0 PUSH2 0x100 EXP DUP2 SLOAD DUP2 PUSH1 0xFF MUL NOT AND SWAP1 DUP4 ISZERO ISZERO MUL OR SWAP1 SSTORE POP PUSH2 0x7AF JUMP JUMPDEST PUSH0 DUP5 PUSH1 0xFF AND SUB PUSH2 0x7AE JUMPI PUSH1 0x1 DUP3 PUSH1 0x4 ADD PUSH0 DUP3 DUP3 SLOAD PUSH2 0x784 SWAP2 SWAP1 PUSH2 0x1149 JUMP JUMPDEST SWAP3 POP POP DUP2 SWAP1 SSTORE POP PUSH2 0x793 PUSH2 0xBBA JUMP JUMPDEST DUP3 PUSH1 0x6 ADD PUSH0 PUSH2 0x100 EXP DUP2 SLOAD DUP2 PUSH1 0xFF MUL NOT AND SWAP1 DUP4 ISZERO ISZERO MUL OR SWAP1 SSTORE POP JUMPDEST JUMPDEST JUMPDEST PUSH1 0x1 DUP2 DUP4 PUSH1 0x5 ADD SLOAD PUSH2 0x7C2 SWAP2 SWAP1 PUSH2 0x1552 JUMP JUMPDEST EQ DUP1 ISZERO PUSH2 0x7D2 JUMPI POP PUSH1 0x1 DUP5 PUSH1 0xFF AND EQ JUMPDEST DUP1 PUSH2 0x7E0 JUMPI POP PUSH1 0x2 DUP5 PUSH1 0xFF AND EQ JUMPDEST DUP1 PUSH2 0x7ED JUMPI POP PUSH0 DUP5 PUSH1 0xFF AND EQ JUMPDEST ISZERO PUSH2 0x87A JUMPI PUSH0 DUP3 PUSH1 0x6 ADD PUSH1 0x1 PUSH2 0x100 EXP DUP2 SLOAD DUP2 PUSH1 0xFF MUL NOT AND SWAP1 DUP4 ISZERO ISZERO MUL OR SWAP1 SSTORE POP PUSH1 0x40 MLOAD DUP1 PUSH1 0x20 ADD PUSH1 0x40 MSTORE DUP1 PUSH0 DUP1 SLOAD SWAP1 PUSH2 0x100 EXP SWAP1 DIV PUSH20 0xFFFFFFFFFFFFFFFFFFFFFFFFFFFFFFFFFFFFFFFF AND PUSH20 0xFFFFFFFFFFFFFFFFFFFFFFFFFFFFFFFFFFFFFFFF AND PUSH20 0xFFFFFFFFFFFFFFFFFFFFFFFFFFFFFFFFFFFFFFFF AND DUP2 MSTORE POP PUSH1 0x3 SWAP1 PUSH1 0x1 PUSH2 0x878 SWAP3 SWAP2 SWAP1 PUSH2 0xC8D JUMP JUMPDEST POP JUMPDEST POP POP POP POP JUMP JUMPDEST PUSH2 0x888 PUSH2 0xC4A JUMP JUMPDEST PUSH1 0x2 PUSH0 DUP4 DUP2 MSTORE PUSH1 0x20 ADD SWAP1 DUP2 MSTORE PUSH1 0x20 ADD PUSH0 KECCAK256 PUSH1 0x40 MLOAD DUP1 PUSH2 0x100 ADD PUSH1 0x40 MSTORE SWAP1 DUP2 PUSH0 DUP3 ADD DUP1 SLOAD PUSH2 0x8B4 SWAP1 PUSH2 0x11D6 JUMP JUMPDEST DUP1 PUSH1 0x1F ADD PUSH1 0x20 DUP1 SWAP2 DIV MUL PUSH1 0x20 ADD PUSH1 0x40 MLOAD SWAP1 DUP2 ADD PUSH1 0x40 MSTORE DUP1 SWAP3 SWAP2 SWAP1 DUP2 DUP2 MSTORE PUSH1 0x20 ADD DUP3 DUP1 SLOAD PUSH2 0x8E0 SWAP1 PUSH2 0x11D6 JUMP JUMPDEST DUP1 ISZERO PUSH2 0x92B JUMPI DUP1 PUSH1 0x1F LT PUSH2 0x902 JUMPI PUSH2 0x100 DUP1 DUP4 SLOAD DIV MUL DUP4 MSTORE SWAP2 PUSH1 0x20 ADD SWAP2 PUSH2 0x92B JUMP JUMPDEST DUP3 ADD SWAP2 SWAP1 PUSH0 MSTORE PUSH1 0x20 PUSH0 KECCAK256 SWAP1 JUMPDEST DUP2 SLOAD DUP2 MSTORE SWAP1 PUSH1 0x1 ADD SWAP1 PUSH1 0x20 ADD DUP1 DUP4 GT PUSH2 0x90E JUMPI DUP3 SWAP1 SUB PUSH1 0x1F AND DUP3 ADD SWAP2 JUMPDEST POP POP POP POP POP DUP2 MSTORE PUSH1 0x20 ADD PUSH1 0x1 DUP3 ADD DUP1 SLOAD PUSH2 0x944 SWAP1 PUSH2 0x11D6 JUMP JUMPDEST DUP1 PUSH1 0x1F ADD PUSH1 0x20 DUP1 SWAP2 DIV MUL PUSH1 0x20 ADD PUSH1 0x40 MLOAD SWAP1 DUP2 ADD PUSH1 0x40 MSTORE DUP1 SWAP3 SWAP2 SWAP1 DUP2 DUP2 MSTORE PUSH1 0x20 ADD DUP3 DUP1 SLOAD PUSH2 0x970 SWAP1 PUSH2 0x11D6 JUMP JUMPDEST DUP1 ISZERO PUSH2 0x9BB JUMPI DUP1 PUSH1 0x1F LT PUSH2 0x992 JUMPI PUSH2 0x100 DUP1 DUP4 SLOAD DIV MUL DUP4 MSTORE SWAP2 PUSH1 0x20 ADD SWAP2 PUSH2 0x9BB JUMP JUMPDEST DUP3 ADD SWAP2 SWAP1 PUSH0 MSTORE PUSH1 0x20 PUSH0 KECCAK256 SWAP1 JUMPDEST DUP2 SLOAD DUP2 MSTORE SWAP1 PUSH1 0x1 ADD SWAP1 PUSH1 0x20 ADD DUP1 DUP4 GT PUSH2 0x99E JUMPI DUP3 SWAP1 SUB PUSH1 0x1F AND DUP3 ADD SWAP2 JUMPDEST POP POP POP POP POP DUP2 MSTORE PUSH1 0x20 ADD PUSH1 0x2 DUP3 ADD SLOAD DUP2 MSTORE PUSH1 0x20 ADD PUSH1 0x3 DUP3 ADD SLOAD DUP2 MSTORE PUSH1 0x20 ADD PUSH1 0x4 DUP3 ADD SLOAD DUP2 MSTORE PUSH1 0x20 ADD PUSH1 0x5 DUP3 ADD SLOAD DUP2 MSTORE PUSH1 0x20 ADD PUSH1 0x6 DUP3 ADD PUSH0 SWAP1 SLOAD SWAP1 PUSH2 0x100 EXP SWAP1 DIV PUSH1 0xFF AND ISZERO ISZERO ISZERO ISZERO DUP2 MSTORE PUSH1 0x20 ADD PUSH1 0x6 DUP3 ADD PUSH1 0x1 SWAP1 SLOAD SWAP1 PUSH2 0x100 EXP SWAP1 DIV PUSH1 0xFF AND ISZERO ISZERO ISZERO ISZERO DUP2 MSTORE POP POP SWAP1 POP SWAP2 SWAP1 POP JUMP JUMPDEST PUSH0 DUP1 PUSH0 SWAP1 POP JUMPDEST PUSH1 0x3 DUP1 SLOAD SWAP1 POP DUP2 LT ISZERO PUSH2 0xAC0 JUMPI DUP3 PUSH20 0xFFFFFFFFFFFFFFFFFFFFFFFFFFFFFFFFFFFFFFFF AND PUSH1 0x3 DUP3 DUP2 SLOAD DUP2 LT PUSH2 0xA66 JUMPI PUSH2 0xA65 PUSH2 0x1585 JUMP JUMPDEST JUMPDEST SWAP1 PUSH0 MSTORE PUSH1 0x20 PUSH0 KECCAK256 ADD PUSH0 SWAP1 SLOAD SWAP1 PUSH2 0x100 EXP SWAP1 DIV PUSH20 0xFFFFFFFFFFFFFFFFFFFFFFFFFFFFFFFFFFFFFFFF AND PUSH20 0xFFFFFFFFFFFFFFFFFFFFFFFFFFFFFFFFFFFFFFFF AND SUB PUSH2 0xAB3 JUMPI PUSH1 0x1 SWAP2 POP POP PUSH2 0xAC5 JUMP JUMPDEST DUP1 DUP1 PUSH1 0x1 ADD SWAP2 POP POP PUSH2 0xA2E JUMP JUMPDEST POP PUSH0 SWAP1 POP JUMPDEST SWAP2 SWAP1 POP JUMP JUMPDEST PUSH0 DUP1 SLOAD SWAP1 PUSH2 0x100 EXP SWAP1 DIV PUSH20 0xFFFFFFFFFFFFFFFFFFFFFFFFFFFFFFFFFFFFFFFF AND PUSH20 0xFFFFFFFFFFFFFFFFFFFFFFFFFFFFFFFFFFFFFFFF AND CALLER PUSH20 0xFFFFFFFFFFFFFFFFFFFFFFFFFFFFFFFFFFFFFFFF AND EQ PUSH2 0xB20 JUMPI PUSH0 DUP1 REVERT JUMPDEST PUSH1 0x1 ISZERO ISZERO PUSH1 0x2 PUSH0 PUSH1 0x1 SLOAD DUP2 MSTORE PUSH1 0x20 ADD SWAP1 DUP2 MSTORE PUSH1 0x20 ADD PUSH0 KECCAK256 PUSH1 0x6 ADD PUSH1 0x1 SWAP1 SLOAD SWAP1 PUSH2 0x100 EXP SWAP1 DIV PUSH1 0xFF AND ISZERO ISZERO EQ PUSH2 0xB8A JUMPI PUSH1 0x40 MLOAD PUSH32 0x8C379A000000000000000000000000000000000000000000000000000000000 DUP2 MSTORE PUSH1 0x4 ADD PUSH2 0xB81 SWAP1 PUSH2 0x14CC JUMP JUMPDEST PUSH1 0x40 MLOAD DUP1 SWAP2 SUB SWAP1 REVERT JUMPDEST PUSH0 PUSH1 0x2 PUSH0 PUSH1 0x1 SLOAD DUP2 MSTORE PUSH1 0x20 ADD SWAP1 DUP2 MSTORE PUSH1 0x20 ADD PUSH0 KECCAK256 PUSH1 0x6 ADD PUSH1 0x1 PUSH2 0x100 EXP DUP2 SLOAD DUP2 PUSH1 0xFF MUL NOT AND SWAP1 DUP4 ISZERO ISZERO MUL OR SWAP1 SSTORE POP JUMP JUMPDEST PUSH0 DUP1 PUSH1 0x2 PUSH0 PUSH1 0x1 SLOAD DUP2 MSTORE PUSH1 0x20 ADD SWAP1 DUP2 MSTORE PUSH1 0x20 ADD PUSH0 KECCAK256 SWAP1 POP PUSH0 DUP2 PUSH1 0x2 ADD SLOAD SWAP1 POP PUSH0 DUP3 PUSH1 0x3 ADD SLOAD SWAP1 POP PUSH0 DUP4 PUSH1 0x4 ADD SLOAD SWAP1 POP PUSH0 PUSH1 0x2 DUP6 PUSH1 0x4 ADD SLOAD PUSH2 0xBFB SWAP2 SWAP1 PUSH2 0x15DF JUMP JUMPDEST EQ PUSH2 0xC10 JUMPI PUSH1 0x1 DUP2 PUSH2 0xC0D SWAP2 SWAP1 PUSH2 0x1149 JUMP JUMPDEST SWAP1 POP JUMPDEST PUSH1 0x2 DUP2 PUSH2 0xC1D SWAP2 SWAP1 PUSH2 0x160F JUMP JUMPDEST SWAP1 POP DUP1 DUP3 PUSH2 0xC2B SWAP2 SWAP1 PUSH2 0x1149 JUMP JUMPDEST DUP4 GT ISZERO PUSH2 0xC3F JUMPI PUSH1 0x1 SWAP5 POP POP POP POP POP PUSH2 0xC47 JUMP JUMPDEST PUSH0 SWAP5 POP POP POP POP POP JUMPDEST SWAP1 JUMP JUMPDEST PUSH1 0x40 MLOAD DUP1 PUSH2 0x100 ADD PUSH1 0x40 MSTORE DUP1 PUSH1 0x60 DUP2 MSTORE PUSH1 0x20 ADD PUSH1 0x60 DUP2 MSTORE PUSH1 0x20 ADD PUSH0 DUP2 MSTORE PUSH1 0x20 ADD PUSH0 DUP2 MSTORE PUSH1 0x20 ADD PUSH0 DUP2 MSTORE PUSH1 0x20 ADD PUSH0 DUP2 MSTORE PUSH1 0x20 ADD PUSH0 ISZERO ISZERO DUP2 MSTORE PUSH1 0x20 ADD PUSH0 ISZERO ISZERO DUP2 MSTORE POP SWAP1 JUMP JUMPDEST DUP3 DUP1 SLOAD DUP3 DUP3 SSTORE SWAP1 PUSH0 MSTORE PUSH1 0x20 PUSH0 KECCAK256 SWAP1 DUP2 ADD SWAP3 DUP3 ISZERO PUSH2 0xD03 JUMPI SWAP2 PUSH1 0x20 MUL DUP3 ADD JUMPDEST DUP3 DUP2 GT ISZERO PUSH2 0xD02 JUMPI DUP3 MLOAD DUP3 PUSH0 PUSH2 0x100 EXP DUP2 SLOAD DUP2 PUSH20 0xFFFFFFFFFFFFFFFFFFFFFFFFFFFFFFFFFFFFFFFF MUL NOT AND SWAP1 DUP4 PUSH20 0xFFFFFFFFFFFFFFFFFFFFFFFFFFFFFFFFFFFFFFFF AND MUL OR SWAP1 SSTORE POP SWAP2 PUSH1 0x20 ADD SWAP2 SWAP1 PUSH1 0x1 ADD SWAP1 PUSH2 0xCAB JUMP JUMPDEST JUMPDEST POP SWAP1 POP PUSH2 0xD10 SWAP2 SWAP1 PUSH2 0xD14 JUMP JUMPDEST POP SWAP1 JUMP JUMPDEST JUMPDEST DUP1 DUP3 GT ISZERO PUSH2 0xD2B JUMPI PUSH0 DUP2 PUSH0 SWAP1 SSTORE POP PUSH1 0x1 ADD PUSH2 0xD15 JUMP JUMPDEST POP SWAP1 JUMP JUMPDEST PUSH0 DUP1 REVERT JUMPDEST PUSH0 DUP1 REVERT JUMPDEST PUSH0 PUSH20 0xFFFFFFFFFFFFFFFFFFFFFFFFFFFFFFFFFFFFFFFF DUP3 AND SWAP1 POP SWAP2 SWAP1 POP JUMP JUMPDEST PUSH0 PUSH2 0xD60 DUP3 PUSH2 0xD37 JUMP JUMPDEST SWAP1 POP SWAP2 SWAP1 POP JUMP JUMPDEST PUSH2 0xD70 DUP2 PUSH2 0xD56 JUMP JUMPDEST DUP2 EQ PUSH2 0xD7A JUMPI PUSH0 DUP1 REVERT JUMPDEST POP JUMP JUMPDEST PUSH0 DUP2 CALLDATALOAD SWAP1 POP PUSH2 0xD8B DUP2 PUSH2 0xD67 JUMP JUMPDEST SWAP3 SWAP2 POP POP JUMP JUMPDEST PUSH0 PUSH1 0x20 DUP3 DUP5 SUB SLT ISZERO PUSH2 0xDA6 JUMPI PUSH2 0xDA5 PUSH2 0xD2F JUMP JUMPDEST JUMPDEST PUSH0 PUSH2 0xDB3 DUP5 DUP3 DUP6 ADD PUSH2 0xD7D JUMP JUMPDEST SWAP2 POP POP SWAP3 SWAP2 POP POP JUMP JUMPDEST PUSH0 DUP1 REVERT JUMPDEST PUSH0 DUP1 REVERT JUMPDEST PUSH0 DUP1 REVERT JUMPDEST PUSH0 DUP1 DUP4 PUSH1 0x1F DUP5 ADD SLT PUSH2 0xDDD JUMPI PUSH2 0xDDC PUSH2 0xDBC JUMP JUMPDEST JUMPDEST DUP3 CALLDATALOAD SWAP1 POP PUSH8 0xFFFFFFFFFFFFFFFF DUP2 GT ISZERO PUSH2 0xDFA JUMPI PUSH2 0xDF9 PUSH2 0xDC0 JUMP JUMPDEST JUMPDEST PUSH1 0x20 DUP4 ADD SWAP2 POP DUP4 PUSH1 0x1 DUP3 MUL DUP4 ADD GT ISZERO PUSH2 0xE16 JUMPI PUSH2 0xE15 PUSH2 0xDC4 JUMP JUMPDEST JUMPDEST SWAP3 POP SWAP3 SWAP1 POP JUMP JUMPDEST PUSH0 DUP2 SWAP1 POP SWAP2 SWAP1 POP JUMP JUMPDEST PUSH2 0xE2F DUP2 PUSH2 0xE1D JUMP JUMPDEST DUP2 EQ PUSH2 0xE39 JUMPI PUSH0 DUP1 REVERT JUMPDEST POP JUMP JUMPDEST PUSH0 DUP2 CALLDATALOAD SWAP1 POP PUSH2 0xE4A DUP2 PUSH2 0xE26 JUMP JUMPDEST SWAP3 SWAP2 POP POP JUMP JUMPDEST PUSH0 DUP1 PUSH0 DUP1 PUSH0 PUSH1 0x60 DUP7 DUP9 SUB SLT ISZERO PUSH2 0xE69 JUMPI PUSH2 0xE68 PUSH2 0xD2F JUMP JUMPDEST JUMPDEST PUSH0 DUP7 ADD CALLDATALOAD PUSH8 0xFFFFFFFFFFFFFFFF DUP2 GT ISZERO PUSH2 0xE86 JUMPI PUSH2 0xE85 PUSH2 0xD33 JUMP JUMPDEST JUMPDEST PUSH2 0xE92 DUP9 DUP3 DUP10 ADD PUSH2 0xDC8 JUMP JUMPDEST SWAP6 POP SWAP6 POP POP PUSH1 0x20 DUP7 ADD CALLDATALOAD PUSH8 0xFFFFFFFFFFFFFFFF DUP2 GT ISZERO PUSH2 0xEB5 JUMPI PUSH2 0xEB4 PUSH2 0xD33 JUMP JUMPDEST JUMPDEST PUSH2 0xEC1 DUP9 DUP3 DUP10 ADD PUSH2 0xDC8 JUMP JUMPDEST SWAP4 POP SWAP4 POP POP PUSH1 0x40 PUSH2 0xED4 DUP9 DUP3 DUP10 ADD PUSH2 0xE3C JUMP JUMPDEST SWAP2 POP POP SWAP3 SWAP6 POP SWAP3 SWAP6 SWAP1 SWAP4 POP JUMP JUMPDEST PUSH0 DUP2 MLOAD SWAP1 POP SWAP2 SWAP1 POP JUMP JUMPDEST PUSH0 DUP3 DUP3 MSTORE PUSH1 0x20 DUP3 ADD SWAP1 POP SWAP3 SWAP2 POP POP JUMP JUMPDEST PUSH0 JUMPDEST DUP4 DUP2 LT ISZERO PUSH2 0xF18 JUMPI DUP1 DUP3 ADD MLOAD DUP2 DUP5 ADD MSTORE PUSH1 0x20 DUP2 ADD SWAP1 POP PUSH2 0xEFD JUMP JUMPDEST PUSH0 DUP5 DUP5 ADD MSTORE POP POP POP POP JUMP JUMPDEST PUSH0 PUSH1 0x1F NOT PUSH1 0x1F DUP4 ADD AND SWAP1 POP SWAP2 SWAP1 POP JUMP JUMPDEST PUSH0 PUSH2 0xF3D DUP3 PUSH2 0xEE1 JUMP JUMPDEST PUSH2 0xF47 DUP2 DUP6 PUSH2 0xEEB JUMP JUMPDEST SWAP4 POP PUSH2 0xF57 DUP2 DUP6 PUSH1 0x20 DUP7 ADD PUSH2 0xEFB JUMP JUMPDEST PUSH2 0xF60 DUP2 PUSH2 0xF23 JUMP JUMPDEST DUP5 ADD SWAP2 POP POP SWAP3 SWAP2 POP POP JUMP JUMPDEST PUSH2 0xF74 DUP2 PUSH2 0xE1D JUMP JUMPDEST DUP3 MSTORE POP POP JUMP JUMPDEST PUSH0 DUP2 ISZERO ISZERO SWAP1 POP SWAP2 SWAP1 POP JUMP JUMPDEST PUSH2 0xF8E DUP2 PUSH2 0xF7A JUMP JUMPDEST DUP3 MSTORE POP POP JUMP JUMPDEST PUSH0 PUSH2 0x100 DUP4 ADD PUSH0 DUP4 ADD MLOAD DUP5 DUP3 SUB PUSH0 DUP7 ADD MSTORE PUSH2 0xFAF DUP3 DUP3 PUSH2 0xF33 JUMP JUMPDEST SWAP2 POP POP PUSH1 0x20 DUP4 ADD MLOAD DUP5 DUP3 SUB PUSH1 0x20 DUP7 ADD MSTORE PUSH2 0xFC9 DUP3 DUP3 PUSH2 0xF33 JUMP JUMPDEST SWAP2 POP POP PUSH1 0x40 DUP4 ADD MLOAD PUSH2 0xFDE PUSH1 0x40 DUP7 ADD DUP3 PUSH2 0xF6B JUMP JUMPDEST POP PUSH1 0x60 DUP4 ADD MLOAD PUSH2 0xFF1 PUSH1 0x60 DUP7 ADD DUP3 PUSH2 0xF6B JUMP JUMPDEST POP PUSH1 0x80 DUP4 ADD MLOAD PUSH2 0x1004 PUSH1 0x80 DUP7 ADD DUP3 PUSH2 0xF6B JUMP JUMPDEST POP PUSH1 0xA0 DUP4 ADD MLOAD PUSH2 0x1017 PUSH1 0xA0 DUP7 ADD DUP3 PUSH2 0xF6B JUMP JUMPDEST POP PUSH1 0xC0 DUP4 ADD MLOAD PUSH2 0x102A PUSH1 0xC0 DUP7 ADD DUP3 PUSH2 0xF85 JUMP JUMPDEST POP PUSH1 0xE0 DUP4 ADD MLOAD PUSH2 0x103D PUSH1 0xE0 DUP7 ADD DUP3 PUSH2 0xF85 JUMP JUMPDEST POP DUP1 SWAP2 POP POP SWAP3 SWAP2 POP POP JUMP JUMPDEST PUSH0 PUSH1 0x20 DUP3 ADD SWAP1 POP DUP2 DUP2 SUB PUSH0 DUP4 ADD MSTORE PUSH2 0x1060 DUP2 DUP5 PUSH2 0xF94 JUMP JUMPDEST SWAP1 POP SWAP3 SWAP2 POP POP JUMP JUMPDEST PUSH0 PUSH1 0xFF DUP3 AND SWAP1 POP SWAP2 SWAP1 POP JUMP JUMPDEST PUSH2 0x107D DUP2 PUSH2 0x1068 JUMP JUMPDEST DUP2 EQ PUSH2 0x1087 JUMPI PUSH0 DUP1 REVERT JUMPDEST POP JUMP JUMPDEST PUSH0 DUP2 CALLDATALOAD SWAP1 POP PUSH2 0x1098 DUP2 PUSH2 0x1074 JUMP JUMPDEST SWAP3 SWAP2 POP POP JUMP JUMPDEST PUSH0 PUSH1 0x20 DUP3 DUP5 SUB SLT ISZERO PUSH2 0x10B3 JUMPI PUSH2 0x10B2 PUSH2 0xD2F JUMP JUMPDEST JUMPDEST PUSH0 PUSH2 0x10C0 DUP5 DUP3 DUP6 ADD PUSH2 0x108A JUMP JUMPDEST SWAP2 POP POP SWAP3 SWAP2 POP POP JUMP JUMPDEST PUSH0 PUSH1 0x20 DUP3 DUP5 SUB SLT ISZERO PUSH2 0x10DE JUMPI PUSH2 0x10DD PUSH2 0xD2F JUMP JUMPDEST JUMPDEST PUSH0 PUSH2 0x10EB DUP5 DUP3 DUP6 ADD PUSH2 0xE3C JUMP JUMPDEST SWAP2 POP POP SWAP3 SWAP2 POP POP JUMP JUMPDEST PUSH2 0x10FD DUP2 PUSH2 0xF7A JUMP JUMPDEST DUP3 MSTORE POP POP JUMP JUMPDEST PUSH0 PUSH1 0x20 DUP3 ADD SWAP1 POP PUSH2 0x1116 PUSH0 DUP4 ADD DUP5 PUSH2 0x10F4 JUMP JUMPDEST SWAP3 SWAP2 POP POP JUMP JUMPDEST PUSH32 0x4E487B7100000000000000000000000000000000000000000000000000000000 PUSH0 MSTORE PUSH1 0x11 PUSH1 0x4 MSTORE PUSH1 0x24 PUSH0 REVERT JUMPDEST PUSH0 PUSH2 0x1153 DUP3 PUSH2 0xE1D JUMP JUMPDEST SWAP2 POP PUSH2 0x115E DUP4 PUSH2 0xE1D JUMP JUMPDEST SWAP3 POP DUP3 DUP3 ADD SWAP1 POP DUP1 DUP3 GT ISZERO PUSH2 0x1176 JUMPI PUSH2 0x1175 PUSH2 0x111C JUMP JUMPDEST JUMPDEST SWAP3 SWAP2 POP POP JUMP JUMPDEST PUSH32 0x4E487B7100000000000000000000000000000000000000000000000000000000 PUSH0 MSTORE PUSH1 0x41 PUSH1 0x4 MSTORE PUSH1 0x24 PUSH0 REVERT JUMPDEST PUSH32 0x4E487B7100000000000000000000000000000000000000000000000000000000 PUSH0 MSTORE PUSH1 0x22 PUSH1 0x4 MSTORE PUSH1 0x24 PUSH0 REVERT JUMPDEST PUSH0 PUSH1 0x2 DUP3 DIV SWAP1 POP PUSH1 0x1 DUP3 AND DUP1 PUSH2 0x11ED JUMPI PUSH1 0x7F DUP3 AND SWAP2 POP JUMPDEST PUSH1 0x20 DUP3 LT DUP2 SUB PUSH2 0x1200 JUMPI PUSH2 0x11FF PUSH2 0x11A9 JUMP JUMPDEST JUMPDEST POP SWAP2 SWAP1 POP JUMP JUMPDEST PUSH0 DUP2 SWAP1 POP DUP2 PUSH0 MSTORE PUSH1 0x20 PUSH0 KECCAK256 SWAP1 POP SWAP2 SWAP1 POP JUMP JUMPDEST PUSH0 PUSH1 0x20 PUSH1 0x1F DUP4 ADD DIV SWAP1 POP SWAP2 SWAP1 POP JUMP JUMPDEST PUSH0 DUP3 DUP3 SHL SWAP1 POP SWAP3 SWAP2 POP POP JUMP JUMPDEST PUSH0 PUSH1 0x8 DUP4 MUL PUSH2 0x1262 PUSH32 0xFFFFFFFFFFFFFFFFFFFFFFFFFFFFFFFFFFFFFFFFFFFFFFFFFFFFFFFFFFFFFFFF DUP3 PUSH2 0x1227 JUMP JUMPDEST PUSH2 0x126C DUP7 DUP4 PUSH2 0x1227 JUMP JUMPDEST SWAP6 POP DUP1 NOT DUP5 AND SWAP4 POP DUP1 DUP7 AND DUP5 OR SWAP3 POP POP POP SWAP4 SWAP3 POP POP POP JUMP JUMPDEST PUSH0 DUP2 SWAP1 POP SWAP2 SWAP1 POP JUMP JUMPDEST PUSH0 PUSH2 0x12A7 PUSH2 0x12A2 PUSH2 0x129D DUP5 PUSH2 0xE1D JUMP JUMPDEST PUSH2 0x1284 JUMP JUMPDEST PUSH2 0xE1D JUMP JUMPDEST SWAP1 POP SWAP2 SWAP1 POP JUMP JUMPDEST PUSH0 DUP2 SWAP1 POP SWAP2 SWAP1 POP JUMP JUMPDEST PUSH2 0x12C0 DUP4 PUSH2 0x128D JUMP JUMPDEST PUSH2 0x12D4 PUSH2 0x12CC DUP3 PUSH2 0x12AE JUMP JUMPDEST DUP5 DUP5 SLOAD PUSH2 0x1233 JUMP JUMPDEST DUP3 SSTORE POP POP POP POP JUMP JUMPDEST PUSH0 SWAP1 JUMP JUMPDEST PUSH2 0x12E8 PUSH2 0x12DC JUMP JUMPDEST PUSH2 0x12F3 DUP2 DUP5 DUP5 PUSH2 0x12B7 JUMP JUMPDEST POP POP POP JUMP JUMPDEST JUMPDEST DUP2 DUP2 LT ISZERO PUSH2 0x1316 JUMPI PUSH2 0x130B PUSH0 DUP3 PUSH2 0x12E0 JUMP JUMPDEST PUSH1 0x1 DUP2 ADD SWAP1 POP PUSH2 0x12F9 JUMP JUMPDEST POP POP JUMP JUMPDEST PUSH1 0x1F DUP3 GT ISZERO PUSH2 0x135B JUMPI PUSH2 0x132C DUP2 PUSH2 0x1206 JUMP JUMPDEST PUSH2 0x1335 DUP5 PUSH2 0x1218 JUMP JUMPDEST DUP2 ADD PUSH1 0x20 DUP6 LT ISZERO PUSH2 0x1344 JUMPI DUP2 SWAP1 POP JUMPDEST PUSH2 0x1358 PUSH2 0x1350 DUP6 PUSH2 0x1218 JUMP JUMPDEST DUP4 ADD DUP3 PUSH2 0x12F8 JUMP JUMPDEST POP POP JUMPDEST POP POP POP JUMP JUMPDEST PUSH0 DUP3 DUP3 SHR SWAP1 POP SWAP3 SWAP2 POP POP JUMP JUMPDEST PUSH0 PUSH2 0x137B PUSH0 NOT DUP5 PUSH1 0x8 MUL PUSH2 0x1360 JUMP JUMPDEST NOT DUP1 DUP4 AND SWAP2 POP POP SWAP3 SWAP2 POP POP JUMP JUMPDEST PUSH0 PUSH2 0x1393 DUP4 DUP4 PUSH2 0x136C JUMP JUMPDEST SWAP2 POP DUP3 PUSH1 0x2 MUL DUP3 OR SWAP1 POP SWAP3 SWAP2 POP POP JUMP JUMPDEST PUSH2 0x13AC DUP3 PUSH2 0xEE1 JUMP JUMPDEST PUSH8 0xFFFFFFFFFFFFFFFF DUP2 GT ISZERO PUSH2 0x13C5 JUMPI PUSH2 0x13C4 PUSH2 0x117C JUMP JUMPDEST JUMPDEST PUSH2 0x13CF DUP3 SLOAD PUSH2 0x11D6 JUMP JUMPDEST PUSH2 0x13DA DUP3 DUP3 DUP6 PUSH2 0x131A JUMP JUMPDEST PUSH0 PUSH1 0x20 SWAP1 POP PUSH1 0x1F DUP4 GT PUSH1 0x1 DUP2 EQ PUSH2 0x140B JUMPI PUSH0 DUP5 ISZERO PUSH2 0x13F9 JUMPI DUP3 DUP8 ADD MLOAD SWAP1 POP JUMPDEST PUSH2 0x1403 DUP6 DUP3 PUSH2 0x1388 JUMP JUMPDEST DUP7 SSTORE POP PUSH2 0x146A JUMP JUMPDEST PUSH1 0x1F NOT DUP5 AND PUSH2 0x1419 DUP7 PUSH2 0x1206 JUMP JUMPDEST PUSH0 JUMPDEST DUP3 DUP2 LT ISZERO PUSH2 0x1440 JUMPI DUP5 DUP10 ADD MLOAD DUP3 SSTORE PUSH1 0x1 DUP3 ADD SWAP2 POP PUSH1 0x20 DUP6 ADD SWAP5 POP PUSH1 0x20 DUP2 ADD SWAP1 POP PUSH2 0x141B JUMP JUMPDEST DUP7 DUP4 LT ISZERO PUSH2 0x145D JUMPI DUP5 DUP10 ADD MLOAD PUSH2 0x1459 PUSH1 0x1F DUP10 AND DUP3 PUSH2 0x136C JUMP JUMPDEST DUP4 SSTORE POP JUMPDEST PUSH1 0x1 PUSH1 0x2 DUP9 MUL ADD DUP9 SSTORE POP POP POP JUMPDEST POP POP POP POP POP POP JUMP JUMPDEST PUSH0 DUP3 DUP3 MSTORE PUSH1 0x20 DUP3 ADD SWAP1 POP SWAP3 SWAP2 POP POP JUMP JUMPDEST PUSH32 0x5468652050726F706F73616C206973206E6F7420616374697665000000000000 PUSH0 DUP3 ADD MSTORE POP JUMP JUMPDEST PUSH0 PUSH2 0x14B6 PUSH1 0x1A DUP4 PUSH2 0x1472 JUMP JUMPDEST SWAP2 POP PUSH2 0x14C1 DUP3 PUSH2 0x1482 JUMP JUMPDEST PUSH1 0x20 DUP3 ADD SWAP1 POP SWAP2 SWAP1 POP JUMP JUMPDEST PUSH0 PUSH1 0x20 DUP3 ADD SWAP1 POP DUP2 DUP2 SUB PUSH0 DUP4 ADD MSTORE PUSH2 0x14E3 DUP2 PUSH2 0x14AA JUMP JUMPDEST SWAP1 POP SWAP2 SWAP1 POP JUMP JUMPDEST PUSH32 0x54686520616464726573732068617320616C726561647920766F746564210000 PUSH0 DUP3 ADD MSTORE POP JUMP JUMPDEST PUSH0 PUSH2 0x151E PUSH1 0x1E DUP4 PUSH2 0x1472 JUMP JUMPDEST SWAP2 POP PUSH2 0x1529 DUP3 PUSH2 0x14EA JUMP JUMPDEST PUSH1 0x20 DUP3 ADD SWAP1 POP SWAP2 SWAP1 POP JUMP JUMPDEST PUSH0 PUSH1 0x20 DUP3 ADD SWAP1 POP DUP2 DUP2 SUB PUSH0 DUP4 ADD MSTORE PUSH2 0x154B DUP2 PUSH2 0x1512 JUMP JUMPDEST SWAP1 POP SWAP2 SWAP1 POP JUMP JUMPDEST PUSH0 PUSH2 0x155C DUP3 PUSH2 0xE1D JUMP JUMPDEST SWAP2 POP PUSH2 0x1567 DUP4 PUSH2 0xE1D JUMP JUMPDEST SWAP3 POP DUP3 DUP3 SUB SWAP1 POP DUP2 DUP2 GT ISZERO PUSH2 0x157F JUMPI PUSH2 0x157E PUSH2 0x111C JUMP JUMPDEST JUMPDEST SWAP3 SWAP2 POP POP JUMP JUMPDEST PUSH32 0x4E487B7100000000000000000000000000000000000000000000000000000000 PUSH0 MSTORE PUSH1 0x32 PUSH1 0x4 MSTORE PUSH1 0x24 PUSH0 REVERT JUMPDEST PUSH32 0x4E487B7100000000000000000000000000000000000000000000000000000000 PUSH0 MSTORE PUSH1 0x12 PUSH1 0x4 MSTORE PUSH1 0x24 PUSH0 REVERT JUMPDEST PUSH0 PUSH2 0x15E9 DUP3 PUSH2 0xE1D JUMP JUMPDEST SWAP2 POP PUSH2 0x15F4 DUP4 PUSH2 0xE1D JUMP JUMPDEST SWAP3 POP DUP3 PUSH2 0x1604 JUMPI PUSH2 0x1603 PUSH2 0x15B2 JUMP JUMPDEST JUMPDEST DUP3 DUP3 MOD SWAP1 POP SWAP3 SWAP2 POP POP JUMP JUMPDEST PUSH0 PUSH2 0x1619 DUP3 PUSH2 0xE1D JUMP JUMPDEST SWAP2 POP PUSH2 0x1624 DUP4 PUSH2 0xE1D JUMP JUMPDEST SWAP3 POP DUP3 PUSH2 0x1634 JUMPI PUSH2 0x1633 PUSH2 0x15B2 JUMP JUMPDEST JUMPDEST DUP3 DUP3 DIV SWAP1 POP SWAP3 SWAP2 POP POP JUMP INVALID LOG2 PUSH5 0x6970667358 0x22 SLT KECCAK256 0xE4 DELEGATECALL SWAP2 SWAP12 0xC7 SLT PUSH30 0xB5A90BF7A70D8155E255DE3FBEDD04111EFC390238CED9626864736F6C63 NUMBER STOP ADDMOD AND STOP CALLER "
				},
				"gasEstimates": {
					"creation": {
						"codeDepositCost": "1149800",
						"executionCost": "74032",
						"totalCost": "1223832"
					},
					"external": {
						"create(string,string,uint256)": "infinite",
						"getCurrentProposal()": "infinite",
						"getProposal(uint256)": "infinite",
						"isVoted(address)": "infinite",
						"setOwner(address)": "26882",
						"terminateProposal()": "33276",
						"vote(uint8)": "infinite"
					},
					"internal": {
						"calculateCurrentState()": "infinite"
					}
				},
				"methodIdentifiers": {
					"create(string,string,uint256)": "3ca6d100",
					"getCurrentProposal()": "41ec6870",
					"getProposal(uint256)": "c7f758a8",
					"isVoted(address)": "cbff75cb",
					"setOwner(address)": "13af4035",
					"terminateProposal()": "dbddc7aa",
					"vote(uint8)": "b3f98adc"
				}
			},
			"storageLayout": {
				"storage": [
					{
						"astId": 3,
						"contract": "contracts/ProposalContract.sol:ProposalContract",
						"label": "owner",
						"offset": 0,
						"slot": "0",
						"type": "t_address"
					},
					{
						"astId": 5,
						"contract": "contracts/ProposalContract.sol:ProposalContract",
						"label": "counter",
						"offset": 0,
						"slot": "1",
						"type": "t_uint256"
					},
					{
						"astId": 54,
						"contract": "contracts/ProposalContract.sol:ProposalContract",
						"label": "proposal_history",
						"offset": 0,
						"slot": "2",
						"type": "t_mapping(t_uint256,t_struct(Proposal)22_storage)"
					},
					{
						"astId": 57,
						"contract": "contracts/ProposalContract.sol:ProposalContract",
						"label": "voted_addresses",
						"offset": 0,
						"slot": "3",
						"type": "t_array(t_address)dyn_storage"
					}
				],
				"types": {
					"t_address": {
						"encoding": "inplace",
						"label": "address",
						"numberOfBytes": "20"
					},
					"t_array(t_address)dyn_storage": {
						"base": "t_address",
						"encoding": "dynamic_array",
						"label": "address[]",
						"numberOfBytes": "32"
					},
					"t_bool": {
						"encoding": "inplace",
						"label": "bool",
						"numberOfBytes": "1"
					},
					"t_mapping(t_uint256,t_struct(Proposal)22_storage)": {
						"encoding": "mapping",
						"key": "t_uint256",
						"label": "mapping(uint256 => struct ProposalContract.Proposal)",
						"numberOfBytes": "32",
						"value": "t_struct(Proposal)22_storage"
					},
					"t_string_storage": {
						"encoding": "bytes",
						"label": "string",
						"numberOfBytes": "32"
					},
					"t_struct(Proposal)22_storage": {
						"encoding": "inplace",
						"label": "struct ProposalContract.Proposal",
						"members": [
							{
								"astId": 7,
								"contract": "contracts/ProposalContract.sol:ProposalContract",
								"label": "description",
								"offset": 0,
								"slot": "0",
								"type": "t_string_storage"
							},
							{
								"astId": 9,
								"contract": "contracts/ProposalContract.sol:ProposalContract",
								"label": "title",
								"offset": 0,
								"slot": "1",
								"type": "t_string_storage"
							},
							{
								"astId": 11,
								"contract": "contracts/ProposalContract.sol:ProposalContract",
								"label": "approve",
								"offset": 0,
								"slot": "2",
								"type": "t_uint256"
							},
							{
								"astId": 13,
								"contract": "contracts/ProposalContract.sol:ProposalContract",
								"label": "reject",
								"offset": 0,
								"slot": "3",
								"type": "t_uint256"
							},
							{
								"astId": 15,
								"contract": "contracts/ProposalContract.sol:ProposalContract",
								"label": "pass",
								"offset": 0,
								"slot": "4",
								"type": "t_uint256"
							},
							{
								"astId": 17,
								"contract": "contracts/ProposalContract.sol:ProposalContract",
								"label": "total_vote_to_end",
								"offset": 0,
								"slot": "5",
								"type": "t_uint256"
							},
							{
								"astId": 19,
								"contract": "contracts/ProposalContract.sol:ProposalContract",
								"label": "current_state",
								"offset": 0,
								"slot": "6",
								"type": "t_bool"
							},
							{
								"astId": 21,
								"contract": "contracts/ProposalContract.sol:ProposalContract",
								"label": "is_active",
								"offset": 1,
								"slot": "6",
								"type": "t_bool"
							}
						],
						"numberOfBytes": "224"
					},
					"t_uint256": {
						"encoding": "inplace",
						"label": "uint256",
						"numberOfBytes": "32"
					}
				}
			},
			"userdoc": {
				"kind": "user",
				"methods": {},
				"version": 1
			}
		}
	}
}